:020000040800F2
:1000000050090020AD0100085119000853190008DB
:100010005519000857190008591900080000000078
:100020000000000000000000000000005B19000854
:100030005D190008000000005F190008631900083E
:10004000C7010008C7010008C7010008C701000870
:10005000C7010008C7010008C7010008C701000860
:10006000C7010008C7010008C7010008BF12000847
:10007000C5120008CB120008D1120008D7120008E0
:10008000DD120008E3120008C701000800000000AC
:10009000000000000000000000000000C701000890
:1000A000C7010008C7010008C7010008C701000810
:1000B000C7010008C7010008C7010008C701000800
:1000C000C7010008C7010008C7010008C7010008F0
:1000D000C70100084D1700085F1700080000000066
:1000E000C7010008C7010008C701000800000000A0
:1000F000000000000000000000000000E9120008FD
:1001000000000000C7010008C7010008C70100087F
:1001100000000000000000000000000000000000DF
:10012000EF120008F3120008F9120008FF1200088D
:10013000051300080000000000000000000000009F
:10014000000000000000000000000000C7010008DF
:100150000B13000811130008171300087717000885
:10016000C7010008C70100080000000000000000EF
:10017000000000000000000000000000000000007F
:1001800000000000C701000800000000000000009F
:10019000C7010008C7010008DFF80CD001F036FFE6
:1001A00000480047F9180008500900200648804719
:1001B00006480047FEE7FEE7FEE7FEE7FEE7FEE74C
:1001C000FEE7FEE7FEE7FEE7911A00089901000846
:1001D0002849084328490860704730B50F23C27882
:1001E00001780125FAB1244A126801F1E02102F4F4
:1001F000E062C2F5E062C2F30722C2F10404D34018
:100200004278A24084781C401443220181F80024E3
:10021000007800F01F018D404009800000F1E020CF
:10022000C0F8005130BD01F01F0085404809800032
:1002300000F1E020C0F8805130BD104A1140014368
:100240000D48001F016070470B4A121D00291168FC
:1002500001D0014300E08143116070474FF0E0217D
:100260000428086903D020F004000861704740F0BA
:100270000400FAE70000FA050CED00E080FFFF1F24
:10028000FA48016841F001010160F84A0021083292
:1002900011600268F64B1A400260031DF54A1A60AD
:1002A000F24BF54A84331A60026822F4802202601D
:1002B000EE480C300160ED488C3001607047EB492E
:1002C0000022891C0A7008707047024600205109FC
:1002D00001290CD002290CD0E4497431096802F0DC
:1002E0001F02012393400B4200D001207047DF49D9
:1002F000F4E7DE497031F1E718B500204FF4A0446F
:1003000000903120FFF7E1FF0099491C0091A142C4
:1003100001D00028F5D03120FFF7D7FF002800D00A
:10032000012018BDD14A116821F0F80141EAC0004E
:1003300010607047D14908607047CC490022703185
:100340000A700A70012802D0042801D10520087023
:100350007047CB490860704741EA82115A0810B5CE
:10036000C84B029C03EB02421143014341EA046083
:10037000BE49091D086010BDC0490866704780016C
:1003800040EA0170B9491043843108607047BB49A5
:1003900088667047800140EA0160B44940EA027013
:1003A000883108607047B54908677047B349C86429
:1003B0007047AE4B08331A68084322F0EC621043D2
:1003C00018607047A94B08331A68084322F0784236
:1003D000104318607047A54A0832116821F00301E4
:1003E000014311607047A1480830006800F00C001C
:1003F00070479E4A0832116821F0F00101431160F4
:1004000070479A4A0832116821F4E05101431160A3
:100410007047964A0832116821F4604141EAC000F1
:100420001060704770B5914B08331968964C11F005
:100430000C0104D06610042903D0082903D00460FD
:100440001BE0066019E0894A121D1168C1F380554E
:10045000116801F03F0115B1B6FBF1F101E0B4FB09
:10046000F1F114681268C4F388146143C2F30142C5
:10047000521C5200B1FBF2F1016019680F2202EA2E
:100480001111824A545C0168E14041601C680725F3
:1004900005EA9424145D21FA04F484601B6805EADB
:1004A0005333D25CD140C16070BDC0F30121032938
:1004B00008D16E4B08331968754A21F4F8110240CF
:1004C0000A431A60694970310A68C0F30B0002439D
:1004D0000A6070476A494439086070476849403982
:1004E000086070476549C1F85C0170475F4A8C320B
:1004F0001168401E21F01F010143116070475B4AE3
:100500008C3211686FF0FF0321F4F85103EB0020E7
:10051000084310607047554A8C32116821F440310D
:100520000143116070475B49C1F8E00170474F4AD1
:1005300030320029116801D0014300E0814311608D
:1005400070474A4A34320029116801D0014300E063
:10055000814311607047454A40320029116801D03B
:10056000014300E0814311607047404A4432002952
:10057000116801D0014300E08143116070473B4A9C
:1005800010320029116801D0014300E0814311605D
:100590007047364A14320029116801D0014300E047
:1005A000814311607047314A20320029116801D01F
:1005B000014300E08143116070472C4A2432002936
:1005C000116801D0014300E0814311607047274A60
:1005D00050320029116801D0014300E081431160CD
:1005E0007047224A54320029116801D0014300E0CB
:1005F0008143116070471D4A60320029116801D0A3
:10060000014300E0814311607047184A64320029B9
:10061000116801D0014300E0814311607047134924
:1006200070310128086803D020F008000860704786
:1006300040F00800FAE70D4A0D320029117801D088
:10064000014300E08143117070470848743001682D
:1006500041F08071016070470146044A00200C326D
:1006600012680A4200D001207047000000380240A2
:10067000FFFFF6EA1030002400300020000047425F
:10068000800E47420000FFFF0024F400000000201D
:10069000FFFCFF0F0010474201490870E4E700002B
:1006A0000E3802402DE9F043016821F0010101609C
:1006B0000021016041608160C160016121214161CF
:1006C000B849B84A3D251039904202D18D60BDE845
:1006D000F083B44A4FF474661832904201D18E60B0
:1006E000F5E7B04A4FF474173032904201D18F6071
:1006F000EDE7AC4A4FF0746C4832904202D1C1F839
:1007000008C0E4E7A74BA84A6033984201D1CA6009
:10071000DDE7A44CA54B7834A04201D1CB60D6E7ED
:10072000DFF88082A24C08F19008404501D1CC60EE
:10073000CDE7DFF870824FF03D5908F1A808404539
:1007400002D1C1F80C90C2E79A49DFF868820839F3
:10075000404501D10D60BAE7964D1835A84201D148
:100760000E60B4E7934D3035A84201D10F60AEE77B
:10077000904D4835A84202D1C1F800C0A7E78D4D81
:100780008C496035091FA84201D10A609FE7894A58
:100790007832904201D10B6099E7864A90329042BC
:1007A00001D10C6093E7834AA83290428FD1C1F8FF
:1007B00000908CE730B503687F4ACC6813400A6824
:1007C0002243D1E905452C432243CC6922430C6ADC
:1007D00022434C6A22438C6A22434C6B22438C6B2B
:1007E00022431A430260426922F00703D1E90B2435
:1007F00022431A4342610A6942604A6882608968FA
:10080000C16030BD0021016041608160C160016153
:1008100041618161C161016241628162C1620163C2
:100820004163816370470029016802D041F00101F2
:1008300001E021F00101016070470029016802D048
:1008400041F4004101E021F40041016070470029BA
:10085000016802D041F0200101E021F02001016097
:10086000704741607047406880B27047002A026854
:1008700002D042F4002201E022F400220260016171
:1008800070470029016802D041F4802101E021F481
:100890008021016070470AB101617047C1607047F3
:1008A000014600200968090300D501207047014670
:1008B00000200968C90700D001207047406900F096
:1008C0003800704702463B4B00209A4202D2354A1C
:1008D000103A01E0374A103A8B0001D5526800E027
:1008E0001268364B1A400A4200D001207047314A44
:1008F000904202D22B48103801E02E4810382F4A7F
:100900008B0001EA020101D5C16070478160704728
:100910000B0607D5436912B143F0800301E023F0D1
:1009200080034361802908D0002A026801F01E017B
:1009300001D00A4300E08A430260704730B51D4A87
:100940000024904202D2174A103A01E0194A103AA4
:100950001B4B194205D01E2303EAD12503682B4007
:1009600002E0406900F08003880001D5506800E093
:100970001068124A1040084201D003B101242046F9
:1009800030BD0C4A904202D20648103801E00948B6
:1009900010380A4A8B0001EA020101D5C160704794
:1009A00081607047106002403D000020400F002031
:1009B00000003D20106402403F801CF07D0F7D0F41
:1009C0003C0F3C0FCD4910B5884206D101211020C3
:1009D000FFF7F3FD0021102020E0C949884202D131
:1009E00001214C0429E0C749884202D101218C042D
:1009F00023E0C549884202D10121CC041DE0C3494E
:100A0000884202D101210C0517E0C149884209D171
:100A100001212020FFF7D1FD00212020BDE810405A
:100A2000FFF7CBBDBB49884202D101218C0704E00E
:100A3000B94988420AD1012144052046FFF7B3FD98
:100A40002046BDE810400021FFF7ADBD10BD7FB5C9
:100A50000446008A0D46C98820F440500143218293
:100A6000A08941F20C618843A9882A8911436A89C7
:100A700002431143A181A08A20F44071A889084350
:100A8000A0826846FFF7CEFC9C48844202D0A04872
:100A9000844201D1039800E00298A189090400EB87
:100AA000C00101EB0010296801D5490000E0890070
:100AB000B0FBF1F06422B0FBF2F109010B096FF019
:100AC00018056B4300EB8300A3891D044FF032032C
:100AD00006D503EBC000B0FBF2F000F0070005E024
:100AE00003EB0010B0FBF2F000F00F000843208190
:100AF0007FBD4FF41651016000218180C1800181CA
:100B00000C2242818181704710B5028A4C8822F400
:100B100070630A8822438C88C9880C4322431A4395
:100B2000028210BD0021018041808180C180704718
:100B30000029818902D041F4005101E021F40051E3
:100B400081817047028B02F47F420283028B0A4349
:100B5000028370470029818902D041F4004101E0FD
:100B6000C1F30E01818170470029818A02D041F4CE
:100B7000006101E021F4006181827047C1F3080146
:100B8000818070478088C0F308007047028A22F095
:100B90000F020282028A0A43028270470029818979
:100BA00002D041F0020101E021F002018181704791
:100BB000828922F40062828182890A43828170479D
:100BC000028A22F020020282028A0A4302827047CD
:100BD0000029018A02D041F4804101E021F48041E2
:100BE00001827047818941F00101818170470029AC
:100BF000818A02D041F0080101E021F008018182E0
:100C00007047028BD2B20283028B42EA0121018338
:100C100070470029818A02D041F0200101E021F0D3
:100C20002001818270470029818A02D041F01001A1
:100C300001E021F0100181827047828A22F00402D3
:100C40008282828A0A43828270470029818A02D086
:100C500041F0020101E021F0020181827047002A87
:100C6000828A01D00A4300E08A438282704710B52D
:100C7000C1F3421301F01F040121A140012B07D051
:100C8000022B07D01430002A026805D00A4304E082
:100C90000C30F8E71030F6E78A43026010BD0246D8
:100CA000002012880A4200D001207047C943018009
:100CB000704770B501F01F0501260024C1F34213EF
:100CC00006FA05F2012B0FD0022B0FD0838A4FEAD0
:100CD00011210088134206FA01F600EA060001D04D
:100CE00000B10124204670BD8389F0E7038AEEE756
:100CF0000A0A01219140C943018070470010014058
:100D00000044004000480040004C004000500040BB
:100D10000014014000780040007C004070B55A4843
:100D20004168491C4160816811B18168491E816038
:100D3000AFF300800024554E18E006EB8405686888
:100D400090B1017B81B1826872B1521E8260696884
:100D50000AD14869096988476868016881606868DC
:100D6000416809B900210173641CE4B23078A042E3
:100D7000E3D870BD464801684FF47A70B1FBF0F0DB
:100D8000401EB0F1807F12D24FF0E0225061414B03
:100D9000F02083F8140D00209061072010613E4878
:100DA000B1FBF0F13848C160012101707047FEE7E6
:100DB00035480078002805D04FF0E020016941F067
:100DC0000201016170474FF0E020016921F002014A
:100DD000016170472DE9F0472C4C0546DDF8209065
:100DE00020781E4617468846052802D30020BDE815
:100DF000F087182001F04AFA0028F8D00560C0E911
:100E000001850773C0E90469217804EB810148601A
:100E10002178491C2170EAE71C4B30B400211A7874
:100E200006E003EB81046468844203D0491CC9B224
:100E30008A42F6D88A4218D003EB81004068EFF36B
:100E4000108472B605E003EB8102491C9568C9B2B3
:100E500055601A78521E8A42F5DC1978491E1970BD
:100E600004B962B630BC01F0E9B930BC704700216A
:100E700001737047012101737047016881607047F9
:100E80004160704701607047100000209C00002006
:100E9000680000200FE000E0C0C62D00A349084410
:100EA000C0F38F2070472DE9F04F9A46DDE909B86D
:100EB00089460346FFF7F2FFC5B200204FF0030E4C
:100EC0000121814011EA090F28D0994E36F81540CA
:100ED0000C4326F81540DF6844000EFA04F6B743C9
:100EE0000BFA04FC47EA0C07DF601F6802FA04FCF7
:100EF000B74347EA0C071F60012A01D0022A0DD12F
:100F00005F6889B28F430AFA00F189B20F435F60CC
:100F1000996808FA04F4B14321439960401CC0B2B7
:100F20001028CDD3BDE8F08F00B5FFF7B7FF012142
:100F30008140804802681143016000BDFCB516463F
:100F4000DDE907C50C00074608D0FFF7EDFFCDE946
:100F500000C5324621463846FFF7A5FFFCBD2DE906
:100F6000FC4F9946DDE90BB792460D00064622D0AC
:100F7000FFF7DAFF002201214FF00F0C01FA02F017
:100F800028420DD0D00806EB8003186A5407E40EFF
:100F90000CFA04F820EA080007FA04F42043186267
:100FA000521C102AEAD3CDE9009B5346022229465F
:100FB0003046FFF778FFBDE8FC8FF0B50E460546DA
:100FC000FFF76CFF00225A49C4B24FF0010C03270F
:100FD0000CFA02F333420CD028684FEA420E07FAAB
:100FE0000EFE40EA0E00286031F81400984321F804
:100FF0001400521CD2B2102AEAD3F0BDF0B5002280
:101000000125032605FA02F30B4205D004685700B8
:1010100006FA07F39C430460521CD2B2102AF1D3A3
:10102000F0BDF0B500220127032607FA02F33C4683
:101030000B4208D00568530006FA03FC25EA0C05AC
:101040009C4025430560521CD2B2102AEDD3F0BD5E
:10105000F0B500220125032605FA02F30B4205D064
:101060000468570006FA07F31C430460521CD2B20E
:10107000102AF1D3F0BDF0B5002201260324022787
:1010800006FA02F30B4209D00568530004FA03FC88
:1010900025EA0C0507FA03F31D430560521CD2B282
:1010A000102AEDD3F0BDF0B500230127032507FA80
:1010B00003F40C4209D0C6685C0005FA04FC26EA79
:1010C0000C0602FA04F42643C6605B1CDBB2102B4C
:1010D000EDD3F0BD41F48032C261C161C261C1692A
:1010E000C0697047002102E0491C89B2400801280C
:1010F000FAD80846704700B5FFF7D0FE01218140BD
:101100000C4802688A43026000BD00B5FFF7C6FEC6
:10111000074931F8100000BD00B5FFF7BFFE0449D4
:1011200031F81000C04380B200BD00000000FEBFD7
:10113000B400002030380240784A10B5182390429D
:1011400002D2774A774C03E0744A744C083A6442FE
:101150002044B0FBF3F0042801D3001F121D724B92
:1011600001F03D01185C8140116010BD3D21E3E7B5
:101170006A491822884203D269496A4B083903E058
:101180006649664B10395B421844B0FBF2F0042804
:1011900001D3001F091D0968634A105CC14001F0BA
:1011A0003D00704738B504463D21FFF7C5FF5E4A54
:1011B0005A4B1820121D01219C4207D2594B8DF821
:1011C00001102344B3FBF0F0125C08E0534B8DF8A0
:1011D00001105B422344B3FBF0F00244127A8DF815
:1011E00000208DF803108DF802006846FEF7F5FF29
:1011F000206840F01E002060606940F0800060615F
:1012000038BD10B504463D21FFF796FF4648434AD6
:101210001821001D944201D2424A01E03F4A524245
:101220002244B2FBF1F14056012100F01F0291402F
:101230004009800000F1E020C0F88011206820F013
:101240001E002060606900F08000606110BD704782
:10125000704770477047704770B505463D21FFF7EE
:1012600087FF84B23D212846FFF766FFA00605D51B
:101270002868C00602D52846FFF7E9FFE00605D535
:101280002868000702D52846FFF7E2FF200705D5AA
:101290002868400702D52846FFF7DBFF600705D521
:1012A0002868800702D52846FFF7D4FFE00705D05D
:1012B0006869000602D52846FFF7CDFF70BD1848C3
:1012C0000830C9E716482030C6E715483830C3E76C
:1012D00013485030C0E712486830BDE710488030EE
:1012E000BAE70F489830B7E70D48B030B4E70B487D
:1012F000B2E70A481830AFE708483030ACE7074893
:101300004830A9E705486030A6E704487830A3E7ED
:1013100002489030A0E70148A8309DE710640240E1
:1013200008600240F09FFDBFF8220008FD4A014618
:10133000904200D10020FC4A914200D10120FB4A9A
:10134000914200D10620704770471CB50822032146
:1013500040B101280DD0032803D10821F348FFF73D
:10136000F3FF1CBDCDE9001201230022C021F0488B
:1013700006E0CDE90012012300224FF48441ED483C
:10138000FFF7EDFD1CBD1CB50722032140B101286C
:101390000DD0032803D10721E348FFF7D5FF1CBD7B
:1013A000CDE90012012300220C21E34805E0CDE93C
:1013B0000012012300226021E048FFF7D0FD1CBD90
:1013C0001CB50722032140B101280ED0032803D108
:1013D0000721D448FFF7B8FF1CBDCDE90012012357
:1013E00000224FF4C061D44805E0CDE9001201238A
:1013F0000022C021D248FFF7B2FD1CBDC94A0146F8
:10140000904200D1CF48C84A914201D1CD48103016
:10141000C64A914201D1CB48203070472DE9FF4F99
:1014200087B09946DDE916B7DDE914A813460446EE
:10143000FFF7E4FF0546BB48C34E0093844209D141
:10144000306840F0100030600898FFF7B9FF2520A1
:101450008DF81000B44884420BD1BB48001F0168CE
:1014600041F4003101600898FFF78DFF26208DF8C8
:101470001000AE48844209D1306840F0200030604E
:101480000898FFF762FF47208DF810002046FFF70D
:1014900099FA01268DF8136006208DF81100204678
:1014A000FFF744FF8DF8120004A8FEF796FEADF892
:1014B0000AA0ADF806B0ADF80C90ADF80880ADF814
:1014C00004700020287340F6FF700590411E0591BE
:1014D00001D30846FAE769462046FFF7B8FAA08923
:1014E00040F02000A0812E73A08940F40050A0811C
:1014F0000BB0BDE8F08F2DE9FF4104468948002577
:101500000C2617468846844206D1CDE9006502952F
:1015100000230395FFF782FF8348844208D1CDE979
:101520000065029500233A4641460395FFF776FF92
:101530007E48844208D1CDE90065029500233A46F1
:1015400041460395FFF76AFFBDE8FF812DE9FF479C
:101550000446744800250C261F469046894684425E
:1015600005D1CDE9006502950395FFF757FF6E4859
:10157000844208D1CDE9006502953B464246494682
:101580000395FFF74BFF6948844208D1CDE9006518
:1015900002953B46424649460395FFF73FFFBDE8AB
:1015A000FF8710B50023FFF729FFC18819B9028909
:1015B0004489A2420DD0428983889A4201D10022F7
:1015C0004281036892B29B56521C428109B1491E66
:1015D000C180D8B210BD10B50C46FFF70FFFC3880D
:1015E00042890DE08188914200D100220168895C26
:1015F000A14201D1012010BD521C5B1E92B29BB2D0
:10160000002BEFD1002010BDF0B516460F468446E2
:101610000024FFF7F3FE0546C08840B1697B6046B1
:10162000FFF7D9FF78B9E888A98888420BD0002055
:10163000F0BD6046FFF7B5FF3855697B884205D09D
:10164000641CA4B200E0761EB442F2DB0021641CEC
:10165000A0B23954F0BD00B5FFF7D0FEC18829B95A
:1016600001894089814201D1012000BD002000BDD7
:1016700000B5FFF7C3FEC1888088814201D10120F7
:1016800000BD002000BD00B5FFF7B8FE0021C180FD
:101690000181418100BD00B50B46FFF7AFFE4373EA
:1016A00000BD10B50C460346FFF7A8FE007B0028DE
:1016B0000BD007E019880906FCD59880641C1888AF
:1016C0000006FCD520780028F4D110BD70B5154671
:1016D0000E460446FFF792FE007B00280DD0002343
:1016E00009E020880006FCD5F05CA0802088000678
:1016F000FCD55B1C9BB2AB42F3D370BDC388828820
:1017000093420DD20389934201D1002202810389C1
:101710000268D1540189491C0181C188491CC180DA
:1017200070470000001001400044004000140140D8
:10173000000802400018024000000240000C024075
:101740000004024020000020443802401048018874
:101750008906E5D58088C1B20E48CFE7E0E70E489C
:1017600000888006DCD50C48001D0088C1B20948FD
:101770001030C3E7D4E7094800888006D0D5074871
:10178000001D0088C1B203482030B7E7C8E7000059
:1017900000100140200000200044004000140140DF
:1017A00010B500F08BF84D4B4D4942689A420A68DB
:1017B00002D342F4800201E042F400120A60406861
:1017C000FFF7D4FC474840214FF48062C1600021FC
:1017D000C0E90512C1610162416203228162C0E970
:1017E0000B124163816310BD70B514460D46064669
:1017F00000F064F8C0E900453046BDE87040CFE72E
:1018000010B500F05BF8406810BD10B500F056F858
:101810004068BDE81040FEF745BF2DE9F04116468F
:101820000F46054600F04AF804464068406810B18B
:101830000020BDE8F0812B48216806610160291D68
:10184000C0E901176068FFF791FC26496068FEF760
:10185000B1FF6068016841F001010160A88A40F0B1
:101860008000A8820120E4E770B505460C460846D2
:1018700000F0A2FB82B221462846BDE87040CCE7CA
:1018800010B5044600F01AF84068406808B101201D
:1018900010BD208840F3C010401C10BD10B500F0F2
:1018A0000DF84068BDE81040FFF77CBC10B500F0B3
:1018B00005F84068BDE81040FFF7A3BC0A4A01469E
:1018C000904200D109480A4A914201D107480830A4
:1018D000084A914201D10548103070471064024017
:1018E000303802404C02002000100140500000201F
:1018F000004400400014014000F0CAF8FFF73AFA33
:101900004FF4E13000F035F940F6B8340E4800F0FD
:10191000DBF9204600F001F8F8E70C4908B50A6841
:101920000092EFF3058242B14FF0E021002809D088
:101930000A69D203FAD5401EF8E70A68009BD21A5A
:101940008242FAD308BD0000880200201400002063
:101950007047FEE7FEE7FEE7FEE770477047704717
:10196000704710B5FFF7DAF910BD000070B55B4D98
:1019700028685B4B5B4910F00C0004D05E10042813
:1019800003D0082803D00B601BE00E6019E0534A17
:10199000121F1068C0F38054106800F03F0014B1AB
:1019A000B6FBF0F001E0B3FBF0F013681268C3F38C
:1019B00088135843C2F30142521C5200B0FBF2F0AC
:1019C00008602868474AC0F30310121D105C0A68BB
:1019D000C2400A6070BD3CB4002240480092083802
:1019E0000192016841F4803101604FF4A043016825
:1019F00001F4003101910099491C0091019911B93C
:101A000000999942F3D10168890302D5012101911E
:101A100000E00192314938310A6842F080520A6090
:101A200031490A6842F440420A602C490A680A6057
:101A30000A680A600A6842F480520A60019D0A1F1F
:101A40002A4C40F20273012D18D0294D156002680E
:101A500042F08072026002689201FCD5236008683F
:101A600020F003000860086840F002000860086881
:101A7000C0F381000228FAD13CBC77E71D4D156008
:101A8000026842F08072026002689201FCD5E5E7CC
:101A9000194810B5016841F4700101600F48083819
:101AA000016841F0010101600C4A002111600268E7
:101AB000124B1A400260031D114A1A60026822F498
:101AC000802202600548001D0160FFF784FF0A497B
:101AD0004FF000608039086010BD000008380240F7
:101AE0000024F4006800002000700040003C024028
:101AF000086401080864410888ED00E0FFFFF6FE75
:101B0000103000240120AE4908707047F0B5B3B022
:101B10000E4607461546C821684600F042FAA84C12
:101B2000002020706068FFF7A5F90422A5A13846BF
:101B300000F049FA10B1384600F02CF9C821684687
:101B400000F038F92A463146684600F03CFA10B1F8
:101B500020780028F2D09D48FFF795FD6068FFF7D8
:101B600086F96068FFF789F9207833B080F00100CA
:101B7000F0BD38B50446002002460090944B012188
:101B800041F28830FFF726F98D4922468F4C486094
:101B900001212046FFF7AFFC2046FFF701FE04229B
:101BA0008CA18EA0FFF7B2FF0028F8D0042289A1F3
:101BB0008CA0FFF7ABFF0028F8D0BDE838408CA020
:101BC00000F0E8B830B5B3B00446C821684600F06C
:101BD000E8F97B4A8AA10832684600F029FA042213
:101BE0007CA16846FFF792FF322000F0BDF8C821C3
:101BF000684600F0D6F98AA000F0CCF8322000F058
:101C0000B3F88BA000F0C6F8C821684600F0C9F907
:101C10006B4A90A10832684600F00AFA684600F064
:101C2000B9F890A000F0B6F8C821684600F0B9F9FC
:101C3000204600F0C1F90546322000F095F82A460A
:101C40008FA1684600F0F4F9684600F0A3F892A06E
:101C500000F0A0F8C821684600F0A3F9584A92A104
:101C60000832684600F0E4F9684600F093F895A061
:101C700000F090F89C4800F08DF89C4800F08AF83D
:101C8000C821684600F08DF94D4A99A1083268468E
:101C900000F0CEF9684600F07DF89CA000F07AF8DC
:101CA000A34800F077F8C821684600F07AF91A23B3
:101CB0002246A0A1684600F0BBF912229FA1684607
:101CC000FFF724FF33B030BD70B59AB06421A0484F
:101CD00000F067F96421684600F063F90F229DA1C6
:101CE0009CA0FFF713FF364D002028706868FFF7AF
:101CF000C1F86E46684600F05FF9C0F1640084B236
:101D0000684600F059F93044214600F053F868461F
:101D100000F052F9304404222EA1001F00F053F9C4
:101D200010B128780028E5D06868FFF7A0F8686847
:101D3000FFF7A3F82548FFF7A6FC287878B9844C6C
:101D400088A000682060684600F036F9A0F108021B
:101D5000B11C201D00F00CF92046FFF733FF24A032
:101D600000F018F81AB070BD804908B50A680092F2
:101D7000EFF3058242B14FF0E021002809D00A6953
:101D8000D203FAD5401EF8E70A68009BD21A8242B5
:101D9000FAD308BD10B5044600F00EF921460B4CED
:101DA00082B22046FFF739FD2046FFF769FD002883
:101DB000FAD110BD0A4601460448FFF725BC0000D1
:101DC0007C0000204E554C4C0000000000100140EB
:101DD000051B00084F4B0D0A0000000041540D0A7E
:101DE0000000000041542B4750533D310D0A0000C4
:101DF00041542B434950434C4F53450D0A000000BA
:101E000041542B43495053544152543D2254435062
:101E1000222C222573222C333030300D0A00000092
:101E200041542B43495053454E440D0A00000000D5
:101E3000504F5354202F6170695F73656E645F6CFF
:101E40006F636174696F6E20485454502F312E3186
:101E50000D0A0000486F73743A2025733A3330300E
:101E6000300D0A00436F6E6E656374696F6E3A20C1
:101E70006B6565702D616C6976650D0A0000000068
:101E8000436F6E74656E742D4C656E6774683A208E
:101E900025640D0A000000004163636570743A20F8
:101EA0002A2F2A0D0A0000004F726967696E3A20D6
:101EB000687474703A2F2F25733A333030300D0A1E
:101EC00000000000582D5265717565737465642DAE
:101ED000576974683A20584D4C4874747052657153
:101EE000756573740D0A00005C230008E023000888
:101EF000526566657265723A20687474703A2F2F65
:101F000025733A333030302F0D0A0000416363658A
:101F100070742D456E636F64696E673A20677A69E5
:101F2000702C206465666C6174650D0A0000000009
:101F30000C230008257325630000000053656E64C0
:101F4000207375636365737366756C6C792E00001E
:101F5000EC02002041542B4C4F434154494F4E3D1D
:101F6000320D0A004750533D0000000014000020CD
:101F700040EA01039B0703D009E008C9121F08C00B
:101F8000042AFAD203E011F8013B00F8013B521E8B
:101F9000F9D27047D2B201E000F8012B491EFBD202
:101FA00070470022F6E710B513460A460446194664
:101FB000FFF7F0FF204610BD421C10F8011B00295E
:101FC000FBD1801A704730B504460020034600E07C
:101FD0005B1C934203D2E05CCD5C401BF8D030BD6B
:101FE00030B50B46014600202022012409E021FAE9
:101FF00002F59D4205D303FA02F5491B04FA02F5E6
:102000002844151EA2F10102F1DC30BD064C074D3B
:1020100006E0E06840F0010394E8070098471034B8
:10202000AC42F6D3FEF7BCF8242400084424000890
:102030000FB4084B10B504A902AA039800F01CF8CD
:10204000044602A9002000F0F3F8204610BC5DF819
:1020500014FB00003122000802E008C8121F08C16A
:10206000002AFAD170477047002001E001C1121F19
:10207000002AFBD1704700002DE9FF4F8BB09A4634
:102080000F460546002606E025280BD052460D993E
:1020900090476D1C761C28780028F5D10FB030468B
:1020A000BDE8F08F0024A0460122604900E004430F
:1020B00015F8013F203B02FA03F00842F7D12878D7
:1020C0002E2817D115F8010F44F004042A280ED049
:1020D0006FF02F022878A0F1300109290AD808EB07
:1020E000880102EB410100EB01086D1CF2E757F893
:1020F000048B6D1C287869283ED006DC0028CDD0E2
:1021000063280BD0642804D136E0732810D07528DA
:102110004BD052460D999047761C85E017F8040B7A
:102120008DF8000000208DF80100E946012003E051
:1021300057F8049B4FF0FF3061074FF0000401D4C3
:102140000AE0641C44450DDA8442FADB19F80410F5
:102150000029F6D106E0641C8442FCDB19F8041067
:102160000029F8D1264404E019F8010B52460D99D4
:102170009047641EF8D257E001CF4FF00A0B0028B9
:1021800002DA40422D2102E0210504D52B218DF8F1
:102190002410012103E0E10705D02021F7E70DF12C
:1021A000200908910CE00021F9E701CF4FF00A0B5C
:1021B000F9E75946FFF714FF01F1300209F8012D44
:1021C0000028F6D1ADEB090000F1200B600701D427
:1021D0004FF00108D84502DDA8EB0B0000E000201D
:1021E0008046002406E009A85246005D0D999047FC
:1021F000641C761C08988442F5DB04E030205246CB
:102200000D999047761CB8F10001A8F10108F5DCA2
:1022100005E019F8010B52460D999047761CBBF169
:102220000001ABF1010BF4DC6D1C34E7092801005F
:102230000A68531C0B6010707047000010B500282E
:1022400021D0114B0022001F196803E0814203D8FE
:102250000A4649680029F9D152B11368841A9C4290
:1022600004D1006818441060104602E0506000E09D
:10227000186039B102680B1A934203D10B681A44F3
:1022800002604968416010BD94000020F0B50B3039
:10229000154D20F007010024144A0FE003688B421B
:1022A0000BD38B4205D95E1A43184768C3E9006710
:1022B00000E04368136002C004E0021D10680028BB
:1022C000ECD12046002802D1286808B10020F0BDDA
:1022D000064A07481060074A121A22F00702C0E9AE
:1022E000002401202860D7E79800002094000020F7
:1022F0005403002050050020000610160B0C0D0E94
:102300000F10112F38393A3B3C4445464163636511
:1023100070742D4C616E67756167653A2076692D22
:10232000564E2C76693B713D302E392C66722D4607
:10233000523B713D302E382C66723B713D302E374A
:102340002C656E2D55533B713D302E362C656E3B02
:10235000713D302E350D0A0D0A000000557365726F
:102360002D4167656E743A204D6F7A696C6C612FF0
:10237000352E30202857696E646F7773204E5420B5
:10238000362E313B2057696E36343B20783634295F
:10239000204170706C655765624B69742F35333717
:1023A0002E333620284B48544D4C2C206C696B65DD
:1023B000204765636B6F29204368726F6D652F3707
:1023C000302E302E333533382E3130322053616683
:1023D0006172692F3533372E33360D0A0000000045
:1023E000436F6E74656E742D547970653A20617018
:1023F000706C69636174696F6E2F782D7777772DB4
:10240000666F726D2D75726C656E636F6465643B8B
:1024100020636861727365743D5554462D380D0A0A
:102420000000000044240008000000209C00000080
:1024300058200008E02400089C000020B408000098
:1024400068200008000000000102030401020304E8
:10245000060708090000000000000000000000005E
:1024600000000000CA000020800000000000000002
:10247000000A00004A010020800000000000000067
:10248000000A0000CA0100208000000000000000D7
:10249000000A000000000008B864024000000008C4
:1024A000A06002400000000AA064024000E1F505BF
:1024B00000000000000000000102030406070809F4
:1024C00000000000000000003132332E32302E3286
:1024D00033302E32303200000000000000000000D7
:040000050800019955
:00000001FF
