:020000040800F2
:1000000038090020AD010008C53F0008C73F0008BF
:10001000C93F0008CB3F0008CD3F000800000000AA
:10002000000000000000000000000000CF3F0008BA
:10003000D13F000800000000D33F0008D73F000870
:10004000C7010008C7010008C7010008C701000870
:10005000C7010008C7010008C7010008C701000860
:10006000C7010008C7010008C70100084F230008A6
:10007000552300085B23000861230008672300085C
:100080006D23000873230008C7010008000000006A
:10009000000000000000000000000000C701000890
:1000A000C7010008C7010008C7010008C701000810
:1000B000C7010008C7010008C7010008C701000800
:1000C000C7010008C7010008C7010008C7010008F0
:1000D000C7010008DD270008EF2700080000000026
:1000E000C7010008C7010008C701000800000000A0
:1000F000000000000000000000000000792300085C
:1001000000000000C7010008C7010008C70100087F
:1001100000000000000000000000000000000000DF
:100120007F23000883230008892300088F23000809
:1001300095230008000000000000000000000000FF
:10014000000000000000000000000000C7010008DF
:100150009B230008A1230008A72300080728000804
:10016000C7010008C70100080000000000000000EF
:10017000000000000000000000000000000000007F
:1001800000000000C701000800000000000000009F
:10019000C7010008C7010008DFF80CD005F048F9D6
:1001A00000480047413E00083809002006488047C3
:1001B00006480047FEE7FEE7FEE7FEE7FEE7FEE74C
:1001C000FEE7FEE7FEE7FEE70541000899010008AB
:1001D0002849084328490860704730B50F23C27882
:1001E00001780125FAB1244A126801F1E02102F4F4
:1001F000E062C2F5E062C2F30722C2F10404D34018
:100200004278A24084781C401443220181F80024E3
:10021000007800F01F018D404009800000F1E020CF
:10022000C0F8005130BD01F01F0085404809800032
:1002300000F1E020C0F8805130BD104A1140014368
:100240000D48001F016070470B4A121D00291168FC
:1002500001D0014300E08143116070474FF0E0217D
:100260000428086903D020F004000861704740F0BA
:100270000400FAE70000FA050CED00E080FFFF1F24
:10028000FA48016841F001010160F84A0021083292
:1002900011600268F64B1A400260031DF54A1A60AD
:1002A000F24BF54A84331A60026822F4802202601D
:1002B000EE480C300160ED488C3001607047EB492E
:1002C0000022891C0A7008707047024600205109FC
:1002D00001290CD002290CD0E4497431096802F0DC
:1002E0001F02012393400B4200D001207047DF49D9
:1002F000F4E7DE497031F1E718B500204FF4A0446F
:1003000000903120FFF7E1FF0099491C0091A142C4
:1003100001D00028F5D03120FFF7D7FF002800D00A
:10032000012018BDD14A116821F0F80141EAC0004E
:1003300010607047D14908607047CC490022703185
:100340000A700A70012802D0042801D10520087023
:100350007047CB490860704741EA82115A0810B5CE
:10036000C84B029C03EB02421143014341EA046083
:10037000BE49091D086010BDC0490866704780016C
:1003800040EA0170B9491043843108607047BB49A5
:1003900088667047800140EA0160B44940EA027013
:1003A000883108607047B54908677047B349C86429
:1003B0007047AE4B08331A68084322F0EC621043D2
:1003C00018607047A94B08331A68084322F0784236
:1003D000104318607047A54A0832116821F00301E4
:1003E000014311607047A1480830006800F00C001C
:1003F00070479E4A0832116821F0F00101431160F4
:1004000070479A4A0832116821F4E05101431160A3
:100410007047964A0832116821F4604141EAC000F1
:100420001060704770B5914B08331968964C11F005
:100430000C0104D06610042903D0082903D00460FD
:100440001BE0066019E0894A121D1168C1F380554E
:10045000116801F03F0115B1B6FBF1F101E0B4FB09
:10046000F1F114681268C4F388146143C2F30142C5
:10047000521C5200B1FBF2F1016019680F2202EA2E
:100480001111824A545C0168E14041601C680725F3
:1004900005EA9424145D21FA04F484601B6805EADB
:1004A0005333D25CD140C16070BDC0F30121032938
:1004B00008D16E4B08331968754A21F4F8110240CF
:1004C0000A431A60694970310A68C0F30B0002439D
:1004D0000A6070476A494439086070476849403982
:1004E000086070476549C1F85C0170475F4A8C320B
:1004F0001168401E21F01F010143116070475B4AE3
:100500008C3211686FF0FF0321F4F85103EB0020E7
:10051000084310607047554A8C32116821F440310D
:100520000143116070475B49C1F8E00170474F4AD1
:1005300030320029116801D0014300E0814311608D
:1005400070474A4A34320029116801D0014300E063
:10055000814311607047454A40320029116801D03B
:10056000014300E0814311607047404A4432002952
:10057000116801D0014300E08143116070473B4A9C
:1005800010320029116801D0014300E0814311605D
:100590007047364A14320029116801D0014300E047
:1005A000814311607047314A20320029116801D01F
:1005B000014300E08143116070472C4A2432002936
:1005C000116801D0014300E0814311607047274A60
:1005D00050320029116801D0014300E081431160CD
:1005E0007047224A54320029116801D0014300E0CB
:1005F0008143116070471D4A60320029116801D0A3
:10060000014300E0814311607047184A64320029B9
:10061000116801D0014300E0814311607047134924
:1006200070310128086803D020F008000860704786
:1006300040F00800FAE70D4A0D320029117801D088
:10064000014300E08143117070470848743001682D
:1006500041F08071016070470146044A00200C326D
:1006600012680A4200D001207047000000380240A2
:10067000FFFFF6EA1030002400300020000047425F
:10068000800E47420000FFFF0024F400000000201D
:10069000FFFCFF0F0010474201490870E4E700002B
:1006A0000E3802402DE9F043016821F0010101609C
:1006B0000021016041608160C160016121214161CF
:1006C000B849B84A3D251039904202D18D60BDE845
:1006D000F083B44A4FF474661832904201D18E60B0
:1006E000F5E7B04A4FF474173032904201D18F6071
:1006F000EDE7AC4A4FF0746C4832904202D1C1F839
:1007000008C0E4E7A74BA84A6033984201D1CA6009
:10071000DDE7A44CA54B7834A04201D1CB60D6E7ED
:10072000DFF88082A24C08F19008404501D1CC60EE
:10073000CDE7DFF870824FF03D5908F1A808404539
:1007400002D1C1F80C90C2E79A49DFF868820839F3
:10075000404501D10D60BAE7964D1835A84201D148
:100760000E60B4E7934D3035A84201D10F60AEE77B
:10077000904D4835A84202D1C1F800C0A7E78D4D81
:100780008C496035091FA84201D10A609FE7894A58
:100790007832904201D10B6099E7864A90329042BC
:1007A00001D10C6093E7834AA83290428FD1C1F8FF
:1007B00000908CE730B503687F4ACC6813400A6824
:1007C0002243D1E905452C432243CC6922430C6ADC
:1007D00022434C6A22438C6A22434C6B22438C6B2B
:1007E00022431A430260426922F00703D1E90B2435
:1007F00022431A4342610A6942604A6882608968FA
:10080000C16030BD0021016041608160C160016153
:1008100041618161C161016241628162C1620163C2
:100820004163816370470029016802D041F00101F2
:1008300001E021F00101016070470029016802D048
:1008400041F4004101E021F40041016070470029BA
:10085000016802D041F0200101E021F02001016097
:10086000704741607047406880B27047002A026854
:1008700002D042F4002201E022F400220260016171
:1008800070470029016802D041F4802101E021F481
:100890008021016070470AB101617047C1607047F3
:1008A000014600200968090300D501207047014670
:1008B00000200968C90700D001207047406900F096
:1008C0003800704702463B4B00209A4202D2354A1C
:1008D000103A01E0374A103A8B0001D5526800E027
:1008E0001268364B1A400A4200D001207047314A44
:1008F000904202D22B48103801E02E4810382F4A7F
:100900008B0001EA020101D5C16070478160704728
:100910000B0607D5436912B143F0800301E023F0D1
:1009200080034361802908D0002A026801F01E017B
:1009300001D00A4300E08A430260704730B51D4A87
:100940000024904202D2174A103A01E0194A103AA4
:100950001B4B194205D01E2303EAD12503682B4007
:1009600002E0406900F08003880001D5506800E093
:100970001068124A1040084201D003B101242046F9
:1009800030BD0C4A904202D20648103801E00948B6
:1009900010380A4A8B0001EA020101D5C160704794
:1009A00081607047106002403D000020400F002031
:1009B00000003D20106402403F801CF07D0F7D0F41
:1009C0003C0F3C0FCD4910B5884206D101211020C3
:1009D000FFF7F3FD0021102020E0C949884202D131
:1009E00001214C0429E0C749884202D101218C042D
:1009F00023E0C549884202D10121CC041DE0C3494E
:100A0000884202D101210C0517E0C149884209D171
:100A100001212020FFF7D1FD00212020BDE810405A
:100A2000FFF7CBBDBB49884202D101218C0704E00E
:100A3000B94988420AD1012144052046FFF7B3FD98
:100A40002046BDE810400021FFF7ADBD10BD7FB5C9
:100A50000446008A0D46C98820F440500143218293
:100A6000A08941F20C618843A9882A8911436A89C7
:100A700002431143A181A08A20F44071A889084350
:100A8000A0826846FFF7CEFC9C48844202D0A04872
:100A9000844201D1039800E00298A189090400EB87
:100AA000C00101EB0010296801D5490000E0890070
:100AB000B0FBF1F06422B0FBF2F109010B096FF019
:100AC00018056B4300EB8300A3891D044FF032032C
:100AD00006D503EBC000B0FBF2F000F0070005E024
:100AE00003EB0010B0FBF2F000F00F000843208190
:100AF0007FBD4FF41651016000218180C1800181CA
:100B00000C2242818181704710B5028A4C8822F400
:100B100070630A8822438C88C9880C4322431A4395
:100B2000028210BD0021018041808180C180704718
:100B30000029818902D041F4005101E021F40051E3
:100B400081817047028B02F47F420283028B0A4349
:100B5000028370470029818902D041F4004101E0FD
:100B6000C1F30E01818170470029818A02D041F4CE
:100B7000006101E021F4006181827047C1F3080146
:100B8000818070478088C0F308007047028A22F095
:100B90000F020282028A0A43028270470029818979
:100BA00002D041F0020101E021F002018181704791
:100BB000828922F40062828182890A43828170479D
:100BC000028A22F020020282028A0A4302827047CD
:100BD0000029018A02D041F4804101E021F48041E2
:100BE00001827047818941F00101818170470029AC
:100BF000818A02D041F0080101E021F008018182E0
:100C00007047028BD2B20283028B42EA0121018338
:100C100070470029818A02D041F0200101E021F0D3
:100C20002001818270470029818A02D041F01001A1
:100C300001E021F0100181827047828A22F00402D3
:100C40008282828A0A43828270470029818A02D086
:100C500041F0020101E021F0020181827047002A87
:100C6000828A01D00A4300E08A438282704710B52D
:100C7000C1F3421301F01F040121A140012B07D051
:100C8000022B07D01430002A026805D00A4304E082
:100C90000C30F8E71030F6E78A43026010BD0246D8
:100CA000002012880A4200D001207047C943018009
:100CB000704770B501F01F0501260024C1F34213EF
:100CC00006FA05F2012B0FD0022B0FD0838A4FEAD0
:100CD00011210088134206FA01F600EA060001D04D
:100CE00000B10124204670BD8389F0E7038AEEE756
:100CF0000A0A01219140C943018070470010014058
:100D00000044004000480040004C004000500040BB
:100D10000014014000780040007C004010B5012123
:100D20000C022046FFF749FC2046BDE81040002198
:100D3000FFF743BC30B54268C84B0C791A400B68CA
:100D400042EA0422134343608268C54B4D791A403E
:100D5000D1E9034323438C6844EA45042343134306
:100D60008360C26A097D22F47002491EC9B242EA58
:100D70000151C16230BD002101600171417181608A
:100D8000C1600161012101757047B64B10B5D3F800
:100D90000423B5490A40D0E900142143D0E90240B8
:100DA000044321431143C3F8041310BD0021016023
:100DB00041608160C16070470029816802D041F0C4
:100DC000010101E021F00101816070474268A74BF9
:100DD0001A400A434260704741628262704742682B
:100DE00022F01F020A43426070479E490028D1F852
:100DF000040302D040F4000001E020F40000C1F838
:100E00000403704797490028D1F8040302D040F446
:100E1000800001E020F48000C1F80403704770B541
:100E2000072609290AD9C568A1F10A0404EB44047C
:100E3000A640B543A3401D43C56007E0056901EB2B
:100E40004104A640B543A3401D4305611F23072A63
:100E500009D2446B521E02EB820293409C439140A4
:100E60000C43446370BD0D2A09D2046BD21F02EB00
:100E7000820293409C4391400C43046370BDC46A5A
:100E80000D3A02EB820293409C4391400C43C462B2
:100E900070BD816841F0804181607047014600204B
:100EA0008968490000D5012070470029816802D077
:100EB00041F4806101E021F4806181607047002984
:100EC000816802D041F0020101E021F0020181605D
:100ED00070474268491E22F4604242EA4131416053
:100EE00070470029416802D041F4006101E021F41B
:100EF000006141607047C06C80B270475948D0F8BB
:100F0000080370470029816802D041F4807101E034
:100F100021F48071816070470029816802D041F41A
:100F2000007101E021F40071816070474D49002893
:100F3000D1F8040302D040F4005001E020F4005046
:100F4000C1F80403704770B5072609290AD9C56896
:100F5000A1F10A0404EB4404A640B543A3401D4399
:100F6000C56007E0056901EB4104A640B543A34015
:100F70001D430561836BC3F30154121B921C02EBEA
:100F800082021F249440A34391400B43836370BDAE
:100F9000826B491E22F4401242EA0151816370477C
:100FA00008B508440090026008BD826822F47022EF
:100FB0000A4382607047826822F440120A438260CA
:100FC0007047816841F480018160704701460020CC
:100FD0008968490200D5012070470029416802D084
:100FE00041F4806101E021F4806141607047002993
:100FF000416802D041F4805101E021F48051416008
:10100000704708B5084428300090006880B208BDD9
:1010100001238B4041680AB1194300E099434160C4
:1010200070470246002012680A4200D00120704733
:10103000C9430160704730B50246002053680C0A6E
:1010400001258D4011682B40214202D0002B00D099
:10105000012030BD6FEA112101607047FFFEFFFCE7
:10106000FDF7FFC000200140E030FCFFFFFD3FFF27
:10107000FE4910B5884206D101210846FFF79DFAC6
:10108000002101205BE0B0F1804F09D0F84988428F
:101090000DD101210220FFF786FA0021022070E025
:1010A00001210846FFF77FFA0021012069E0F1499C
:1010B000884206D101210420FFF775FA002104209F
:1010C0005FE0ED49884206D101210820FFF76BFA65
:1010D0000021082055E0E949884206D1012110206D
:1010E000FFF761FA002110204BE0E549884206D164
:1010F00001212020FFF757FA0021202041E0E1499B
:10110000884206D101210220FFF757FA0021022070
:1011100015E0DD49884202D101210C040AE0DB49D7
:10112000884202D101214C0404E0D94988420AD105
:1011300001218C042046FFF740FA00212046BDE83B
:101140001040FFF73ABAD349884206D10121402026
:10115000FFF729FA0021402013E0CF49884206D149
:1011600001218020FFF71FFA0021802009E0CB49F0
:1011700088420AD1841501212046FFF714FA002184
:101180002046BDE81040FFF70EBA10BD30B502880A
:10119000B64CBC4DA0420DD0A8420BD0B0F1804F50
:1011A00008D0B34B984205D0B24B984202D0B24B14
:1011B000984203D122F070034A881A43AF4B9842F9
:1011C00006D0AF4B984203D022F440730A891A43E9
:1011D00002804A68C2620A880285A04201D0A84201
:1011E00001D1897A01860121818230BD4FF0FF3122
:1011F0004160002101800181418081727047018539
:1012000082827047028822F070020A43028070478F
:1012100041627047C1627047406A7047008D7047F5
:101220000029018802D041F0020101E021F0020111
:10123000018070470029018802D041F0040101E0DB
:1012400021F00401018070470029018802D041F09B
:10125000800101E021F0800101807047028822F0C6
:101260000802028002880A4302807047028822F442
:101270004072028002880A43028070470029018878
:1012800002D041F0010101E021F00101018070472D
:1012900030B5028C22F001020284028C8388048B18
:1012A00022F0020224F073050C882C438D8915432B
:1012B0004A882A436D4DA84202D0724DA8420DD1F2
:1012C00022F00805CA8923F440732A4322F004055A
:1012D0008A882A430D8A1D434B8A2B4383800483CB
:1012E00089684163028430BD70B5028C22F010021F
:1012F0000284028C8388048B0D8824F4E6464FF622
:10130000FF7404EA052535438E8922F0200204EAA1
:10131000061616434A8804EA02123243534EB0427C
:1013200002D0584EB04215D122F08006CA8923F46B
:10133000406304EA0212324322F040068A8804EA3B
:10134000021232430E8A04EA86061E434B8A04EADE
:10135000830333438380058389688163028470BD7E
:1013600070B5028C22F480720284028C8388848B94
:101370000D8824F0730425438E894FF6FF7422F400
:10138000007204EA062616434A8804EA022232431F
:10139000364EB04202D03B4EB04215D122F4006628
:1013A000CA8923F4405304EA0222324322F48066BD
:1013B0008A8804EA022232430E8A04EA06161E4391
:1013C0004B8A04EA03133343838085838968C163AE
:1013D000028470BD70B5028C22F480520284058CA8
:1013E0008288838B0C8823F4E6464FF6FF7303EA6A
:1013F0000424344325F400568D8903EA053535432A
:101400004E8803EA06362E43184DA84202D01D4DE1
:10141000A84205D122F480450A8A03EA82122A43AF
:101420008280848389680164068470BD0021018004
:101430004180818081608181C181018241827047C8
:1014400030B50124058C00F118038C40A5430584B8
:1014500031B308292CD0091FC1F34E00184401688C
:1014600048F6FF731940016001681AE0000001406E
:101470000004004000080040000C00400010004044
:1014800000140040000401400040014000440140BD
:101490000048014000180040001C004000200040AF
:1014A00006E04FF6FF7303EA02221143016030BDEC
:1014B00003EB510001684FF68F731940016001681A
:1014C000F3E74163704781637047C163704701640C
:1014D0007047028B22F070020A4302837047028B2E
:1014E0004FF6FF7322F4E04203EA01211143018326
:1014F0007047828B22F070020A4382837047828B8E
:101500004FF6FF7322F4E04203EA01211143818385
:101510007047028B22F008020A4302837047028B55
:101520004FF6FF7322F4006203EA012111430183A5
:101530007047828B22F008020A4382837047828BB5
:101540004FF6FF7322F4006203EA01211143818305
:101550007047028B22F004020A4302837047028B19
:101560004FF6FF7322F4806203EA012111430183E5
:101570007047828B22F004020A4382837047828B79
:101580004FF6FF7322F4806203EA01211143818345
:101590007047028B22F080020A4302837047028B5D
:1015A0004FF6FF73C2F30E0203EA012111430183D8
:1015B0007047828B22F080020A4382837047828BBD
:1015C0004FF6FF73C2F30E0203EA01211143818338
:1015D0007047028C22F002020A4302847047028C98
:1015E00022F008020A4302847047028C4FF6FF7310
:1015F00022F0200203EA0111114301847047028C9A
:101600004FF6FF7322F0800203EA011111430184B7
:101610007047028C4FF6FF7322F4007203EA012137
:10162000114301847047028C4FF6FF7322F400626D
:1016300003EA0121114301847047028C4FF6FF73C6
:1016400022F4005203EA013111430184704710B5BE
:101650000123048C8B409C430484038C8A401343F5
:10166000038410BD10B50423048C8B409C43048478
:10167000038C8A401343038410BD828B22F44062A2
:101680008283828B4FF6FF7303EA01210A43828330
:101690007047828B22F00C028283828B0A43828302
:1016A0007047028B22F440620283028B4FF6FF7375
:1016B00003EA01210A4302837047F0B5048C24F049
:1016C00010040484078B068C4FF6FF7404EA01159E
:1016D00027F4734704EA0331394304EA02220A4338
:1016E00026F0A001294341F0100102830184F0BDDE
:1016F000028B22F00C020283028B0A4302837047A2
:101700002DE9F0410C460E884988A28823890546B8
:101710000EB3042E26D0082E2E8C4FF6FF7028D044
:1017200026F480562E84AF8B2E8C00EA022200EA2B
:10173000013127F473473A4300EA0330104326F49B
:1017400020420A4342F48051A8832984E188284634
:10175000BDE8F04191E700F062F9E1882846BDE874
:10176000F041C5E7FFF7A9FFE1882846BDE8F04151
:1017700097E726F480762E84AF8B2E8C00EA012129
:1017800000EA0310104327F0F307384326F42062E1
:101790000A4342F48071A8832984E1882846BDE881
:1017A000F04176E700210180418001228280C180E2
:1017B000018170472DE9F0410C4600264988074613
:1017C000012501B90226A288012A00D1022520881C
:1017D00023890028384610D0FFF76FFFE18838468C
:1017E000FFF75FFF23892A463146384600F017F994
:1017F000E1883846BDE8F0417AE700F010F9E18869
:101800003846FFF775FF23892A4631463846FFF7E9
:1018100054FFE1883846BDE8F04142E7406B70472D
:10182000806B7047C06B7047006C704710B50A88BA
:101830004B88CC881A438B8823431A430B891A435D
:101840004B8989891A430A43A0F8442010BD00211E
:10185000018041808180C180018141818181704707
:10186000002930F8441F02D041F4004101E0C1F3E7
:101870000E01018070470029818802D041F00401E7
:1018800001E021F00401818070470029818802D0A5
:1018900041F0010101E021F0010181807047002A3F
:1018A000828901D00A4300E08A43828170478182A5
:1018B000704702460020128A0A4200D00120704779
:1018C000C9430182704702460020138A92890B4265
:1018D00002EA010202D0002A00D001207047C94369
:1018E000018270471143A0F848107047002A82898E
:1018F00001D00A4300E08A43828170470029818831
:1019000002D041F0080101E021F008018180704718
:10191000018921F0070101817047028922F07002DC
:101920000A430281704700B50346FFF7F6FF1889A6
:1019300040F00700188100BD70B516460D466029BD
:1019400004464FF0010231460AD000F068F82946FB
:101950002046FFF7E2FF208940F00700208170BD9C
:10196000FFF7ABFEF3E730B504894FF6FF7505EAE4
:1019700003231343E4B20B432343038130BD10B56B
:101980000446FFF7F0FF208940F07700208110BD6A
:1019900010B50446FFF7E7FF208940F4804020811E
:1019A00010BD828822F07002828082880A43828081
:1019B0007047028922F00702028102890A430281EC
:1019C0007047028922F08002028102890A43028163
:1019D000704770B50589048B068C25F007050D430B
:1019E0004FF6FC410C4040F201110C434FF6FF71E1
:1019F00001EA031126F022061143314305810483D5
:101A0000018470BD0029818802D041F0800101E08D
:101A100021F0800181807047A0F85010704770B5A8
:101A2000048C24F001040484058B048C4FF6FF76AB
:101A300006EA0313134325F0F3052B4324F00A02AF
:101A40000A4342F001010383018470BDD24910B5FD
:101A5000884202D101214C050AE0D049884202D1D6
:101A600001218C0504E0CE4988420AD10121CC0530
:101A70002046FEF798FD2046BDE810400021FEF705
:101A800092BD10BD7FB5044680880D4620F03F060C
:101A90006846FEF7C7FCC3490298B0FBF1F189B272
:101AA0000E43A680228822F001022280BE4B2A68C3
:101AB0009A421BD85200B0FBF2F080B2042800D248
:101AC0000420491C2184A083208840F0010020804C
:101AD00020884FF6F5310840A9886A8911430143EF
:101AE0002180A8892989084320817FBDEB88A3F53F
:101AF0003F46FF3E0BD002EBC20303EB0212B0FBEA
:101B0000F2F080B240F48040020506D007E002EB1C
:101B10004202B0FBF2F080B2F6E740F001004FF471
:101B2000967251434FF47A72B1FBF2F140F40040E7
:101B3000C7E741F288310160002181804BF6FF72D6
:101B4000C280018141814FF4804181817047002929
:101B5000018802D041F0010101E021F00101018082
:101B600070470029818C02D021F0100101E041F082
:101B7000100181847047828C01F00F0122F00F0266
:101B80001143818470470029018802D041F480719B
:101B900001E021F48071018070470029018802D0A2
:101BA00041F4007101E021F400710180704712B12D
:101BB00041F0010101E001F0FE01018270470029BE
:101BC000018802D041F4806101E021F4806101804C
:101BD0007047828901F0FE0122F0FE0211438181EB
:101BE00070470029818902D041F0010101E021F014
:101BF0000101818170470029018802D041F0400134
:101C000001E021F04001018070470029018802D0E5
:101C100041F4004101E0C1F30E0101807047002949
:101C2000018803D021F080010180704741F08001DC
:101C3000FAE7B1F5804F818B02D021F4804101E0B9
:101C400041F4804181837047B1F5006F018803D072
:101C500021F400610180704741F40061FAE7B1F5B9
:101C6000005F018803D021F400510180704741F4E6
:101C70000051FAE70029018802D041F0100101E08B
:101C800021F010010180704701827047008AC0B2C4
:101C900070470029018802D041F4805101E021F40D
:101CA000805101807047B1F5006F018803D021F4A5
:101CB00000610180704741F40061FAE70029018862
:101CC00002D041F0200101E021F0200101807047A5
:101CD000008B000A70470029818802D041F400611E
:101CE00001E021F40061818070470029818802D0E1
:101CF00041F4805101E021F480518180704708B5A2
:101D000008440090008808BD002A828801D00A4358
:101D100000E08A4382807047034600209A8A1B8B2A
:101D200042EA034222F07F42914300D101207047F2
:101D3000818A008B41EA004121F07F4070470CB559
:101D40000246002000920A0F21F07F41019202D04A
:101D5000009A143202E0009A090C183200921268BC
:101D60000A4200D001200CBDC9438182704710B5E2
:101D7000034600209A884FF4E06404EA11449B8AE9
:101D8000224021F07F410B4202D0002A00D00120E6
:101D900010BDC94381827047005400400058004084
:101DA000005C004040420F00A086010070B55A4818
:101DB0004168491C4160816811B18168491E816098
:101DC000AFF300800024554E18E006EB84056868E8
:101DD00090B1017B81B1826872B1521E82606968E4
:101DE0000AD148690969884768680168816068683C
:101DF000416809B900210173641CE4B23078A04243
:101E0000E3D870BD464801684FF47A70B1FBF0F03A
:101E1000401EB0F1807F12D24FF0E0225061414B62
:101E2000F02083F8140D00209061072010613E48D7
:101E3000B1FBF0F13848C160012101707047FEE745
:101E400035480078002805D04FF0E020016941F0C6
:101E50000201016170474FF0E020016921F00201A9
:101E6000016170472DE9F0472C4C0546DDF82090C4
:101E700020781E4617468846052802D30020BDE874
:101E8000F087182003F0B2FF0028F8D00560C0E901
:101E900001850773C0E90469217804EB810148607A
:101EA0002178491C2170EAE71C4B30B400211A78D4
:101EB00006E003EB81046468844203D0491CC9B284
:101EC0008A42F6D88A4218D003EB81004068EFF3CB
:101ED000108472B605E003EB8102491C9568C9B213
:101EE00055601A78521E8A42F5DC1978491E19701D
:101EF00004B962B630BC03F051BF30BC704700215A
:101F00000173704701210173704701688160704758
:101F1000416070470160704710000020D000002031
:101F20007C0000200FE000E0C0C62D00A34908445B
:101F3000C0F38F2070472DE9F04F9A46DDE909B8CC
:101F400089460346FFF7F2FFC5B200204FF0030EAB
:101F50000121814011EA090F28D0994E36F8154029
:101F60000C4326F81540DF6844000EFA04F6B74328
:101F70000BFA04FC47EA0C07DF601F6802FA04FC56
:101F8000B74347EA0C071F60012A01D0022A0DD18E
:101F90005F6889B28F430AFA00F189B20F435F602C
:101FA000996808FA04F4B14321439960401CC0B217
:101FB0001028CDD3BDE8F08F00B5FFF7B7FF0121A2
:101FC0008140804802681143016000BDFCB516469F
:101FD000DDE907C50C00074608D0FFF7EDFFCDE9A6
:101FE00000C5324621463846FFF7A5FFFCBD2DE966
:101FF000FC4F9946DDE90BB792460D00064622D00C
:10200000FFF7DAFF002201214FF00F0C01FA02F076
:1020100028420DD0D00806EB8003186A5407E40E5E
:102020000CFA04F820EA080007FA04F420431862C6
:10203000521C102AEAD3CDE9009B534602222946BE
:102040003046FFF778FFBDE8FC8FF0B50E46054639
:10205000FFF76CFF00225A49C4B24FF0010C03276E
:102060000CFA02F333420CD028684FEA420E07FA0A
:102070000EFE40EA0E00286031F81400984321F863
:102080001400521CD2B2102AEAD3F0BDF0B50022DF
:102090000125032605FA02F30B4205D00468570018
:1020A00006FA07F39C430460521CD2B2102AF1D303
:1020B000F0BDF0B500220127032607FA02F33C46E3
:1020C0000B4208D00568530006FA03FC25EA0C050C
:1020D0009C4025430560521CD2B2102AEDD3F0BDBE
:1020E000F0B500220125032605FA02F30B4205D0C4
:1020F0000468570006FA07F31C430460521CD2B26E
:10210000102AF1D3F0BDF0B50022012603240227E6
:1021100006FA02F30B4209D00568530004FA03FCE7
:1021200025EA0C0507FA03F31D430560521CD2B2E1
:10213000102AEDD3F0BDF0B500230127032507FADF
:1021400003F40C4209D0C6685C0005FA04FC26EAD8
:102150000C0602FA04F42643C6605B1CDBB2102BAB
:10216000EDD3F0BD41F48032C261C161C261C16989
:10217000C0697047002102E0491C89B2400801286B
:10218000FAD80846704700B5FFF7D0FE012181401C
:102190000C4802688A43026000BD00B5FFF7C6FE26
:1021A000074931F8100000BD00B5FFF7BFFE044934
:1021B00031F81000C04380B200BD00000000FEBF37
:1021C000E800002030380240784A10B518239042C9
:1021D00002D2774A774C03E0744A744C083A64425E
:1021E0002044B0FBF3F0042801D3001F121D724BF2
:1021F00001F03D01185C8140116010BD3D21E3E715
:102200006A491822884203D269496A4B083903E0B7
:102210006649664B10395B421844B0FBF2F0042863
:1022200001D3001F091D0968634A105CC14001F019
:102230003D00704738B504463D21FFF7C5FF5E4AB3
:102240005A4B1820121D01219C4207D2594B8DF880
:1022500001102344B3FBF0F0125C08E0534B8DF8FF
:1022600001105B422344B3FBF0F00244127A8DF874
:1022700000208DF803108DF802006846FDF7ADFFD1
:10228000206840F01E002060606940F080006061BE
:1022900038BD10B504463D21FFF796FF4648434A36
:1022A0001821001D944201D2424A01E03F4A5242A5
:1022B0002244B2FBF1F14056012100F01F0291408F
:1022C0004009800000F1E020C0F88011206820F073
:1022D0001E002060606900F08000606110BD7047E2
:1022E000704770477047704770B505463D21FFF74E
:1022F00087FF84B23D212846FFF766FFA00605D57B
:102300002868C00602D52846FFF7E9FFE00605D594
:102310002868000702D52846FFF7E2FF200705D509
:102320002868400702D52846FFF7DBFF600705D580
:102330002868800702D52846FFF7D4FFE00705D0BC
:102340006869000602D52846FFF7CDFF70BD184822
:102350000830C9E716482030C6E715483830C3E7CB
:1023600013485030C0E712486830BDE7104880304D
:10237000BAE70F489830B7E70D48B030B4E70B48DC
:10238000B2E70A481830AFE708483030ACE70748F2
:102390004830A9E705486030A6E704487830A3E74D
:1023A00002489030A0E70148A8309DE71064024041
:1023B00008600240F09FFDBF585E0008FD4A0146DC
:1023C000904200D10020FC4A914200D10120FB4AFA
:1023D000914200D10620704770471CB508220321A6
:1023E00040B101280DD0032803D10821F348FFF79D
:1023F000F3FF1CBDCDE9001201230022C021F048EB
:1024000006E0CDE90012012300224FF48441ED489B
:10241000FFF7EDFD1CBD1CB50722032140B10128CB
:102420000DD0032803D10721E348FFF7D5FF1CBDDA
:10243000CDE90012012300220C21E34805E0CDE99B
:102440000012012300226021E048FFF7D0FD1CBDEF
:102450001CB50722032140B101280ED0032803D167
:102460000721D448FFF7B8FF1CBDCDE900120123B6
:1024700000224FF4C061D44805E0CDE900120123E9
:102480000022C021D248FFF7B2FD1CBDC94A014657
:10249000904200D1CF48C84A914201D1CD48103076
:1024A000C64A914201D1CB48203070472DE9FF4FF9
:1024B00087B09946DDE916B7DDE914A8134604464E
:1024C000FFF7E4FF0546BB48C34E0093844209D1A1
:1024D000306840F0100030600898FFF7B9FF252001
:1024E0008DF81000B44884420BD1BB48001F01682E
:1024F00041F4003101600898FFF78DFF26208DF828
:102500001000AE48844209D1306840F020003060AD
:102510000898FFF762FF47208DF810002046FEF76D
:1025200051FA01268DF8136006208DF8110020461F
:10253000FFF744FF8DF8120004A8FDF74EFEADF83A
:102540000AA0ADF806B0ADF80C90ADF80880ADF873
:1025500004700020287340F6FF700590411E05911D
:1025600001D30846FAE769462046FEF770FAA089CB
:1025700040F02000A0812E73A08940F40050A0817B
:102580000BB0BDE8F08F2DE9FF41044689480025D6
:102590000C2617468846844206D1CDE9006502958F
:1025A00000230395FFF782FF8348844208D1CDE9D9
:1025B0000065029500233A4641460395FFF776FFF2
:1025C0007E48844208D1CDE90065029500233A4651
:1025D00041460395FFF76AFFBDE8FF812DE9FF47FC
:1025E0000446744800250C261F46904689468442BE
:1025F00005D1CDE9006502950395FFF757FF6E48B9
:10260000844208D1CDE9006502953B4642464946E1
:102610000395FFF74BFF6948844208D1CDE9006577
:1026200002953B46424649460395FFF73FFFBDE80A
:10263000FF8710B50023FFF729FFC18819B9028968
:102640004489A2420DD0428983889A4201D1002256
:102650004281036892B29B56521C428109B1491EC5
:10266000C180D8B210BD10B50C46FFF70FFFC3886C
:1026700042890DE08188914200D100220168895C85
:10268000A14201D1012010BD521C5B1E92B29BB22F
:10269000002BEFD1002010BDF0B516460F46844642
:1026A0000024FFF7F3FE0546C08840B1697B604611
:1026B000FFF7D9FF78B9E888A98888420BD00020B5
:1026C000F0BD6046FFF7B5FF3855697B884205D0FD
:1026D000641CA4B200E0761EB442F2DB0021641C4C
:1026E000A0B23954F0BD00B5FFF7D0FEC18829B9BA
:1026F00001894089814201D1012000BD002000BD37
:1027000000B5FFF7C3FEC1888088814201D1012056
:1027100000BD002000BD00B5FFF7B8FE0021C1805C
:102720000181418100BD00B50B46FFF7AFFE437349
:1027300000BD10B50C460346FFF7A8FE007B00283D
:102740000BD007E019880906FCD59880641C18880E
:102750000006FCD520780028F4D110BD70B51546D0
:102760000E460446FFF792FE007B00280DD00023A2
:1027700009E020880006FCD5F05CA08020880006D7
:10278000FCD55B1C9BB2AB42F3D370BDC38882887F
:1027900093420DD20389934201D100220281038921
:1027A0000268D1540189491C0181C188491CC1803A
:1027B0007047000000100140004400400014014038
:1027C000000802400018024000000240000C0240D5
:1027D00000040240200000204438024010480188D4
:1027E0008906E5D58088C1B20E48CFE7E0E70E48FC
:1027F00000888006DCD50C48001D0088C1B209485D
:102800001030C3E7D4E7094800888006D0D50748D0
:10281000001D0088C1B203482030B7E7C8E70000B8
:10282000001001402000002000440040001401403E
:1028300010B500F08BF84D4B4D4942689A420A683A
:1028400002D342F4800201E042F400120A604068C0
:10285000FFF7D4FC474840214FF48062C16000215B
:10286000C0E90512C1610162416203228162C0E9CF
:102870000B124163816310BD70B514460D460646C8
:1028800000F064F8C0E900453046BDE87040CFE78D
:1028900010B500F05BF8406810BD10B500F056F8B8
:1028A0004068BDE81040FDF7FDBE2DE9F041164639
:1028B0000F46054600F04AF804464068406810B1EB
:1028C0000020BDE8F0812B48216806610160291DC8
:1028D000C0E901176068FFF791FC26496068FDF7C1
:1028E00069FF6068016841F001010160A88A40F059
:1028F0008000A8820120E4E770B505460C46084632
:1029000002F0C4FA82B221462846BDE87040CCE706
:1029100010B5044600F01AF84068406808B101207C
:1029200010BD208840F3C010401C10BD10B500F051
:102930000DF84068BDE81040FFF77CBC10B500F012
:1029400005F84068BDE81040FFF7A3BC0A4A0146FD
:10295000904200D109480A4A914201D10748083003
:10296000084A914201D10548103070471064024076
:10297000303802406001002000100140500000206B
:10298000004400400014014010B58AB00446002005
:1029900001218DF81410C34A8DF80500C249049036
:1029A000039002908DF80400944203D10A6842F427
:1029B00080720CE0BD4A944203D10A6842F400726E
:1029C00005E0BB4A944204D10A6842F480620A607E
:1029D0000090089006904FF4803007904FF44070BC
:1029E000099006A8FEF7D1F969462046FEF7A2F93C
:1029F000A06840F00100A0600AB010BD1CB5012322
:102A00000222CDE9002300230322FFF7DFFA1CBDD9
:102A1000A449884202D0A549884202D12021A54874
:102A200004E0A349884202D12021A348E6E7704789
:102A300010B504469B48844202D09C48844203D18E
:102A400010219C48FFF7DAFF9948844204D1BDE881
:102A5000104010219848D1E710BD08219548CDE7D6
:102A600004219448CAE702219248C7E7012191480E
:102A7000C4E710B504468B48844202D08B48844298
:102A800003D102218D48FFF7B9FF8948844204D160
:102A9000BDE8104008218848B0E710BD10B50446D5
:102AA0008048844202D08148844203D10121834876
:102AB000FFF7A4FF7E48844204D10115BDE8104011
:102AC0007D489BE710BD10B504467648844202D08D
:102AD0007648844203D180217948FFF78FFF7448FC
:102AE000844204D14115BDE81040734886E710BD0B
:102AF00010B504466B48844202D06C48844203D12E
:102B000040216F48FFF77AFF6948844204D181155C
:102B1000BDE81040684871E710BD10B50446614833
:102B2000844202D06148844203D120216448FFF7E7
:102B300065FF5F48844204D1BDE8104080215E48B3
:102B40005CE710BD10B504465648844202D0574891
:102B5000844203D110215A48FFF750FF5448844261
:102B600004D1BDE810404021534847E710BD08217B
:102B7000534843E70421524840E7022150483DE7CB
:102B800001214F483AE710B504464D48F9B10129F3
:102B90001FD002291FD003291FD0042921D00529C5
:102BA00023D0062925D0072927D0082929D009298B
:102BB0002BD040480A290AD00B290AD00C290AD068
:102BC0000D290AD00E2924D00F2926D028E0012172
:102BD00004E0022102E0042100E00821FFF70EFFDB
:102BE0001EE02046FFF7AEFF1AE02046FFF795FFF4
:102BF00016E02046FFF77CFF12E02046FFF763FF58
:102C00000EE02046FFF74AFF0AE02046FFF731FFBB
:102C100006E02046FFF70CFF02E02046FFF7F8FE33
:102C20002046BDE81040AFE670B50123054640F6EA
:102C3000FF741A46FEF7F3F8A86840F08040A860D9
:102C400002E02046641E04D328688007F9D5E86CAA
:102C500080B270BD1348D0F8041341F48001C0F86D
:102C6000041370470F48D0F8041321F48001C0F812
:102C70000413704710B50446052301221221FEF704
:102C8000CEF8A06840F08040A06020688007FCD5A6
:102C9000E06C43F29031484340F6FF71B0FBF1F035
:102CA00080B210BD002001404438024000210140A4
:102CB00000220140000802400014024000040240CB
:102CC0000000024070B504462DED028B8AB0FC482E
:102CD000B0EE408AF0EE608A0D46844202D0F94898
:102CE000844204D104200AB0BDEC028B70BD694659
:102CF00020462C6000F08EFC009802F04AF953EC5C
:102D0000182B02F07FF954D39FEDEF0B51EC180B09
:102D100053EC102B02F076F901D10220E3E7B0EE7C
:102D2000480AF0EE680A684600F0B7FC0398E8B37A
:102D300051EC180B02F03AF953EC182B9FEDE40B11
:102D4000E86051EC100B02F0B5F802F02FF92861A1
:102D5000039868600498A860204600F0F3FC04988B
:102D60000026401EADF818000398ADF82060401E04
:102D70000790ADF81A608DF8226006A92046FEF78C
:102D800005FA01212046FEF75FFAD348844202D0BB
:102D9000D248844203D101212046FEF761FD2088FC
:102DA00040F00100208085F8246000E001E0002070
:102DB00099E7012097E71CB502004FF0060001D00B
:102DC00005201CBD0923032259B10129F9D1CDE900
:102DD000002300231A464902C148FFF708F90020E2
:102DE0001CBDCDE9002300231A468021BD48F4E72D
:102DF0001CB502004FF0060001D005201CBD0923C0
:102E0000032259B10129F9D1CDE9002300231A4643
:102E10000902B348FFF7EBF800201CBDCDE9002301
:102E200000231A460221AF48F4E77CB50200AE4CFD
:102E3000AE4D4FF006004FF009064FF0030303D0EC
:102E4000012A15D005207CBD39B10129FBD1CDE97E
:102E5000003600231A46402112E0CDE90036002357
:102E60001A464FF4804113E0FFF7C1F800207CBD03
:102E700041B10129FBD1CDE9003600231A464902B0
:102E80002846F1E7CDE9003600231A464FF4004109
:102E90002046E9E71CB502004FF0060001D00520EE
:102EA0001CBD032259B10129FAD1009200230192DD
:102EB0001A4680218A48FFF79AF800201CBD00922C
:102EC000002301921A464FF400718748F3E71CB5BE
:102ED00002004FF0060001D005201CBD032259B1AD
:102EE0000129FAD10092002301921A4640217C4820
:102EF000FFF77DF800201CBD0092002301921A46C6
:102F00004FF480717848F3E77CB50200754C784D3A
:102F10004FF006004FF0030303D0012A14D0052020
:102F20007CBD39B10129FBD10093019300231A46DE
:102F3000202111E00093019300231A46042112E09E
:102F4000FFF755F800207CBD41B10129FBD100936A
:102F5000019300231A4640212846F1E7009301938C
:102F600000231A4608212046EAE77CB50200614C9E
:102F7000614D4FF006004FF0030308D0012A19D02D
:102F8000A615022A25D0032A32D005207CBD39B1EE
:102F90000129FBD10093019300231A4620212FE041
:102FA0000093019300231A46402131E0FFF71FF8F8
:102FB00000207CBD39B10129FBD10093019300238E
:102FC0001A4640211CE00093019300231A468021F9
:102FD0001EE039B10129ECD10093019300231A4678
:102FE00080210DE00093019300231A4631460FE043
:102FF00041B10129DDD10093019300231A463146E6
:103000002846D3E70093019300231A464FF400713A
:103010002046CBE77CB50200324D344E4FF006001F
:103020004FF002034FF0030407D0012A18D0022A00
:1030300025D0032A33D005207CBD39B10129FBD12D
:10304000CDE9004300231A46890220E0CDE9004380
:1030500000231A46012130E0FEF7C9FF00207CBDA5
:1030600039B10129FBD1CDE9004300231A46C90239
:103070000DE0CDE9004300231A4602211DE041B1D5
:103080000129ECD1CDE9004300231A46090330465B
:10309000E2E7CDE9004300231A4604210DE039B1EF
:1030A0000129DCD1CDE9004300231A461248D3E7B9
:1030B000CDE9004300231A4608212846CCE700004A
:1030C000001000400014004000000000000000005C
:1030D0000000000080842E410000014000040140F7
:1030E000001402400000024000040240001C0240A4
:1030F0000010024000080240002002407CB502009F
:103100004FF006004FF002034FF00304FD4DFE4E5A
:1031100007D0012A18D0022A25D0032A33D005204F
:103120007CBD39B10129FBD1CDE9004300231A460A
:10313000090330E0CDE9004300231A46402132E084
:10314000FEF755FF00207CBD39B10129FBD1CDE947
:10315000004300231A4649031DE0CDE90043002344
:103160001A4680211FE039B10129ECD1CDE9004395
:1031700000231A4689030EE0CDE9004300231A46D6
:103180004FF480710FE041B10129DCD1CDE900435A
:1031900000231A46C9033046D2E7CDE90043002395
:1031A0001A464FF400712846CAE72DE9FC41040095
:1031B000D64FD44DD64E4FF006004FF002024FF0DE
:1031C000030308D0012C21D0022C37D0032C44D08B
:1031D0000520BDE8FC8149B101290DD00229F8D1B3
:1031E000CDE9003200231A4649023EE0CDE9003223
:1031F00000231A46402119E0CDE9003200231A4687
:10320000102139E0FEF7F3FE0020E2E749B1012981
:103210000ED00229DDD1CDE9003200231A468021EB
:1032200023E0CDE9003200231A4680213846E9E741
:10323000CDE9003200231A4620211DE039B10129D1
:10324000C7D1CDE9003200231A4609020DE0CDE9CD
:10325000003200231A4601210EE041B10129B8D104
:10326000CDE9003200231A4649023046CAE7CDE9CB
:10327000003200231A4602212846C3E77CB502002B
:10328000A24D4FF006004FF001034FF0030408D0A9
:103290009C4E012A20D0022A2DD0032A3AD00520A4
:1032A0007CBD49B101290DD00229F9D1CDE90043F6
:1032B00000231A4689033CE0CDE9004300231A4667
:1032C000012136E0CDE9004300231A46202130E0F9
:1032D000FEF78DFE00207CBD39B10129FBD1CDE97F
:1032E000004300231A4608211CE0CDE900430023D7
:1032F0001A4602211DE039B10129ECD1CDE9004384
:1033000000231A4689020DE0CDE9004300231A4646
:1033100004210EE041B10129DDD1CDE900430023B4
:103320001A46C9023046D3E7CDE9004300231A46C6
:1033300008212846CCE72DE9FC418C460200734D5C
:10334000744E4FF006004FF001034FF003044FF4AA
:10335000007108D04F00012A1BD0022A2AD0032A6C
:103360003BD0052035E7BCF1000F07D0BCF1010FC1
:10337000F8D1CDE9004300231A463AE0CDE90043F5
:1033800000231A464FF480713BE0FEF730FE002028
:103390001FE7BCF1000F08D0BCF1010FE2D1CDE96D
:1033A000004300231A46394623E0CDE900430023B9
:1033B0001A4626E0BCF1000F09D0BCF1010FD1D1B3
:1033C000CDE9004300231A464FF4005111E0CDE946
:1033D000004300231A46394613E0BCF1000F0AD01F
:1033E000BCF1010FBED1CDE9004300231A464FF4D2
:1033F00080413046C9E7CDE9004300231A464FF427
:1034000000612846C1E70B4600684349884202D163
:10341000114618468FE7B0F1804F05D03F498842EA
:1034200005D111461846C0E61146184626E73C4924
:10343000884202D11146184660E63A49884202D1D4
:1034400011461846E6E53849884202D11146184629
:103450008BE53649884202D11146184654E5344975
:10346000884202D11146184631E53249884202D1DC
:10347000114618460EE53049884202D111461846D9
:10348000D3E42E49884202D111461846B0E42C49B3
:10349000884202D1114618468DE40420704730B5A9
:1034A00004464068154685B0A84202D8032005B0FE
:1034B00030BD70200222ADF80000ADF80C200120D4
:1034C00004EB81020295ADF8020055610A1E00FA74
:1034D00001F0C0B206D0012937D0022947D0032A13
:1034E00068D156E094F8241001420AD1014384F8CF
:1034F000241069462068FDF7CBFE08212068FEF7FE
:1035000008F81FE000040240000C024000000240E6
:10351000000802400010024000000140000400408A
:1035200000080040000C0040000401400040014041
:10353000004401400048014000180040001C0040C9
:10354000002000402068456334E094F824100142D4
:103550000AD1014384F8241069462068FDF7C4FEAF
:1035600008212068FDF7DBFF2068856322E094F8DE
:10357000241001420AD1014384F8241069462068CE
:10358000FDF7EEFE08212068FDF7D3FF2068C56334
:1035900010E094F8241001420AD1014384F8241069
:1035A00069462068FDF716FF08212068FDF7C7FF70
:1035B0002068056400207AE710EE102A144B9A4226
:1035C00001DD426805E0B5EEC00AF1EE10FA01D85F
:1035D000002264E74268521E00EE902A6423F8EE4F
:1035E000600A20EE800ABCEEC00A10EE102AB2FB80
:1035F000F3F2EEE730B40369934202D230BC032009
:1036000070474468641E5443B4FBF3F230BC46E791
:103610000000C8427FB504460D466846FCF702FF2D
:103620004FF6FF70A860B4F1804F02D0AC498C42D5
:1036300005D1039828604FF0FF30686028E0A94961
:103640008C420BD0A8498C4208D0A8498C4205D0A6
:10365000A7498C4202D0A7498C4201D1019915E0BB
:10366000A5498C4211D0A5498C420ED0A4498C4268
:103670000BD0A4498C4208D0A3498C4205D0A34961
:103680008C4202D0A2498C4205D10399C5E90010B1
:10369000002004B070BD0220FBE72DE9F04704468E
:1036A0002DED028BB0EE408AF0EE608A00250068B6
:1036B00001F06FFC53EC182B01F0A4FC07D225613C
:1036C000E56003206561BDEC028BBDE8F0879FEDEE
:1036D000910B51EC180B53EC102B01F093FC03D120
:1036E0002561E560656124E06068B0F5803F01D246
:1036F000401C60602561D4E901862768A946761CD4
:103700006D1CB7FBF5F001F044FC53EC182B01F0F5
:10371000D1FB01F04BFCC4E90305404501D9B5429A
:10372000EED9B54207D9C4F81090C4F80C90C4F88B
:1037300014900420C7E751EC180B01F037FC6061CE
:103740000020C0E76749754A884203D1116841F0FB
:10375000010111607149091FB0F1804F55D0664BCE
:10376000984203D10B6843F002030B60634B98420D
:1037700003D10B6843F004030B60594B984203D10B
:103780000B6843F008030B605D4B984203D10B6854
:1037900043F010030B605B4B984203D10B6843F07E
:1037A00020030B60504B984203D1136843F002038F
:1037B00013604E4B984203D1136843F48033136077
:1037C0004B4B984203D1136843F400331360494BC9
:1037D000984203D1136843F4802313604A4A90420D
:1037E00003D10A6842F040020A60484A904203D17D
:1037F0000A6842F080020A60454A904203D1086894
:1038000040F48070086000207047086840F00100B4
:10381000F8E73449414A884203D1116821F0010197
:1038200011603E49091FB0F1804F55D0324B98428C
:1038300003D10B6823F002030B60304B984203D195
:103840000B6823F004030B60254B984203D10B68EF
:1038500023F008030B602A4B984203D10B6823F036
:1038600010030B60274B984203D10B6823F0200311
:103870000B601D4B984203D1136823F002031360C1
:103880001A4B984203D1136823F480331360184B0A
:10389000984203D1136823F400331360154B984208
:1038A00003D1136823F480231360174A904203D195
:1038B0000A6822F040020A60144A904203D10A6862
:1038C00022F080020A60124A904203D1086820F474
:1038D0008070086000207047086820F00100F8E759
:1038E000000C004000000140000401400040014085
:1038F000004401400048014000040040000800402E
:10390000001000400014004000180040001C00405F
:103910000020004000000000000000004438024089
:1039200070472DE9F04F15460446DFF8E8B300264E
:10393000DFF8E4C304220123F848F94F87B04FF4BD
:1039400080494BF6FF7A5C452DD1DCF8008048F4C5
:103950000018CCF8008031B101290AD0022911D019
:10396000032916D019E0CDE9003201231A46C021FF
:1039700005E0CDE9003201231A464FF44071FEF70D
:1039800036FB0AE0CDE9003201231A464FF41071EC
:10399000F5E704215846FFF7C3FF3868A84200D96D
:1039A0003D60386866E0DFF87CB3DFF87CE35C45B7
:1039B0002ED1DCF8008048F48008CCF8008031B1CA
:1039C00001290BD0022912D0032917D01AE0CDE922
:1039D000003201231A464FF4406105E0CDE9003280
:1039E00001231A460321D148FEF701FB0AE0CDE985
:1039F000003201231A4630217046F5E7042158466B
:103A0000FFF78EFF7868A84200D97D60786831E0C2
:103A1000C748844239D1DCF8008048F40008CCF86B
:103A2000008021B1012913D003291BD01DE09B4642
:103A300090460123CDE900B81A461902BD48FEF7A9
:103A4000D6FA0123CDE900B81A465902BA4806E071
:103A5000CDE9003201231A464FF4C0717046FEF7DB
:103A6000C6FA02E00421FFF75BFFB868A84200D95C
:103A7000BD60B868ADF80C60ADF810600290ADF8AC
:103A80001490ADF81260ADF80EA0208820F001006F
:103A9000208002A92046FDF7F5FF208840F00100B4
:103AA000208007B0BDE8F08F70B50446008820F490
:103AB00080602080208840F400702080984D44F67B
:103AC00020602D1F9D4E286003E02A68521E2A6048
:103AD00008D031462046FEF71FF90028F5D0208A8D
:103AE000C0B270BD012070BD70B50446008840F4BE
:103AF000807020808A4D44F620662D1F2E6003E0E2
:103B00002868401E28602AD0A08AC007F8D01BB1C0
:103B1000208840F4806020805AB921F00100208282
:103B20002E6003E02868401E286018D0A08A800715
:103B3000F8D5012A10D141F0010020822E607F4E7D
:103B40003E3E03E02868401E286008D031462046EB
:103B5000FEF7E2F80028F5D0208B002070BD012090
:103B600070BD6F4A44F62061121F116003E01168B6
:103B7000491E11600BD0818A0906F8D5818A490750
:103B8000F5D5018841F400710180002070470120C3
:103B90007047634B44F620621B1F1A60828A12062C
:103BA00003D41A680AB1521EF7E70182704770B554
:103BB000164600230C4605461A46FFF795FF314688
:103BC0002846FFF7E6FF2846FFF7CBFF0023012238
:103BD00021462846FFF788FF2846BDE8704063E786
:103BE00070B50546008840F4806028804C4C44F64F
:103BF0002060241F514E206003E02268521E226084
:103C000008D031462846FEF787F80028F5D0288AE4
:103C1000C0B270BD012070BD2DE9F0411C461746B1
:103C20000E46804601230022069DFFF75DFF3946C0
:103C30004046FFF7AEFF01231A4631464046FFF7E4
:103C400053FF05E0404645B1FFF7CAFF04F8010BFA
:103C50006D1EADB2F6D2BDE8F081FFF725FFF5E7A6
:103C600010B5012304461A46FFF73EFF2046BDE883
:103C7000104019E770B51C461546012306461A4642
:103C8000FFF732FF04E0304634B1FFF7A9FF287098
:103C9000641EA4B2F7D270BDFFF706FFF7E770B558
:103CA0001D461646002304461A46FFF71DFF3146FF
:103CB0002046FFF76EFF29462046FFF76AFF2046A1
:103CC000BDE870404DE72DE9F0411D461746002341
:103CD00006461A46069CFFF707FF394601E015F82D
:103CE000011B3046FFF755FF641EA4B2F7D23046E1
:103CF000BDE8F04135E770B51546002304461A4685
:103D0000FFF7F2FE29462046FFF743FF2046BDE8B5
:103D1000704026E700540040403802400004024052
:103D20006C00002000580040001C024000140240BB
:103D3000005C004000000240000802404000030018
:103D400070B51C461546002306461A46FFF7CCFE02
:103D500004E015F8011B3046FFF71BFF641EA4B2F8
:103D6000F7D23046BDE87040FBE670B5002405464A
:103D700001232246FFF7B8FE00B901242846FFF7C9
:103D8000F0FE204670BD000070B52B4B002211469E
:103D90001C68A40004D51C68012244F080741C60D7
:103DA000264B45F255541C600B2801D3072400E034
:103DB00003245C6000B3012820D0022820D003280F
:103DC00020D0042820D0052820D0062820D007287D
:103DD00020D040F2FF3408281FD040F2FF75092898
:103DE0001DD040F6FF760A281BD00B2815D00C28D2
:103DF00015D00D2815D015E0052113E00A2111E09A
:103E00000F210FE01F210DE03D210BE07B2109E098
:103E1000FF2107E040F2FF1104E0214602E02946BD
:103E200000E0314699604AF6AA2018604CF6CC4072
:103E30001860104670BD0000743802400030004029
:103E40002DED028B00F05EF9FDF7DCFF464881683E
:103E500041F4805181600A2000F042FC00F0DAFD5C
:103E600000F058FF4FF4E134204600F04BFA2246B0
:103E70003E4C00212046FEF786FB3DA12046FEF782
:103E800058FC0021084600F0E3FD18B13CA1204693
:103E9000FEF74FFC00F042FF3D4E307000F0EBFEAD
:103EA00020B13CA12046FEF744FC12E0012000F0C6
:103EB000C7FE32783AA13F4801F0EEFA4FF47A7427
:103EC000204600F03AF83B4800F0F1FE204600F0B2
:103ED00034F80D20FFF758FFDFF8D8809FED368AC1
:103EE000DFF8D8A0A8F11C084AF6AA2931481C38E6
:103EF00000F01EFE00F012FF3070D8ED060AB0EEA2
:103F0000480A00F026FA0D2000F09CFD07460C2020
:103F100000F098FD05460B2000F094FD04460A20B1
:103F200000F090FD3B462A46214600F0EEFCCAF820
:103F30000090FA2000F001F8D8E7214908B50A6896
:103F40000092EFF3058242B14FF0E021002809D042
:103F50000A69D203FAD5401EF8E70A68009BD21A14
:103F60008242FAD308BD0000002004E00044004073
:103F700074657374207561727420320D0A0000003C
:103F80004D505536303530204572726F720A000040
:103F9000780000204C4344204572726F720A000082
:103FA000426174746572795F6C6576656C203A2045
:103FB00025640000B80100206666A63F003000407E
:103FC000140000207047FEE7FEE7FEE7FEE77047BB
:103FD00070477047704710B5FDF7E8FE10BD000050
:103FE00070B55B4D28685B4B5B4910F00C0004D04A
:103FF0005E10042803D0082803D00B601BE00E607D
:1040000019E0534A121F1068C0F38054106800F082
:104010003F0014B1B6FBF0F001E0B3FBF0F0136821
:104020001268C3F388135843C2F30142521C520072
:10403000B0FBF2F008602868474AC0F30310121D75
:10404000105C0A68C2400A6070BD3CB4002240485F
:10405000009208380192016841F4803101604FF408
:10406000A043016801F4003101910099491C0091BD
:10407000019911B900999942F3D10168890302D5D8
:104080000121019100E00192314938310A6842F082
:1040900080520A6031490A6842F440420A602C4961
:1040A0000A680A600A680A600A6842F480520A6074
:1040B000019D0A1F2A4C40F20273012D18D0294D90
:1040C0001560026842F08072026002689201FCD5BD
:1040D0002360086820F003000860086840F00200D0
:1040E00008600868C0F381000228FAD13CBC77E779
:1040F0001D4D1560026842F08072026002689201F4
:10410000FCD5E5E7194810B5016841F4700101607C
:104110000F480838016841F0010101600C4A002194
:1041200011600268124B1A400260031D114A1A60A6
:10413000026822F4802202600548001D0160FFF73A
:1041400084FF0A494FF000608039086010BD00000C
:10415000083802400024F4007C0000200070004079
:10416000003C0240086401080864410888ED00E052
:10417000FFFFF6FE103000240120D249087070477E
:10418000F0B5B3B00E4607461546C821684600F0A4
:1041900072FECC4C002020706068FDF7B3FE042254
:1041A000C9A1384600F079FE10B1384600F075F923
:1041B000C821684600F081F92A463146684600F079
:1041C0006CFE10B120780028F2D0C148FEF7A3FAA7
:1041D0006068FDF794FE6068FDF797FE207833B0C5
:1041E00080F00100F0BD30B599B0044600F04EFEFD
:1041F00005461722B7A1BDA0FFF7C2FFB0B9C0A006
:1042000000F04BF9642000F032F96421684600F0B8
:1042100032FEAC4ABEA10832684601F03DF90422E4
:10422000C3A16846FFF7ACFF002867D06421684649
:1042300000F021FEC0A000F030F9642000F017F972
:10424000C1A000F02AF96421684600F014FE9D4ADE
:10425000C6A10832684601F01FF9684600F01DF952
:10426000C6A000F01AF96421684600F004FE2A4650
:10427000C9A1684601F010F9684600F00EF9CCA01B
:1042800000F00BF96421684600F0F5FD8D4ACCA1E1
:104290000832684601F000F9684600F0FEF8CFA049
:1042A00000F0FBF8D64800F0F8F8D64800F0F5F832
:1042B0006421684600F0DFFD824AD3A108326846D7
:1042C00001F0EAF8684600F0E8F8D6A000F0E5F85A
:1042D000DD4800F0E2F86421684600F0CCFD1A23C6
:1042E0002246DAA1684601F0D7F81422D9A168461F
:1042F000FFF746FF20B1002019B030BD0620FBE7D4
:104300000520F9E738B50446002002460146009032
:10431000D64B42F21070FDF7A5FD6A4922466C4C5F
:10432000486001212046FEF72EF92046FEF780FA6C
:10433000CFA000F0B2F842F6F82000F098F804227E
:104340007BA1CEA0FFF71CFF08B1002038BD0120E3
:1043500038BDF0B506462DED048B99B0B0EE609AED
:10436000B0EE408AC821C74800F085FD6421684648
:1043700000F081FD04226EA1C3A0FFF701FF002819
:1043800031D00F22C3A1C3A0FFF7FAFE58B34D4CA2
:10439000002020706068FDF7B5FD6D46684600F0AE
:1043A00075FDC0F1640087B2684600F06FFD2844D7
:1043B000394600F082F8684600F068FD284404227F
:1043C0005BA1001F00F069FD10B120780028E5D046
:1043D0006068FDF794FD6068FDF797FD3C48FEF7C7
:1043E0009AF9207820B1022019B0BDEC048BF0BD01
:1043F000A44CACA001682160416861600089208103
:10440000684600F043FDA0F10807204600F03EFD9D
:1044100020443A46A91C00F015FD18EE100A00F0E1
:10442000DEFD41EC180B204600F030FD204453EC3B
:10443000182B9FA101F030F8204600F027FD204402
:1044400032469FA101F028F819EE100A00F0C7FDCE
:1044500041EC180B204600F019FD204453EC182BBA
:104460009BA101F019F82046FFF7BDFEBCE79B4970
:1044700008B50A680092EFF3058242B14FF0E021DF
:10448000002809D00A69D203FAD5401EF8E70A6865
:10449000009BD21A8242FAD308BD10B5044600F040
:1044A000F5FC21460A4C82B22046FEF7FEF9204672
:1044B000FEF72EFA0028FAD110BD0A46014604483C
:1044C000FEF7EAB8900000204E554C4C000000006A
:1044D000001001402B4349505354415455533A3036
:1044E0002C434F4E4E454354204F4B0041542B43D9
:1044F00049505354415455533D300D0A00000000BB
:1045000041542B434950434C4F53450D0A00000082
:1045100041542B43495053544152543D225443502B
:10452000222C222573222C333030300D0A0000005B
:104530004F4B0D0A0000000041542B434950534596
:104540004E440D0A00000000504F5354202F61705C
:10455000695F73656E645F6C6F636174696F6E2011
:10456000485454502F312E310D0A0000486F737497
:104570003A2025733A333030300D0A00436F6E6EA7
:10458000656374696F6E3A206B6565702D616C6947
:1045900076650D0A00000000436F6E74656E742D21
:1045A0004C656E6774683A2025640D0A00000000AF
:1045B0004163636570743A202A2F2A0D0A000000B7
:1045C0004F726967696E3A20687474703A2F2F25AC
:1045D000733A333030300D0A00000000582D526518
:1045E000717565737465642D576974683A20584D08
:1045F0004C48747470526571756573740D0A0000CF
:10460000BC5E0008405F0008526566657265723ADC
:1046100020687474703A2F2F25733A333030302F5E
:104620000D0A00004163636570742D456E636F640D
:10463000696E673A20677A69702C206465666C61E0
:1046400074650D0A000000006C5E00082573256388
:104650000000000053656E642073756363657373B7
:1046600066756C6C792E0D0A000000007941000817
:1046700041542B5253543D310D0A000041540D0A50
:10468000000000001C02002041542B4750533D31D4
:104690000D0A000041542B4C4F434154494F4E3DAD
:1046A000320D0A0049643D31264750533D00000059
:1046B0002653706565643D25302E3266000000008B
:1046C0002643617061636974793D256400000000D0
:1046D0002654656D703D25302E3166001400002093
:1046E0007CB500F056FC0D46044645EC100BC34962
:1046F0004FF08040FEF7E6FAC04945EC104B2831F8
:10470000BF48FEF7DFFA00200321CDE90001BD4CD0
:1047100003460122E2212046FDF758FC0220608377
:104720002020608340206083802060837CBD2DE951
:10473000FC410C46034600200321DFF8C882022713
:104740000126B14D012B20D0022B57D16B78002BC5
:1047500054D1002A54D0AE80CDE90001012280213D
:104760004046FDF733FC8020A8F81A00A348002239
:1047700011462830FEF747FE0A2000F029F900EE26
:10478000104A0021B8EE400A54E02B78002B35D1B6
:10479000C2B16E80CDE90001012220214046FDF723
:1047A00015FC2020A8F81A00002201219348FEF7EA
:1047B0002AFE0A2000F00CF900EE104A0121B8EEA2
:1047C000400A17E06F80CDE9000100230122022199
:1047D0004046FDF7FBFBA8F81A700122002187482C
:1047E000FEF711FE0A2000F0F3F800EE104A002157
:1047F000B8EE400A8148FEF7DFFE2E70BDE8FC816E
:10480000AF80CDE900010023012240214046FDF7A1
:10481000DDFB4020A8F81A0078480022012128304A
:10482000FEF7F1FD0A2000F0D3F800EE104A012156
:10483000B8EE400A71482830FEF7BEFE6E70DDE724
:104840002DE9FC419FED710A03266E4D6E4F002449
:10485000012802D0022829D052E0387828B378887D
:10486000012802D0022810D01DE001216348FEF784
:10487000A3FECDE900460023012202212846FDF7D0
:10488000A5FB022068837C800DE000215B48FEF7D9
:1048900093FECDE900460023012220212846FDF7A2
:1048A00095FB202169837C803C7029E0787838B3BF
:1048B000B888012802D0022811D01FE04F480021FB
:1048C0002830FEF779FECDE9004600230122402181
:1048D0002846FDF77BFB40206883BC800EE04748FC
:1048E00001212830FEF768FECDE9004600230122B1
:1048F00080212846FDF76AFB80216983BC807C709B
:10490000BDE8FC410A2000F063B870B545084E08C8
:1049100005EB53003C4C06EB520106EB5303E080E1
:10492000218105EB52026381A281421A4FF4C775BF
:10493000C732AA4203D80120FFF782FF1CE0324AA7
:10494000884212780AD9BAB96088012801D018B112
:1049500012E00120FFF774FF002209E062B96088CD
:10496000022801D018B107E00120FFF769FF0122FA
:104970000C210120FFF7DBFEA0896189421AC732B2
:10498000AA4203D8BDE87040022059E7814260780E
:104990000CD200281BD1A088012803D0002816D1F2
:1049A00000220BE00220FFF74BFFF9E700280ED1B1
:1049B000A088022807D0002809D10122BDE8704054
:1049C00012210220B3E60220FFF73AFFF5E770BD9F
:1049D0000F4908B50A680092EFF3058242B14FF023
:1049E000E021002809D00A69D203FAD5401EF8E771
:1049F0000A68009BD21A8242FAD308BDE402002062
:104A00000004004000000240A6000020000000005A
:104A10001400002010B50D4C0A212046FEF7B3F813
:104A20000B212046FEF7AFF80C212046FEF7ABF82D
:104A30000D212046FEF7A7F82046BDE810400F21C3
:104A4000FEF7A1B801460148FEF7EEB8002101408B
:104A500070B56F4E0D4604466C4A00213046FEF795
:104A600060FFD0213046FFF780F940B17522D02198
:104A70003046FFF79CF8682803D0022070BD012063
:104A800070BD00236B22D0213046FFF708F94F2379
:104A90001922D0213046FFF702F91C22D0213046DE
:104AA000FFF785F800F0E70040EAC400C3B21C221B
:104AB000D0213046FFF7F3F81B22D0213046FFF714
:104AC00076F800F0E70040EAC500C3B21B22D0210F
:104AD0003046FFF7E4F84F4834B1012C07D0022CE0
:104AE00011D0032C07D111E09FED4B0A01E09FED9F
:104AF0004B0A80ED000A65B1012D0DD0022D11D0B9
:104B0000032D0DD111E09FED460AF2E79FED450A16
:104B1000EFE79FED450A01E09FED440A80ED010AB1
:104B2000002070BD9FED420AF8E79FED420AF5E7CD
:104B300010B586B004460E20009001AB3B22D02178
:104B40003348FFF769F8BDF80400324940BA00B2B3
:104B500000EE100AF8EEC00A91ED000A60EE800A3D
:104B6000C4ED000ABDF8060040BA00B200EE900A9B
:104B7000F8EEE00A60EE800AC4ED010ABDF8080014
:104B800040BA00B200EE900AF8EEE00A20EE800A89
:104B9000DFED290A84ED020ABDF80A0040BA00B22E
:104BA00000EE100AB8EEC00A80EE201A9FED230A2C
:104BB00031EE000A84ED060ABDF80C0040BA00B2DE
:104BC00000EE100AF8EEC00A91ED010A60EE800ACC
:104BD000C4ED030ABDF80E0040BA00B200EE900A20
:104BE000F8EEE00A60EE800AC4ED040ABDF8100099
:104BF00040BA00B200EE900A0020F8EEE00A20EE83
:104C0000800A84ED050A06B010BD0000801A060077
:104C1000005C0040B4000020000080380000003933
:104C2000000080390000003A2D23FA3B2D237A3C06
:104C300090C1F93C90C1793D0000AA43B81E1242D0
:104C400000F0F00108B541F00C028DF8002041F0B1
:104C5000080100018DF8011040F00C018DF80210E0
:104C600040F008008DF8030004236A464E212748CF
:104C7000FFF766F808BD10B5244C254A00212046F0
:104C8000FEF74FFE4E212046FFF76FF868B1022075
:104C9000FFF7D6FF2820FFF7D3FF0C20FFF7D0FF48
:104CA0008020FFF7CDFF002010BD012010BD38B5DA
:104CB0000446164D19E001F0F002080142F00D0122
:104CC0008DF8001042F009018DF8011040F00D013F
:104CD0008DF8021040F009008DF8030004236A46A5
:104CE0004E212846641CFFF72BF821780029E2D1D9
:104CF000002038BD10B50C300C46C0B2FFF7A0FF45
:104D00008034E0B2FFF79CFF002010BD0058004047
:104D1000A08601000E214948FDF735BF10B50E21D0
:104D20004648FDF781FF464900EB40020880C2EB90
:104D3000C0100E22B0FBF2F08A68801A4860BDE80D
:104D40001040AFF3008042F60411884201D80020E1
:104D5000704742F6FD21884201D80520704742F68F
:104D6000F641884201D80A20704742F641518842F4
:104D700001D80F20704742F68C51884201D8142088
:104D8000704742F6D751884201D81920704742F641
:104D90002261884201D81E20704742F6686188422D
:104DA00001D82320704742F6AE61884201D82820FE
:104DB000704742F6E061884201D82D20704742F6E4
:104DC0001271884201D83220704742F644718842FD
:104DD00001D83720704742F67671884201D83C20CE
:104DE000704742F6DA71884201D84120704743F299
:104DF0000C01884201D84620704743F27001884276
:104E000001D84B20704743F2D401884201D850208A
:104E1000704743F25111884201D85520704743F240
:104E2000CE11884201D85A20704743F24B21884264
:104E300001D85F20704764207047000000210140C6
:104E4000BC00002040EA01039B0703D009E008C929
:104E5000121F08C0042AFAD203E011F8013B00F83F
:104E6000013B521EF9D27047D2B201E000F8012B8B
:104E7000491EFBD270470022F6E710B513460A46DA
:104E800004461946FFF7F0FF204610BD421C10F8FB
:104E9000011B0029FBD1801A704730B50446002061
:104EA000034600E05B1C934203D2E05CCD5C401BF8
:104EB000F8D030BD2DE9F04D81EA030404F0004B39
:104EC00021F0004514464FF0000A23F0004150EA5B
:104ED000050220D054EA01021DD0C5F30A5702464C
:104EE000C5F31303C1F31300C1F30A5640F4801550
:104EF00043F48013A7EB0608101BD64608F2FD38D2
:104F000073EB050002D308F1010801E092185B4140
:104F1000B8F1000F03DA00200146BDE8F08D002053
:104F20004FF48011064684460EE0171B73EB05070D
:104F300005D3121B63EB050306434CEA010C490839
:104F40004FEA300092185B4150EA0107EDD152EA76
:104F5000030012D082EA040083EA0501084305D069
:104F6000101BAB4106D20122002306E000224FF0C5
:104F7000004302E06FF0010253101AEB06004CEB05
:104F8000085110EB0A0041EB0B01BDE8F04D00F0B9
:104F9000A8B80EB540F2334102910021CDE90011CD
:104FA0000A460B4600F0ACF803B000BDC1F30A524C
:104FB00010B5C1F3130140F2FF3341F480119A425E
:104FC00001DA002010BD40F233439A42A2F233428C
:104FD00003DC524200F075F810BD904010BD00F0A7
:104FE000004230F000400AD0C10D01F56071C0F3FD
:104FF000160042EA0151C2084007114370470020E1
:105000000146704730B5041E71F1000404DB4FF017
:105010000044404264EB0101141E73F1000405DBFF
:105020001C464FF00043524263EB04038B4208BF1F
:10503000824230BD30B50B460146002020220124BB
:1050400009E021FA02F59D4205D303FA02F5491B56
:1050500004FA02F52844151EA2F10102F1DC30BD6C
:105060002DE9F05F0546002092469B46884606469D
:10507000814640241BE0284641464746224600F030
:1050800020F853465A46C01A914110D3114618468B
:10509000224600F0DFF92D1A67EB01084F46224641
:1050A0000120002100F0D6F917EB00094E41201E27
:1050B000A4F10104DFDC484631462A464346BDE8F8
:1050C000F09F202A04DB203A21FA02F000217047E9
:1050D00021FA02F3D040C2F1200291400843194660
:1050E000704710B5141E73F1000408DA401C41F13A
:1050F000000192185B411A4301D120F0010010BD5C
:105100002DE9F04D92469B4611B1B1FA81F202E0D1
:10511000B0FA80F22032904600F09CF904460F4627
:1051200040EA0A0041EA0B0153465A46084313D0AD
:10513000114653EA010019D0C8F140025046FFF76A
:10514000C0FF05460E4650465946424600F082F9D9
:10515000084305D0012004E020463946BDE8F08D23
:105160000020054346EAE0762C4337430A9863055E
:10517000E40AA0EB08000022FD0A44EA47540A3082
:1051800002D500200146E9E7010510196941DDE972
:10519000084500196941BDE8F04DA2E72DE9FE4F31
:1051A000804681EA0300C00F0C46009021F00041C8
:1051B00023F00045B8EB0200A94105D24046214644
:1051C00090461C460B46024623F00040104347D051
:1051D000270DC7F30A00C3F30A510290401A019049
:1051E00040286BDAC3F3130040F4801B009892460A
:1051F00020B10023D2EB030A63EB0B0B0198594655
:10520000C0F14002504600F025F906460D465046D2
:105210005946019A00F02DF910EB08006141002475
:1052200087EA115284EAE7731A4340D0009A62B3C6
:10523000019A012A4FEA075215DC001B61EB0201BB
:105240004FF0004202EA0752CDE90042001C41F54E
:10525000801132462B46FFF753FF03B0BDE8F08FB5
:1052600040462146F9E7001B61EB0201001C41F5B5
:10527000801300185B412018A2F5001747EB0301CB
:1052800040EAD570B6196D4111E06D084FEA360657
:1052900045EAC0754FEA0752001B61EB0201001C92
:1052A00041F5801149084FEA30000019514132465A
:1052B0002B4603B0BDE8F04FFFF713BF0098012263
:1052C00040000023D0EB020263EBE073009821461C
:1052D0004FEAE074B8EB000061EB0401E9E783F00A
:1052E00000435BE781F0004158E72DE9FE4F81EA7A
:1052F000030404F0004421F0004100944FF0000B3F
:1053000023F0004350EA01045ED052EA03045BD06C
:10531000C3F30A54C1F30A552C44A4F2F3340194A4
:10532000A0FB0254C1F3130141F48011C3F3130332
:1053300043F4801301FB024400FB034E840A970AE6
:1053400044EA815447EA8357A4FB076802958D0A13
:1053500005FB07854FEA932C04FB0C542705029D9F
:105360004FEA065847EA1637B5EB08056EEB070C0F
:10537000870E920E47EA811742EA8312A7FB0201C9
:10538000B6EB0B0164EB00042B0D43EA0C335E1803
:1053900044EB1C50DA465146E7FB0201C5F3130407
:1053A0004FEA0B3343EA14534FEA0432019C43EAB9
:1053B0000603A4F10C040294009CCDE900B4FFF7AD
:1053C0009FFE03B0BDE8F08F00200146F9E7C1F36E
:1053D0000A52C1F3130140F2FF3341F480119A42A3
:1053E00002DA00200146704740F233439A42A2F2AB
:1053F000334202DC5242FFF764BE00F02BB80000DB
:1054000030B5041E71F1000404DB4FF0004440424B
:1054100064EB0101141E73F1000405DB1C464FF020
:105420000043524263EB0403994208BF904230BDEF
:10543000064C074D06E0E06840F0010394E80700E1
:1054400098471034AC42F6D3FAF7AAFE845F0008FE
:10545000A45F0008202A04DB203A00FA02F10020B1
:1054600070479140C2F1200320FA03F319439040A2
:105470007047202A06DBCB17203A41FA02F043EAB4
:10548000E07306E041FA02F3D040C2F120029140FD
:1054900008431946704700000FB4084B10B504A923
:1054A00002AA039800F0DEF8044602A9002000F0EA
:1054B00070FC204610BC5DF814FB0000935D0008F2
:1054C00002E008C8121F08C1002AFAD170477047CD
:1054D000002001E001C1121F002AFBD1704700002B
:1054E0002DE9FF5F82B00021DDE90430020DDDF817
:1054F00040B0034318D044F61050A2F2FF324243AA
:105500001514119801281FD0A5EB0B00401C5FEA71
:10551000000A4FF000064E4FDFF83891B046504673
:1055200015D5CAF1000413E0119801244AA30128FB
:1055300001D16FEA0B010298119AC0E90031C0E96C
:10554000024206B0BDE8F09FCBF10000DFE7044661
:105550000021404A491842EB0450CDE9001012E006
:10556000E00707D032463B4640464946FFF7BDFEBE
:105570008046894632463B4610461946FFF7B5FE3F
:1055800006460F466410002CEAD1DDE90401DDE98E
:105590000023BAF1000F06DAFFF7A7FE42464B469A
:1055A000FFF7A3FE05E0FFF785FC42464B46FFF7F9
:1055B00081FC04460E460022284BFFF721FF03D84A
:1055C0004FF0FF30014607E00022254B20463146D0
:1055D000FFF7E4FDFFF7FBFE102409E0002C0ADBD7
:1055E0000A220023FFF73CFD039B30321A55641E4C
:1055F00050EA0102F2D1641C039AC4F1110314446D
:10560000119A012A03D0012208430DD10AE0084370
:1056100004D000204FF0110B119072E7A3EB0B05A3
:105620006D1E0DE05B4504DD4FF0000205F1010544
:1056300004E003DA4FF00002A5F10105002AECD0E6
:1056400002981199C0E90231C0E9004579E70000EC
:10565000000014400000F03F300000000000F04364
:105660000000E03F2DE9FF4F95B09B468946064676
:1056700000250FE2252877D100242746F84A01218A
:10568000059400E0044316F8013F203B01FA03F0C3
:105690001042F7D130782A2811D06FF02F033078DC
:1056A000A0F13002092A16D8059A44F0020402EB50
:1056B000820203EB42021044761C0590EFE759F892
:1056C000042B0592002A03DA504244F4005405905A
:1056D00044F00204761C30782E2816D116F8010FFB
:1056E00044F004042A280DD06FF02F023078A0F186
:1056F0003003092B09D807EB870302EB4303C718D4
:10570000761CF3E759F8047B761C30786C280FD0B0
:1057100006DC4C2817D068280DD06A2814D104E084
:10572000742810D07A280FD10DE044F400140AE058
:1057300044F4801401E044F440147278824202D1AF
:1057400004F58014761C761C307866280BD013DCA8
:10575000582877D009DC002875D04528F6D046288F
:10576000F4D047281AD19DE118E0632835D0642889
:1057700079D0652812D195E1702873D008DC6728AC
:10578000F1D069286FD06E280DD06F2806D1B5E012
:1057900073282CD0752875D0782874D05A4617995C
:1057A00090476D1C75E1C4F30250022809D003280C
:1057B0000DD0D9F8001004280DD00D6009F10409AE
:1057C00067E1D9F80010EA17C1E90052F6E7D9F805
:1057D00000100D80F2E70D70F0E719F8041B8DF84A
:1057E000001000208DF80100EA46012003E059F87E
:1057F00004AB4FF0FF3061074FF0000102D40DE021
:1058000008F101018846B9420FDA8045F8DB1AF841
:1058100008100029F4D108E008F10101884681420E
:10582000FADB1AF808100029F6D105985B46A0EBC0
:10583000080721463846179A00F094FA284400EBEE
:10584000080507E04DE029E10DE01AF8010B5A4682
:1058500017999047B8F10108F7D25B4621463846C0
:10586000179A13E142E00A220092C4F302524FF069
:10587000000A022A08D059F804CB032A4FEAEC7137
:105880000AD00DE029E02AE009F1070121F0070222
:10589000F2E802C1914609E00FFA8CFC4FEAEC7184
:1058A000042A03D14FFA8CFC4FEAEC71002907DA85
:1058B0000A460021DCF1000C61EB02012D2202E01E
:1058C000220504D52B228DF80420012203E0E207F3
:1058D00001D02022F7E7904659E00A2102E0102289
:1058E0000DE010214FF0000A00910BE010224FF064
:1058F000000A44F004040827009203E008224FF055
:10590000000A0092C4F30252022A05D059F804CBCF
:105910000021032A08D009E009F1070121F007025C
:10592000F2E802C1914605E01FFA8CFC042A01D17D
:105930000CF0FF0C4FF00008220728D5702806D085
:10594000009B83F0100353EA0A0305D00EE04022C7
:105950008DF80420012208E05CEA010206D0302222
:105960008DF804208DF8050002229046009B83F0FC
:10597000080353EA0A030AD15CEA010201D1620773
:1059800005D530228DF804204FF001087F1E5828DD
:1059900004D034A003900EA802900DE036A0F9E7E1
:1059A00053466046009AFFF75BFB84460398825C8F
:1059B0000298401E029002705CEA0100F0D1029849
:1059C00006A9081A00F1200A600702D524F48034E1
:1059D00000E00127574502DDA7EB0A0000E00020A8
:1059E00000EB0A01009005984144401A0590E0033D
:1059F00006D45B462146179A059800F0B3F9054492
:105A0000002706E001A85A46C05D179990476D1C13
:105A10007F1C4745F6DBE0030CD55B462146179A11
:105A2000059800F09FF9054404E030205A46179984
:105A300090476D1C0099481E00900029F5DC08E095
:105A4000029802995A460078491C0291179990478A
:105A50006D1CBAF10001AAF1010AF1DC65E1000058
:105A60000928010030313233343536373839616234
:105A700063646566000000003031323334353637F8
:105A800038394142434445460000000000F058F9CF
:105A90000544761C307800287FF4ECAD19B0284618
:105AA000BDE8F08F620700D4062709F1070222F053
:105AB000070CFCE80223E14603F000485FEA080C0B
:105AC00002D00FF2702C0DE05FEA045C02D50FF2F9
:105AD000682C07E05FEAC47C02D00FF2602C01E082
