:020000040800F2
:10000000E0080020310200081D4B00081F4B0008CB
:10001000234B0008274B00082B4B00080000000072
:100020000000000000000000000000002F4B00084E
:10003000314B000800000000334B0008374B00082C
:100040004B0200084B0200084B0200084B0200085C
:100050004B0200084B0200084B0200084B0200084C
:100060004B0200084B0200084B020008C14900087F
:10007000CD490008D9490008E5490008F1490008C0
:10008000FD490008094A00084B0200084B0200081D
:100090004B0200084B0200084B0200084B0200080C
:1000A0004B0200084B0200084B0200084B020008FC
:1000B0004B0200084B0200084B0200084B020008EC
:1000C0004B0200084B0200084B0200084B020008DC
:1000D0004B020008434500085D45000879450008CB
:1000E0004B0200084B0200084B0200084B020008BC
:1000F0004B0200084B0200084B020008154A00089A
:100100004B0200084B0200084B0200084B0200089B
:1001100095450008B14500084B0200084B02000855
:10012000214A00082B4A0008374A0008434A0008C1
:100130004F4A00084B0200084B0200084B0200081F
:100140004B0200084B0200084B0200084B0200085B
:100150005B4A0008674A0008734A0008CB4500085C
:100160004B0200084B0200084B0200084B0200083B
:100170004B0200084B0200084B0200084B0200082B
:100180004B0200084B02000800F002F800F040F8B3
:100190000AA090E8000C82448344AAF10107DA45E2
:1001A00001D100F035F8AFF2090EBAE80F0013F0F4
:1001B000010F18BFFB1A43F001031847285700002E
:1001C00048570000103A24BF78C878C1FAD85207BF
:1001D00024BF30C830C144BF04680C6070470000C1
:1001E0000023002400250026103A28BF78C1FBD840
:1001F000520728BF30C148BF0B6070471FB505F0DC
:1002000061FB9DE8030005F00FF81FBD10B510BDA0
:1002100005F066F81146FFF7F1FF04F056FC05F013
:1002200084F803B4FFF7F2FF03BC05F0B5F8000053
:100230000948804709480047FEE7FEE7FEE7FEE77A
:10024000FEE7FEE7FEE7FEE7FEE7FEE704480549B6
:10025000054A064B704700001D4C00088901000844
:10026000E0020020E0080020E0040020E00400207C
:1002700032490143324A1160704770B500210023B2
:100280000F22C4781CB32E4C246804F4E064C4F537
:10029000E064C4F30721C1F10404E3B20A414478E5
:1002A0009C40E1B28478144021430C07210E254C78
:1002B00005786155047804F01F050124AC400578E9
:1002C0006D11AD0005F1E025C5F8004109E00478A5
:1002D00004F01F050124AC401B4D0678761145F84B
:1002E000264070BD194A0A400243154B1B1F1A6075
:1002F000704739B1124A121D12680243104B1B1D80
:100300001A6006E00E4A121D126882430C4B1B1D38
:100310001A607047042808D14FF0E021096941F0C4
:1003200004014FF0E022116107E04FF0E02109697C
:1003300021F004014FF0E022116170470000FA053E
:100340000CED00E000E400E080E100E080FFFF1F32
:10035000F948006840F00100F74908600020F649BC
:1003600008310860F4480068F4490840F249086020
:10037000F348091D0860F348EF4984310860F048EC
:100380001038091D0860EC48006820F48020EA4914
:1003900008600020E8490C310860E7498C310860AA
:1003A00070470021E44A921C117011460870704792
:1003B00010B501460022002300204A11012A02D173
:1003C000DD4C236808E0022A03D1DB4C703423683B
:1003D00002E0D94C7434236801F01F0201249440D8
:1003E0001C400CB1012000E0002010BD38B50020F9
:1003F00000900024002500BF3120FFF7D9FF0546FB
:100400000098401C00900098B0F5A04F01D0002D3E
:10041000F2D03120FFF7CCFF08B1012400E0002426
:10042000204638BD01460020C34A106820F0F8007D
:1004300040EAC10010607047C3490860704700215E
:10044000BD4A703211701170012802D004280AD1FF
:1004500004E00121B84A7032117005E00521B64A66
:100460007032117000E000BF00BF7047B7490860EC
:10047000704770B5049C41EA82150126C6EB53060D
:1004800045EA0645054345EA0465AB4E361D356031
:1004900070BDAD4908667047820142EA0172A64B01
:1004A00084331A607047A8498866704710B5830185
:1004B00043EA016343EA02739F4C8834236010BD12
:1004C000A14908677047A049C864704702460020E8
:1004D000994B0833186820F0EC6042EA0103184396
:1004E000954B08331860704702460020924B083342
:1004F000186820F0784042EA010318438E4B083315
:1005000018607047014600208B4A0832106820F0BE
:10051000030008431060704787480830006800F007
:100520000C00704701460020834A0832106820F012
:10053000F000084310607047014600207E4A0832F0
:10054000106820F4E0500843106070470146002016
:10055000794A0832106820F4604040EAC100106017
:100560007047F0B500210022002402250026022356
:10057000714F08373F6807F00C0121B1042905D0FD
:10058000082937D105E0724F076036E0714F0760E8
:1005900033E0694F3F1D3F68C7F38056664F3F1DEC
:1005A0003F6807F03F036EB16A4FB7FBF3F7DFF820
:1005B00088C10CF1040CDCF800C0CCF3881C07FBEC
:1005C0000CF40CE0624FB7FBF3F7DFF86CC10CF1F1
:1005D000040CDCF800C0CCF3881C07FB0CF4564F6D
:1005E0003F1D3F68C7F301477F1C7D00B4FBF5F753
:1005F000076002E0564F076000BF00BF4E4F08374C
:100600003F6807F0F0010909534F7A5C0768D7404B
:100610004760494F08373F6807F4E051890A4E4F59
:100620007A5C4768D7408760434F08373F6807F4D4
:100630006041490B484F7A5C4768D740C760F0BDBE
:10064000002100F44072B2F5407F0AD13A4A0832E4
:10065000116821F4F811414A02401143364A083228
:100660001160354A70321268C0F30B031A43324BE3
:1006700070331A6070473549443908607047334910
:1006800040390860704736490860704701460020CD
:10069000294A8C32106820F44010084310607047DB
:1006A00001460020244A8C32106820F440000843A0
:1006B00010607047014600201F4A8C32106820F0FD
:1006C0001F004A1E10431C4A8C32106070470146BE
:1006D0000020194A8C32106820F4F8504A1E40EA73
:1006E0000220154A8C321060704701460020124AE1
:1006F0008C32106820F4403008431060704719496C
:100700000860704739B10C4A3032126802430A4B14
:1007100030331A6006E0084A303212688243064BD2
:1007200030331A607047F9B1034A34321268024319
:10073000014B34331A601CE000380240FFFFF6EA38
:10074000103000240030002000004742800E474255
:100750000024F40040787D0100000020FFFCFF0F22
:100760005C014742E01147428F4A126882438E4B38
:100770001A60704739B18C4A121D126802438A4BC5
:100780001B1D1A6006E0884A121D12688243864BC0
:100790001B1D1A60704739B1834A0C32126802433C
:1007A000814B0C331A6006E07F4A0C321268824398
:1007B0007D4B0C331A60704739B17B4A1032126896
:1007C0000243794B10331A6006E0774A1032126800
:1007D0008243754B10331A60704739B1724A243A1C
:1007E00012680243704B243B1A6006E06E4A243ABA
:1007F000126882436C4B243B1A60704739B16A4AD5
:10080000203A12680243684B203B1A6006E0664AB1
:10081000203A12688243644B203B1A60704739B11A
:10082000614A1C3A126802435F4B1C3B1A6006E0A7
:100830005D4A1C3A126882435B4B1C3B1A6070474E
:1008400039B1594A143A12680243574B143B1A60A3
:1008500006E0554A143A12688243534B143B1A601F
:10086000704739B1504A103A126802434E4B103B60
:100870001A6006E04C4A103A126882434A4B103B19
:100880001A60704739B1484A1C3212680243464B1D
:100890001C331A6006E0444A1C3212688243424B01
:1008A0001C331A60704739B13F4A20321268024344
:1008B0003D4B20331A6006E03B4A203212688243E7
:1008C000394B20331A60704739B1374A24321268E5
:1008D0000243354B24331A6006E0334A243212684F
:1008E0008243314B24331A60704739B12E4A2C327F
:1008F000126802432C4B2C331A6006E02A4A2C3231
:1009000012688243284B2C331A60704739B1264A4B
:10091000303212680243244B30331A6006E0224A18
:10092000303212688243204B30331A6070470128FE
:1009300008D11D493C31096841F008011A4A3C328E
:10094000116007E018493C31096821F00801164A96
:100950003C321160704739B1134A273A127802438A
:10096000114B273B1A7006E00F4A273A1278824350
:100970000D4B273B1A7070470B484030006840F021
:100980008070094940310860704701460020064ADE
:10099000283A12680A400AB1012000E0002070479E
:1009A00001492639087070473438024010B50446B2
:1009B000FE48844208D101210846FFF752FF00217A
:1009C0000120FFF74EFF9DE0B4F1804F08D10121D7
:1009D0000846FFF735FF00210120FFF731FF91E0C6
:1009E000F348844208D101210220FFF729FF0021AA
:1009F0000220FFF725FF85E0EE48844208D101215F
:100A00000420FFF71DFF00210420FFF719FF79E004
:100A1000E948844208D101210820FFF711FF002195
:100A20000820FFF70DFF6DE0E448844208D1012162
:100A30001020FFF705FF00211020FFF701FF61E004
:100A4000DF48844208D101212020FFF7F9FE002170
:100A50002020FFF7F5FE55E0DA48844208D1012155
:100A60000220FFF7FEFE00210220FFF7FAFE49E018
:100A7000D548844209D101210804FFF7F2FE002184
:100A80004FF48030FFF7EDFE3CE0D048844209D1BE
:100A900001214804FFF7E5FE00214FF40030FFF785
:100AA000E0FE2FE0CA48844209D101218804FFF703
:100AB000D8FE00214FF48020FFF7D3FE22E0C54886
:100AC000844208D101214020FFF7BAFE00214020D6
:100AD000FFF7B6FE16E0C048844208D1012180200D
:100AE000FFF7AEFE00218020FFF7AAFE0AE0BB4818
:100AF000844207D101218015FFF7A2FE0021A01535
:100B0000FFF79EFE10BD00220288A84B98420ED02F
:100B1000AC4B98420BD0B0F1804F08D0A44B984218
:100B200005D0A44B984202D0A34B984204D14FF673
:100B30008F731A404B881A43A04B984207D0A04BA2
:100B4000984204D04FF6FF431A400B891A430280A3
:100B50004B68C3620B880385944B984202D0994B33
:100B6000984201D18B7A03860123838270474FF02C
:100B7000FF31416000210180018141808172704715
:100B80000185828270470A46002101884FF68F73E3
:100B9000194011430180704741627047C16270473C
:100BA0000146486A70470146088D704721B10288A6
:100BB00042F00202028004E002884FF6FD731A4000
:100BC0000280704721B1028842F00402028004E0F2
:100BD00002884FF6FB731A400280704721B10288E9
:100BE00042F08002028004E002884FF67F731A40D0
:100BF0000280704702884FF6F7731A40028002881D
:100C00000A430280704702884FF6FF431A40028071
:100C100002880A430280704721B1028842F0010233
:100C2000028004E002884FF6FE731A40028070478B
:100C300070B5002400220023058C4FF6FE76354067
:100C40000584028C8388048B4FF68F752C40B51E6B
:100C50002C400D882C43751E2A408D892A434D88CF
:100C60002A43524DA84202D0564DA84213D14FF606
:100C7000F7752A40CD892A434FF6FB752A408D88A7
:100C80002A434FF6FF652B404FF6FF552B400D8A48
:100C90002B434D8A2B43838004838D6845630284F4
:100CA00070BD70B5002400220023058C4FF6EF764E
:100CB00035400584028C8388048B48F6FF752C40F0
:100CC0004FF6FF452C400D884FF6FF7606EA0525C6
:100CD0002C434FF6DF752A408D8906EA05152A4315
:100CE0004D8806EA05152A43304DA84202D0354DFD
:100CF000A8421DD14FF67F752A40CD894FF6FF7669
:100D000006EA05152A434FF6BF752A408D8806EA84
:100D100005152A434FF6FF352B404FF2FF752B4048
:100D20000D8A06EA85052B434D8A06EA85052B4385
:100D3000838004838D688563028470BD70B5002450
:100D400000220023058C4FF6FF6635400584028C97
:100D50008388848B4FF68F752C404FF6FC752C40A2
:100D60000D882C434FF6FF552A408D894FF6FF76AC
:100D700006EA05252A434D8806EA05252A430B4D38
:100D8000A84202D00F4DA84238D14FF2FF752A4039
:100D9000CD894FF6FF7606EA05252A434FF6FF3543
:100DA0002A408D8806EA05252A4319E00000014003
:100DB0000004004000080040000C0040001000400B
:100DC0000014004000040140004001400044014084
:100DD0000048014000180040001C00400020004076
:100DE0004EF6FF752B404DF6FF752B400D8A06EA37
:100DF00005152B434D8A06EA05152B438380848312
:100E00008D68C563028470BD70B500220023002484
:100E1000058C4EF6FF7635400584038C8488828BE2
:100E200048F6FF752A404FF6FF452A400D884FF6D9
:100E3000FF7606EA05252A434DF6FF752B408D897E
:100E400006EA05352B434D8806EA05352B43FE4D52
:100E5000A84202D0FD4DA84208D14BF6FF752C40A8
:100E60000D8A4FF6FF7606EA85152C43848082832F
:100E70008D680564038470BD0021018041808180FC
:100E800081608181C18101824182704770B50346D2
:100E9000002000241846183001258D40ACB21D8C6E
:100EA000A5431D8409B108290AD100EB610005683A
:100EB0004FF68F76354005600568154305600FE0F5
:100EC0000D1FC5F34E052844056848F6FF763540EA
:100ED000056005684FF6FF7606EA02263543056091
:100EE00070BD4163704781637047C163704701649F
:100EF00070470A460021018B4FF68F73194011434A
:100F0000018370470A460021018B48F6FF731940A0
:100F10004FF6FF7303EA02231943018370470A4621
:100F20000021818B4FF68F731940114381837047E5
:100F30000A460021818B48F6FF7319404FF6FF7374
:100F400003EA02231943818370470A460021018B7B
:100F50004FF6F77319401143018370470A46002189
:100F6000018B4FF2FF7319404FF6FF7303EA022320
:100F70001943018370470A460021818B4FF6F773AE
:100F800019401143818370470A460021818B4FF23B
:100F9000FF7319404FF6FF7303EA0223194381835D
:100FA00070470A460021018B4FF6FB73194011432D
:100FB000018370470A460021018B4FF6FF33194029
:100FC0004FF6FF7303EA02231943018370470A4671
:100FD0000021818B4FF6FB731940114381837047C9
:100FE0000A460021818B4FF6FF3319404FF6FF73FD
:100FF00003EA02231943818370470A460021018BCB
:101000004FF67F7319401143018370470A46002150
:10101000018BC1F30E014FF6FF7303EA022319435C
:10102000018370470A460021818B4FF67F73194078
:101030001143818370470A460021818BC1F30E0161
:101040004FF6FF7303EA02231943818370470A4670
:101050000021018C4FF6FD73194011430184704744
:101060000A460021018C4FF6F773194011430184A1
:1010700070470A460021018C4FF6DF7319404FF686
:10108000FF7303EA02131943018470470A460021E3
:10109000018C4FF67F7319404FF6FF7303EA02137A
:1010A0001943018470470A460021018C4FF6FF5313
:1010B00019404FF6FF7303EA022319430184704776
:1010C0000A460021018C4FF2FF7319404FF6FF735F
:1010D00003EA02231943018470470A460021018C68
:1010E0004DF6FF7319404FF6FF7303EA02331943BD
:1010F0000184704730B5002301248C40A3B2048CD6
:101100009C430484048C02FA01F5ADB22C430484A0
:1011100030BD30B5002304248C40A3B2048C9C4322
:101120000484048C02FA01F5ADB22C43048430BD72
:10113000828B4FF2FF331A408283828B4FF6FF730C
:1011400003EA01231A4382837047F0B50C46154623
:10115000002100220026078C4EF6FF7C07EA0C07D0
:101160000784818B028C4FF6FF7707EA043640F63E
:10117000FF4739404FF6FF7707EA052739434FF617
:10118000FF7707EA0337394345F6FF773A4046F4DD
:1011900080573A4381830284F0BD828B4FF6F3730C
:1011A0001A408283828B0A4382837047F0B50C46D3
:1011B0001546002100220026078C4FF6FF6C07EA37
:1011C0000C070784818B028C4FF6FF7707EA042611
:1011D0004FF60C7739404FF6FF7707EA03172F4396
:1011E00039434FF2FF573A4046F480773A438183C0
:1011F0000284F0BD028B4FF2FF331A400283028B50
:101200004FF6FF7303EA01231A4302837047F0B5D8
:101210000C461546002100220026078C4FF6EF7C75
:1012200007EA0C070784018B028C4FF6FF7707EA69
:10123000041640F6FF4739404FF6FF7707EA0337B9
:1012400039434FF6FF7703E00000014000040140FE
:1012500007EA052739434FF65F773A4046F0100713
:101260003A4301830284F0BD028B4FF6F3731A40B8
:101270000283028B0A4302837047F0B50C46154681
:1012800000210022068C4FF6FE773E400684018B3B
:10129000028C4FF60C7631407E1C06EA03162E4374
:1012A00031434FF6F576324044F001063243018374
:1012B0000284F0BD70B505460C46208850B92389DC
:1012C000A28861882846FFF7D8FFE1882846FFF703
:1012D000CBFF25E0208804280AD12389A2886188D1
:1012E0002846FFF794FFE1882846FFF783FF17E0C1
:1012F000208808280AD12389A28861882846FFF718
:1013000055FFE1882846FFF748FF09E02389A288B6
:1013100061882846FFF719FFE1882846FFF708FF94
:1013200070BD002101804180012181800021C180A8
:10133000018170472DE9F04105460C460026012742
:10134000608808B9022600E00026A088012801D1A3
:10135000022700E001272088A0B92389A28861889C
:101360002846FFF78AFFE1882846FFF77DFF23899B
:101370003A4631462846FFF74AFFE1882846FFF7FC
:1013800039FF13E02389A28861882846FFF73FFFD1
:10139000E1882846FFF72EFF23893A463146284642
:1013A000FFF76BFFE1882846FFF75EFFBDE8F0819D
:1013B0000146486B70470146886B70470146C86B11
:1013C00070470146086C70470A884B881A438B881F
:1013D0001A43CB881A430B891A434B891A438B89CA
:1013E0001A43A0F844207047002101804180818089
:1013F000C180018141818181704731B1B0F84420C1
:1014000042F40042A0F8442005E0B0F84420C2F3C2
:101410000E02A0F84420704721B1828842F00402F5
:10142000828004E082884FF6FB731A408280704706
:1014300021B1828842F00102828004E082884FF666
:10144000FE731A40828070471AB183890B438381EF
:1014500002E083898B438381704781827047024613
:101460000020138A0B400BB1012000E000207047E0
:10147000CA430282704730B5024600200023002490
:10148000158A05EA0103958905EA010413B10CB137
:10149000012000E0002030BDCA430282704741EACB
:1014A0000203A0F8483070471AB183890B43838147
:1014B00002E083898B438381704721B1828842F0A7
:1014C0000802828004E082884FF6F7731A40828017
:1014D000704701894FF6F8721140018170470A4642
:1014E000002101894FF68F73194011430181704724
:1014F00030B504460D4629462046FFF7F0FF208907
:1015000040F00700208130BD2DE9F04104460D4632
:1015100016461F46602D06D13B4601223146204625
:10152000FFF775FE05E03B46012231462046FFF7F6
:10153000A4FE29462046FFF7D2FF208940F007008D
:101540002081BDE8F08130B50C4600210189C9B287
:101550004FF6FF7505EA032515432543294301810D
:1015600030BD2DE9F04105460E4617469846002449
:1015700043463A4631462846FFF7E5FF2C894FF6A9
:10158000F870044044F007044FF68F70044044F0B4
:1015900070042C81BDE8F081F0B504460D46164676
:1015A0001F463B46324629462046FFF7CCFF20899E
:1015B00040F480402081F0BD82884FF68F731A403E
:1015C000828082880A438280704702894FF6F873CE
:1015D0001A40028102890A430281704702894FF64C
:1015E0007F731A40028102890A4302817047F0B575
:1015F0000C4615461E460021002200230189028B5D
:10160000038C4FF6F877394021434FF6FC473A40B8
:1016100040F201173A434FF6DD773B404FF6FF7734
:1016200007EA06172F433B43018102830384F0BD81
:1016300021B1828842F08002828004E082884FF6E5
:101640007F731A4082807047A0F8501070470000E6
:1016500010B501210802FFF704F900214FF4807052
:10166000FFF7FFF810BD30B5024600200023506898
:10167000F84C20400D790C6844EA05242043506062
:101680009068F54C2040D1E903542C438D682C43DD
:101690004D7944EA450420439060D06A20F47000FC
:1016A0000C7D641EE4B2234340EA0350D06230BD97
:1016B00000210160017141718160C16001610121FE
:1016C000017570470021E54A1168E54A1140D0E9EB
:1016D00000231A4383681A43C3681A431143E14A3B
:1016E000C2F8041370470021016041608160C1604D
:1016F000704721B1826842F00102826003E0826893
:1017000022F00102826070470A4600214168D64BF0
:1017100019401143416070474162826270470A4636
:101720000021416821F01F0111434160704738B129
:10173000CA49096841F40001CA4AC2F8041306E024
:10174000C649096821F40001C64AC2F8041370476B
:1017500038B1C249096841F48001C24AC2F8041391
:1017600006E0BE49096821F48001BE4AC2F80413AC
:101770007047F0B504460D4600200021092D11DD0B
:10178000E068A5F10A0606EB4607072606FA07F108
:101790008843A5F10A0606EB460603FA06F108435C
:1017A000E0600CE0206905EB4507072606FA07F123
:1017B000884305EB450603FA06F108432061072A32
:1017C0000FDA606B561E06EB86071F2606FA07F136
:1017D0008843561E06EB860605FA06F10843606349
:1017E00022E00D2A0FDA206BD61F06EB86071F2694
:1017F00006FA07F18843D61F06EB860605FA06F1BE
:101800000843206310E0E06AA2F10D0606EB8607AC
:101810001F2606FA07F18843A2F10D0606EB86069D
:1018200005FA06F10843E062F0BD816841F08041AD
:1018300081607047014600208A6802F080420AB148
:10184000012000E00020704721B1826842F48062EC
:10185000826003E0826822F480628260704721B176
:10186000826842F00202826003E0826822F0020293
:101870008260704710B50A4600210023416821F4B8
:101880006041531E41EA4331416010BD21B14268BD
:1018900042F40062426003E0426822F40062426067
:1018A00070470146C86C80B270476C48001D0068E4
:1018B000704721B1826842F48072826003E08268DE
:1018C00022F480728260704721B1826842F4007213
:1018D000826003E0826822F400728260704738B14F
:1018E0005E49096841F400515E4AC2F8041306E0FB
:1018F0005A49096821F400515A4AC2F80413704742
:10190000F0B504461546002000220026092911DD05
:10191000E068A1F10A0707EB470C072707FA0CF26A
:101920009043A1F10A0707EB470703FA07F21043B8
:10193000E0600CE0206901EB410C072707FA0CF28C
:10194000904301EB410703FA07F210432061A06BBB
:10195000C0F30156EF1C06F1010CA7EB0C0707EBD7
:10196000870C1F2707FA0CF29043EF1C06F1010CBD
:10197000A7EB0C0707EB870701FA07F21043A063F8
:10198000F0BD10B50A4600210023816B21F44011FF
:10199000531E41EA0351816310BD08B50023009333
:1019A0000090009B0B440093009B1A6008BD0A4600
:1019B0000021816821F470211143816070470A463B
:1019C0000021816821F440111143816070478168D2
:1019D00041F4800181607047014600208A6802F46A
:1019E00080020AB1012000E00020704721B1426866
:1019F00042F48062426003E0426822F48062426006
:101A0000704721B1426842F48052426003E042686C
:101A100022F480524260704708B5024600200090D0
:101A2000009201F12800009B184400900098006883
:101A300080B208BD10B50B460021D9B2012404FACA
:101A400001F11AB144680C43446002E044688C43DD
:101A5000446010BDFFFEFFFCFDF7FFC00423014002
:101A6000E030FCFF00200140FFFD3FFF0246002068
:101A700013680B400BB1012000E000207047CA43FF
:101A80000260704770B502460020002300240B124C
:101A9000556801268E4005EA060415681D4015B1FB
:101AA0000CB1012000E0002070BD00220A12D343D7
:101AB00003607047016821F00101016000210160AD
:101AC00041608160C160016121214161DB4988423F
:101AD00004D13D21D94A103A91608CE0D7491831A0
:101AE000884205D14FF47461D44A103A916082E083
:101AF000D2493031884205D14FF47411CF4A103A9F
:101B0000916078E0CD494831884205D14FF0746149
:101B1000CA4A103A91606EE0C8496031884204D1E7
:101B2000C749C64A103AD16065E0C4497831884255
:101B300004D1C449C14A103AD1605CE0BF49903138
:101B4000884204D1C049BD4A103AD16053E0BB4934
:101B5000A831884205D14FF03D51B84A103AD160C2
:101B600049E0BA49884204D13D21B84A083A116097
:101B700041E0B6491831884205D14FF47461B34A47
:101B8000083A116037E0B1493031884205D14FF44D
:101B90007411AE4A083A11602DE0AC4948318842D0
:101BA00005D14FF07461A94A083A116023E0A749B2
:101BB0006031884204D1A249A44A121F11601AE080
:101BC000A2497831884204D19E49A04A121F11606F
:101BD00011E09E499031884204D19B499B4A121FD3
:101BE000116008E09949A831884204D14FF03D5175
:101BF000964A121F1160704710B500220268944B7C
:101C00001A40CC680B6823434C6923438C692343F7
:101C1000CC6923430C6A23434C6A23438C6A2343D5
:101C20004C6B23438C6B23431A430260426922F0BE
:101C30000702D1E90B3423431A4342610B69436025
:101C40004B6883608B68C36010BD002101604160F8
:101C50008160C160016141618161C1610162416274
:101C60008162C162016341638163704721B102688F
:101C700042F00102026003E0026822F00102026009
:101C8000704721B1026842F40042026003E002683A
:101C900022F400420260704721B1026842F0200243
:101CA000026003E0026822F0200202607047416097
:101CB00070470146486880B2704722B1036843F418
:101CC0000023036003E0036823F400230360016141
:101CD000704721B1026842F48022026003E002688A
:101CE00022F48022026070470AB1016100E0C16005
:101CF0007047014600200A6802F400220AB1012060
:101D000000E000207047014600200A6802F001024E
:101D10000AB1012000E000207047014600204A6916
:101D200002F03800704730B503460A460020002410
:101D3000464DAB4202D24149103901E043491039C6
:101D400002F000550DB14C6800E00C68414D2C408C
:101D500004EA02050DB1012000E0002030BD02467A
:101D60003A4B9A4202D23548103801E037481038D1
:101D700001F000531BB1374B0B40C36002E0354B01
:101D80000B408360704710B501F080034BB122B166
:101D9000436943F08003436103E0436923F0800318
:101DA000436180290BD02AB1036801F01E0423434C
:101DB000036004E0036801F01E04A343036010BD48
:101DC00070B50246002000240025204EB24202D207
:101DD0001A4B103B01E01D4B103B1F4E0E4036B11D
:101DE0001E2606EAD124166806EA040502E05669B2
:101DF00006F0800501F000560EB15C6800E01C683A
:101E0000144E344004EA010616B10DB1012000E081
:101E1000002070BD02460D4B9A4202D2074810388E
:101E200001E00A48103801F000531BB1094B0B4088
:101E3000C36002E0074B0B408360704710600240B4
:101E40003D000020400F002000003D2010640240B3
:101E50003F801CF07D0F7D0F3C0F3C0F10B50446FA
:101E6000FA48844208D101211020FEF7FAFC002133
:101E70001020FEF7F6FC57E0F548844209D1012115
:101E80004804FEF7DDFC00214FF40030FEF7D8FCDB
:101E90004AE0F048844209D101218804FEF7D0FCD1
:101EA00000214FF48020FEF7CBFC3DE0EA4884425D
:101EB00009D10121C804FEF7C3FC00214FF4002022
:101EC000FEF7BEFC30E0E548844209D10121080557
:101ED000FEF7B6FC00214FF48010FEF7B1FC23E0C2
:101EE000DF48844208D101212020FEF7BAFC0021FE
:101EF0002020FEF7B6FC17E0DA48844209D1012120
:101F00008807FEF79DFC00214FF08040FEF798FC0B
:101F10000AE0D548844207D101214005FEF790FC34
:101F200000216005FEF78CFC10BD2DE9FF4705463A
:101F30000E460024A14600BFA046B08900B100BFF4
:101F40002C8A24F44054F08804432C82AC8941F25A
:101F50000C608443B0883189084371890843044385
:101F6000AC81AC8A24F44074B0890443AC826846E6
:101F7000FEF7F7FAB548854202D0B948854202D14A
:101F8000DDF80C9001E0DDF80890A88900F400402D
:101F900040B109EBC90000EB091031684900B0FB02
:101FA000F1F707E009EBC90000EB0910316889007F
:101FB000B0FBF1F76420B7FBF0F0040120096421C5
:101FC00001FB1078A88900F4004040B1322000EBFA
:101FD000C800B0FBF1F000F00700044308E0322035
:101FE00000EB08106421B0FBF1F000F00F00044397
:101FF0002C81BDE8FF874FF41651016000218180DC
:10200000C18001810C21418100218181704710B57F
:1020100002460020108A20F470600B884C8823430D
:102020008C882343CC8823431843108210BD0021A1
:10203000018041808180C180704721B1828942F452
:102040000052828104E082894DF6FF731A4082813A
:102050007047028B02F47F420283028B0A430283A1
:10206000704721B1828942F40042828103E0828973
:10207000C2F30E028281704721B1828A42F400626B
:10208000828204E0828A4FF2FF731A408282704794
:10209000C1F308028280704701468888C0F30800B7
:1020A0007047028A4FF6F0731A400282028A0A438E
:1020B0000282704721B1828942F00202828104E0EB
:1020C00082894FF6FD731A408281704782894FF2F0
:1020D000FF731A40828182890A4382817047028A93
:1020E0004FF6DF731A400282028A0A430282704767
:1020F00021B1028A42F48042028204E0028A4BF655
:10210000FF731A4002827047818941F00101818189
:10211000704721B1828A42F00802828204E0828AFA
:102120004FF6F7731A4082827047028BD2B2028355
:10213000028B42EA01220283704721B1828A42F077
:102140002002828204E0828A4FF6DF731A40828284
:10215000704721B1828A42F01002828204E0828AB2
:102160004FF6EF731A4082827047828A4FF6FB73F4
:102170001A408282828A0A438282704721B1828A0F
:1021800042F00202828204E0828A4FF6FD731A4016
:10219000828270471AB1838A0B43838202E0838A6A
:1021A0008B4383827047F0B5034600240026002548
:1021B000002040F66A17B94200D100BF1846C1F3AB
:1021C000421401F01F06012707FA06F5012C01D180
:1021D0000C3004E0022C01D1103000E014301AB1B0
:1021E00007682F43076002E00768AF430760F0BD50
:1021F00002460020B1F5007F00D100BF13880B40DC
:102200000BB1012000E00020704701F40072B2F52C
:10221000007F00D100BFCA430280704770B50246FC
:10222000002400230025002040F66A16B14200D1A8
:1022300000BFC1F3421501F01F03012606FA03F3A4
:10224000012D13D19689334017E0000000100140A2
:102250000044004000480040004C00400050004056
:102260000014014000780040007C0040022D02D1A3
:10227000168A334001E0968A33400C12012606FA92
:1022800004F41688344013B10CB1012000E00020A2
:1022900070BD10B50022002340F66A14A14200D19F
:1022A00000BF0A1201249440A3B2DC43048010BD95
:1022B00010B58B480068401C89490860894800684F
:1022C00020B188480068401E86490860AFF300804E
:1022D000002438E0844850F8240090B3824850F835
:1022E0002400007B68B3804850F82400806840B325
:1022F0007D4850F824008068401E7B4951F8241026
:102300008860794850F824008068D0B9764A52F83D
:1023100024205069744A52F8242011698847724871
:1023200050F824000168704850F8240081606E481D
:1023300050F82400406820B900216B4850F8240070
:102340000173601CC4B26848001F0078A042C1DC61
:1023500010BD30B5654800684FF47A72B0FBF2F1F9
:10236000481EB0F1807F01D301201BE0481E4FF0D2
:10237000E022506150170F22002807DA13071D0EC4
:102380005B4B00F00F04241F1D5503E013071C0EC8
:10239000584B1C5400BF00204FF0E02290610720F2
:1023A0001061002008B100BFFEE7504800685249A4
:1023B000B0FBF1F05149086001205149087030BD6F
:1023C0004F48007800B970474FF0E020006940F0B6
:1023D00002004FF0E021086100BFF4E74FF0E02079
:1023E000006920F002004FF0E021086170472DE9FC
:1023F000F04705460E4617469846DDF820903A48C5
:10240000001F0078052802DB0020BDE8F0871820B7
:1024100002F076FE04460CB90020F6E7256020683D
:10242000A06066602773C4F81080C4F814902E482A
:10243000001F01780078401C2B4A121F1070101DDD
:1024400040F821402046E0E72DE9F041064600240F
:1024500007E0254850F82400B04200D106E0601C97
:10246000C4B22148001F0078A042F2DC00BF1E4821
:10247000001F0078A04201D1BDE8F0811A4850F851
:10248000247000BFEFF31080054672B607E01648CF
:10249000611C50F8211040F82410601CC4B212488E
:1024A000001F0078401EA042F1DC0F48001F00789A
:1024B000401E0D49091F087005B962B6384602F082
:1024C0004EFE00BFD8E70021017370470121017360
:1024D00070470168816070474160704701607047D4
:1024E0001400002018000020F8000020B400002094
:1024F00018ED00E000E400E0C0C62D001C00002044
:10250000200000201CB5032000210B460122CDE94C
:1025100000104FF470411E4801F076F94FF47040FE
:102520001B491A3108801CBD1CB50020022103463E
:102530000246CDE900100121164801F065F91CBDE5
:102540001448006900F0010080F0010030B9124821
:10255000007830B9012010490870704700200E49FA
:1025600008700020F9E70B48006900F0010080F0D6
:10257000010038B10848007838B1002006490870D9
:10258000012070470120044908700020F9E700008D
:10259000000C024000000240210000207FB50446EC
:1025A0000D466846FDF7DDFF4FF6FF70A860B4F1F9
:1025B000804F02D0E448844207D1039828604FF04E
:1025C000FF306860002004B070BDE04884420BD04A
:1025D000DF48844208D0DF48844205D0DE48844288
:1025E00002D0DE48844206D1019828604FF6FF7081
:1025F00068600020E7E7DA48844211D0D948844275
:102600000ED0D94884420BD0D848844208D0D8484C
:10261000844205D0D748844202D0D748844206D1AC
:10262000039828604FF6FF7068600020CBE7022017
:10263000C9E710B52DED068B0446B0EE408AF0EEEA
:10264000608A206803F09BF841EC190B53EC182BBF
:1026500003F0A8F807D200202061E0606061032049
:10266000BDEC068B10BD9FEDC50B53EC102B51EC50
:10267000180B03F01BF805D100202061E0606061B9
:102680000420EDE76068B0F5803F02D26068401C2E
:1026900060600020206100BF2069401C2168B1FB00
:1026A000F0F0E060E06803F06AF841EC1A0B53ECDC
:1026B000182B02F0A3FE41EC190B03F033F8E06095
:1026C0002069401C20616168E068884204D9A068E4
:1026D000401C21698142DFD9A068401C21698142E8
:1026E00005D900202061E06060610420B8E751EC6A
:1026F000180B03F017F860610020B1E7014693481A
:10270000814205D19F48006840F001009D4A106059
:10271000B1F1804F07D19B48001F006840F00100D5
:10272000984A121F10608E48814207D19548001FB9
:10273000006840F00200934A121F106089488142ED
:1027400007D19048001F006840F004008D4A121F16
:1027500010607D48814207D18A48001F006840F020
:102760000800884A121F10607F48814207D18548BF
:10277000001F006840F01000824A121F10607B4862
:10278000814207D17F48001F006840F020007D4A49
:10279000121F10606E48814205D17A48006840F0EF
:1027A0000200784A10606B48814205D17548006884
:1027B00040F48030734A10606748814205D1714807
:1027C000006840F400306F4A10606448814205D1CF
:1027D0006C48006840F480206A4A10606448814276
:1027E00007D16848001F006840F04000654A121F8A
:1027F00010606048814207D16248001F006840F0C5
:102800008000604A121F10605B48814207D15D481A
:10281000001F006840F480705A4A121F10600020A8
:10282000704701464948814205D15648006820F06A
:102830000100544A1060B1F1804F07D15148001F88
:10284000006820F001004F4A121F10604448814286
:1028500007D14C48001F006820F00200494A121FAF
:1028600010604048814207D14648001F006820F0B0
:102870000400444A121F10603348814207D1414886
:10288000001F006820F008003E4A121F1060364802
:10289000814207D13B48001F006820F01000394AF0
:1028A000121F10603148814207D13648001F00686E
:1028B00020F02000334A121F10602548814205D1C4
:1028C0003048006820F002002E4A10602148814202
:1028D00005D12C48006820F480302A4A10601E4838
:1028E000814205D12748006820F40030254A106055
:1028F0001A48814205D12348006820F48020214AEB
:1029000010601B48814207D11E48001F006820F05C
:1029100040001C4A121F10601648814207D1194816
:10292000001F006820F08000164A121F1060124835
:10293000814207D11348001F006820F48070114ABB
:10294000121F106000207047000C00400000014082
:1029500000040140004001400044014000480140A3
:102960000004004000080040001000400014004037
:1029700000180040001C0040002000400000000043
:10298000000000004438024030B52DED048B89B0C2
:1029900004460D46B0EE408AF0EE608AF748844265
:1029A00002D0F748844204D1042009B0BDEC048B66
:1029B00030BD2C6069462046FFF7F0FD009802F01C
:1029C000DEFE41EC190B53EC182B02F0EBFE01D2AA
:1029D0000120EAE79FEDEB0B53EC102B51EC180BA9
:1029E00002F064FE01D10220DFE7B0EE480AF0EE0B
:1029F000680A6846FFF71DFE039808B90120D4E76E
:102A000051EC180B02F08EFEE86053EC182B9FED92
:102A1000DF0B51EC100B02F0F1FC41EC190B02F052
:102A200081FE2861039868600498A8602046FFF73B
:102A300065FE0498401E80B2ADF818000020ADF885
:102A40001A000398401E07900020ADF820008DF872
:102A5000220006A92046FEF756F801212046FEF77F
:102A6000BDF8CC48844202D0CB48844203D1012136
:102A70002046FEF7C2FC208840F0010020800020A4
:102A800085F8240000BF90E77CB504460D46062675
:102A900004BB15B1012D19D10BE00920032100233E
:102AA0001A46CDE900108021BC4800F0C5FE002682
:102AB0000EE00920032100231A46CDE900104FF44F
:102AC0000071B74800F0B8FE002601E0062600BFFE
:102AD00000BF01E0052600BF00BF30467CBD7CB5CD
:102AE00004460D46062604BB15B1012D19D10BE095
:102AF0000920032100231A46CDE900100221A7482E
:102B000000F09AFE00260EE00920032100231A4659
:102B1000CDE900104FF48071A14800F08DFE002631
:102B200001E0062600BF00BF01E0052600BF00BF90
:102B300030467CBD7CB505460C46062615B1012DF8
:102B400043D120E014B1012C19D10CE0092003215C
:102B500000231A46CDE900104FF48041914800F05F
:102B60006BFE00260DE00920032100231A46CDE963
:102B7000001040218C4800F05FFE002601E0062690
:102B800000BF00BF23E014B1012C1AD10CE00920D2
:102B9000032100231A46CDE900104FF4004181487B
:102BA00000F04AFE00260EE00920032100231A4609
:102BB000CDE900104FF400717B4800F03DFE002687
:102BC00001E0062600BF00BF01E0052600BF00BFF0
:102BD00030467CBD7CB504460D460626F4B915B1D9
:102BE000012D17D10BE00320009000231A464FF46B
:102BF000007101906B4800F01FFE00260CE00320DE
:102C0000009000231A4680210190654800F014FED0
:102C1000002601E0062600BF00BF01E0052600BF38
:102C200000BF30467CBD7CB504460D460626F4B98F
:102C300015B1012D17D10BE00320009000231A4697
:102C40004FF480710190574800F0F6FD00260CE02B
:102C50000320009000231A4640210190504800F0C4
:102C6000EBFD002601E0062600BF00BF01E00526BF
:102C700000BF00BF30467CBD7CB505460C4606262D
:102C800015B1012D3CD11DE014B1012C16D10AE083
:102C90000320009000231A46042101903F4800F0D1
:102CA000CBFD00260CE00320009000231A462021D3
:102CB00001903E4800F0C0FD002601E0062600BF5E
:102CC00000BF1FE014B1012C16D10AE003200090D0
:102CD00000231A4608210190304800F0ADFD00267F
:102CE0000CE00320009000231A46402101902F4859
:102CF00000F0A2FD002601E0062600BF00BF01E0B3
:102D0000052600BF00BF30467CBD7CB505460C469D
:102D1000062635B1012D22D0022D5CD0032D75D1B0
:102D200079E014B1012C16D10AE0032000900023B1
:102D30001A46402101901E4800F07EFD00260CE05E
:102D40000320009000231A4620210190194800F02A
:102D500073FD002601E0062600BF00BF7DE014B130
:102D6000012C34D128E00320009000231A46802152
:102D700001900F4800F060FD00262AE0001000409E
:102D800000140040000000000000000000000000EF
:102D900080842E41000001400004014000000240F8
:102DA0000014024000040240001C024000100240D7
:102DB00000080240002002400320009000231A4631
:102DC00040210190FB4800F037FD002601E0062677
:102DD00000BF00BF41E014B1012C18D10BE003206B
:102DE000009000231A464FF480710190F24800F0E1
:102DF00023FD00260DE00320009000231A468021C9
:102E00000190EC4800F018FD002602E023E00626C1
:102E100000BF00BF21E014B1012C18D10BE003204A
:102E2000009000231A464FF400710190E24800F030
:102E300003FD00260DE00320009000231A464FF406
:102E400080710190DB4800F0F7FC002601E00626C7
:102E500000BF00BF01E0052600BF00BF30467CBDBB
:102E60007CB505460C46062635B1012D24D0022D31
:102E700042D0032D70D15FE014B1012C18D10BE0CA
:102E80000220032100231A46CDE900100121CB487E
:102E900000F0D2FC00260DE00220032100231A4698
:102EA000CDE900104102C64800F0C6FC002601E052
:102EB000062600BF00BF62E014B1012C18D10BE060
:102EC0000220032100231A46CDE900100146BB4829
:102ED00000F0B2FC00260DE00220032100231A4678
:102EE000CDE900108102B64800F0A6FC002601E002
:102EF000062600BF00BF42E014B1012C18D10BE040
:102F00000220032100231A46CDE900100421AB481A
:102F100000F092FC00260DE00220032100231A4657
:102F2000CDE90010C102A64800F086FC002601E0B1
:102F3000062600BF00BF22E014B1012C19D10CE01D
:102F40000220032100231A46CDE9001008219B48E6
:102F500000F072FC00260EE00FE0022003210023A7
:102F60001A46CDE900100121924800F065FC0026C8
:102F700001E0062600BF00BF01E0052600BF00BF3C
:102F800030467CBD7CB505460C46062635B1012D84
:102F900024D0022D42D0032D70D15FE014B1012C5A
:102FA00018D10BE00220032100231A46CDE90010BE
:102FB0004021844800F040FC00260DE0022003215F
:102FC00000231A46CDE90010C1027F4800F034FC0E
:102FD000002601E0062600BF00BF62E014B1012C0C
:102FE00018D10BE00220032100231A46CDE900107E
:102FF0008021744800F020FC00260DE0022003210F
:1030000000231A46CDE9001001036F4800F014FCBC
:10301000002601E0062600BF00BF42E014B1012CEB
:1030200018D10BE00220032100231A46CDE900103D
:10303000C101644800F000FC00260DE002200321DD
:1030400000231A46CDE9001041035F4800F0F4FB6D
:10305000002601E0062600BF00BF22E014B1012CCB
:1030600019D10CE00220032100231A46CDE90010FB
:103070000102544800F0E0FB00260EE00FE00220C1
:10308000032100231A46CDE9001081034E4800F0C9
:10309000D3FB002601E0062600BF00BF01E00526A5
:1030A00000BF00BF30467CBD7CB505460C460626F9
:1030B00035B1012D32D0022D5ED0032D78D189E0BB
:1030C00024B1012C0ED0022C24D117E002200321C0
:1030D00000231A46CDE900104021384800F0ACFB2F
:1030E000002619E00220032100231A46CDE9001032
:1030F0001021344800F0A0FB00260DE0022003213F
:1031000000231A46CDE9001041022B4800F094FB41
:10311000002601E0062600BF00BF7DE024B1012C9F
:103120000ED0022C24D117E00220032100231A46DE
:10313000CDE900108021214800F07EFB002619E037
:103140000220032100231A46CDE9001020211D484A
:1031500000F072FB00260DE00220032100231A4636
:10316000CDE900108021144800F066FB002601E044
:10317000062600BF00BF4FE014B1012C26D10BE0A2
:103180000220032100231A46CDE9001001210D4839
:1031900000F052FB00261BE00220032100231A4608
:1031A000CDE90010C101044800F046FB00260FE005
:1031B00030E0000000200240000802400000024011
:1031C000001C024000040240000C0240062600BF22
:1031D00000BF21E014B1012C18D10BE00220032123
:1031E00000231A46CDE900100146FB4800F024FBFD
:1031F00000260DE00220032100231A46CDE900102D
:103200000102F64800F018FB002601E0062600BF88
:1032100000BF01E0052600BF00BF30467CBD7CB585
:1032200005460C46062635B1012D32D0022D50D070
:10323000032D6ED16EE024B1012C0ED0022C24D1CE
:1032400017E00120032100231A46CDE900100146B2
:10325000E34800F0F1FA002619E0012003210023E1
:103260001A46CDE900102021DD4800F0E5FA0026DD
:103270000DE00120032100231A46CDE90010C1030F
:10328000D74800F0D9FA002601E0062600BF00BFAB
:1032900062E014B1012C18D10BE0012003210023BE
:1032A0001A46CDE900100221CD4800F0C5FA0026EB
:1032B0000DE00120032100231A46CDE9001008216A
:1032C000C54800F0B9FA002601E0062600BF00BF9D
:1032D00042E014B1012C18D10BE00120032100239E
:1032E0001A46CDE900100421BD4800F0A5FA0026D9
:1032F0000DE00120032100231A46CDE900108102D0
:10330000B54800F099FA002601E0062600BF00BF8C
:1033100022E01FE014B1012C18D10BE001200321A1
:1033200000231A46CDE900100821AD4800F084FAC8
:1033300000260DE00120032100231A46CDE90010EC
:10334000C102A54800F078FA002601E0062600BF79
:1033500000BF01E0052600BF00BF30467CBD7CB544
:1033600005460C46062635B1012D24D0022D42D04B
:10337000032D70D15FE014B1012C18D10BE00120B6
:10338000032100231A46CDE900100102944800F001
:1033900053FA00260DE00120032100231A46CDE94F
:1033A000001041028F4800F047FA002601E006268F
:1033B00000BF00BF62E014B1012C18D10BE0012066
:1033C000032100231A46CDE900104102844800F091
:1033D00033FA00260DE00120032100231A46CDE92F
:1033E000001081027F4800F027FA002601E006263F
:1033F00000BF00BF42E014B1012C18D10BE0012046
:10340000032100231A46CDE900108102744800F020
:1034100013FA00260DE00120032100231A46CDE90E
:10342000001041036F4800F007FA002601E006266D
:1034300000BF00BF22E014B1012C19D10CE0012023
:10344000032100231A46CDE90010C102644800F0B0
:10345000F3F900260EE00FE00120032100231A46B5
:10346000CDE9001081035F4800F0E6F9002601E095
:10347000062600BF00BF01E0052600BF00BF3046A2
:103480007CBD70B504460D461646574920688842F3
:1034900004D131462846FFF762FF70BD2068B0F1C5
:1034A000804F04D131462846FFF7B9FEF5E74F4972
:1034B0002068884204D131462846FFF7F5FDECE745
:1034C0004B492068884204D131462846FFF75AFD0F
:1034D000E3E748492068884204D131462846FFF78F
:1034E000BFFCDAE744492068884204D131462846C7
:1034F000FFF70BFCD1E741492068884204D13146EF
:103500002846FFF7B9FBC8E73D492068884204D147
:1035100031462846FFF787FBBFE73A4920688842D3
:1035200004D131462846FFF755FBB6E736492068F7
:10353000884204D131462846FFF7FCFAADE733490B
:103540002068884204D131462846FFF7C8FAA4E72C
:103550002F492068884204D131462846FFF794FA63
:103560009BE7042099E7F0B585B004460F46164660
:103570003D466068B04202D8032005B0F0BD029617
:103580007020ADF800000120ADF802000220ADF877
:103590000C0004F1140040F825600120A840C5B2D9
:1035A00037B1012F36D0022F48D0032F6ED159E00A
:1035B00094F82400284060B994F82400284384F843
:1035C000240069462068FDF733FB08212068FDF7D9
:1035D000BCFC206846635AE0000402400008024038
:1035E00000000240001002400000014000040040C2
:1035F00000080040000C0040000401400040014071
:10360000004401400048014000180040001C0040F8
:103610000020004094F82400284060B994F8240069
:10362000284384F8240069462068FDF73AFB082106
:103630002068FDF793FC2068866328E094F8240056
:10364000284060B994F82400284384F8240069468F
:103650002068FDF773FB08212068FDF78CFC2068CB
:10366000C66314E094F82400284060B994F824005C
:10367000284384F8240069462068FDF7C5FB08212B
:103680002068FDF781FC2068066400E000BF00BFF1
:10369000002072E770B52DED028B04460D46B0EEAA
:1036A000408A9FED230AB4EEC08AF1EE10FA07DDDE
:1036B000294620466268FFF756FFBDEC028B70BDBD
:1036C000B5EEC08AF1EE10FA05D800222946204650
:1036D000FFF749FFF1E76068401E00EE100AB8EE00
:1036E000400A20EE080ABCEEC00A10EE100A64215F
:1036F000B0FBF1F6324629462046FFF734FFDCE7FF
:103700002DE9F04104460E4615462069A84202D232
:103710000320BDE8F0816068401E68432169B0FB6A
:10372000F1F73A4631462046FFF71DFFF1E700006A
:103730000000C84201464FF40030081AC0F38F2041
:1037400070472DE9F04304460E461546DDE907892A
:103750002046FFF7EFFFC7B2002243E00120904070
:10376000304000B93CE0B14830F8170001219140E9
:103770000843AE4921F81700E0684FEA420C0321E4
:1037800001FA0CF18843510008FA01F10843E060A6
:1037900020684FEA420C032101FA0CF188435100E2
:1037A00005FA01F108432060012D01D0022D16D148
:1037B00061680120904080B221EA000003FA02F122
:1037C00089B208436060A0684FEA420C032101FA05
:1037D0000CF18843510009FA01F10843A06000BFD1
:1037E000501CC2B2102AB9DBBDE8F08300B5024616
:1037F0001046FFF79FFF012101FA00F08C4909688C
:1038000008438B49086000BD2DE9FC4305460C4682
:1038100016461F46DDE909890CB9BDE8FC83284638
:10382000FFF7E4FF3B46324621462846CDE90089B2
:10383000FFF787FF00BFF0E72DE9FC4705460E467E
:1038400017469846DDE90A9A0EB9BDE8FC87284676
:10385000FFF7CCFF00241AE00120A040304000B95F
:1038600014E0E10805F1200050F821006107CA0EBC
:103870000F21914088436107C90E0AFA01F10843FC
:10388000E20805F1200141F8220000BF641C102C61
:10389000E2D33B46022231462846CDE90089FFF7B4
:1038A00050FF00BFD1E770B503460C461846FFF73E
:1038B00041FFC5B2002214E001209040204070B1C9
:1038C000186856000321B14008431860574830F883
:1038D0001500012191408843544921F81500501CDE
:1038E000C2B2102AE8DB70BD30B5024600200BE002
:1038F000012383400B402BB1136845000324AC40E7
:10390000A3431360431CD8B21028F1DB30BD30B59F
:10391000024600200FE0012383400B404BB11368A7
:1039200045000324AC40A34345000124AC4023439D
:103930001360431CD8B21028EDDB30BD30B5024611
:1039400000200BE0012383400B402BB1136845009E
:103950000324AC4023431360431CD8B21028F1DB8E
:1039600030BD30B50246002011E0012383400B40FA
:1039700003B90AE0136845000324AC40A3434500A3
:103980000224AC402343136000BF431CD8B210286C
:10399000EBDB30BD70B50346002011E0012484400C
:1039A0000C4004B90AE0DC6846000325B540AC438E
:1039B000450002FA05F52C43DC6000BF441CE0B270
:1039C0001028EBDB70BD41F48032C261C161C2617D
:1039D000C369C36970470146002002E0421C90B2EF
:1039E00049100129FADC704700B502461046FFF77E
:1039F000A1FE012181400E48006888430C490860FF
:103A000000BD00B502461046FFF794FE074931F8A5
:103A1000100000BD00B502461046FFF78BFE0349BB
:103A200031F81000C04380B200BD00000C0100203E
:103A30003038024010B58AB0044600208DF81500D9
:103A400008900790069001208DF8240000208DF842
:103A50001400E848844208D1E748006840F48070C8
:103A6000E54908600020049016E0E448844208D14B
:103A7000E148006840F40070DF49086000200490CD
:103A80000AE0DF48844207D1DB48006840F48060E8
:103A9000D9490860002004900020029000904FF463
:103AA000803001904FF4407003906846FDF70AFEA5
:103AB00004A92046FDF7D7FDA06840F00100A060F2
:103AC0000AB010BD7CB504460D460120022100233A
:103AD0000322CDE9001029462046FFF795FE7CBD64
:103AE00010B50446C348844202D0C448844204D17D
:103AF0002021C448FFF7E6FF06E0C148844203D115
:103B00002021C148FFF7DEFF10BD10B50446B948BB
:103B1000844202D0B948844203D11021B948FFF74A
:103B2000D1FFB748844203D11021B748FFF7CAFF3D
:103B300010BD10B504460821B248FFF7C3FF10BD01
:103B400010B504460421AF48FFF7BCFF10BD10B507
:103B500004460221AB48FFF7B5FF10BD10B504467F
:103B60000121A848FFF7AEFF10BD10B50446A148DB
:103B7000844202D0A148844203D10221A348FFF726
:103B8000A1FF9F48844203D108219F48FFF79AFF75
:103B900010BD10B504469748844202D0974884422D
:103BA00003D101219948FFF78DFF9548844203D145
:103BB00001159548FFF786FF10BD10B504468D48E6
:103BC000844202D08D48844203D180219048FFF77F
:103BD00079FF8B48844203D141158B48FFF772FF70
:103BE00010BD10B504468348844202D08348844205
:103BF00003D140218648FFF765FF8148844203D105
:103C000081158148FFF75EFF10BD10B50446794865
:103C1000844202D07948844203D120217C48FFF7B6
:103C200051FF7748844203D180217748FFF74AFF4C
:103C300010BD10B504466F48844202D06F488442DC
:103C400003D110217248FFF73DFF6D48844203D134
:103C500040216D48FFF736FF10BD10B5044608211E
:103C60006B48FFF72FFF10BD10B5044604216848CC
:103C7000FFF728FF10BD10B5044602216448FFF786
:103C800021FF10BD10B5044601216148FFF71AFF5E
:103C900010BD70B506460D462C461CB93046FFF7E0
:103CA000F1FF58E0012C03D13046FFF7E4FF52E06A
:103CB000022C03D13046FFF7D7FF4CE0032C03D191
:103CC0003046FFF7CAFF46E0042C03D13046FFF729
:103CD000B0FF40E0052C03D13046FFF796FF3AE0F5
:103CE000062C03D13046FFF77CFF34E0072C03D1CC
:103CF0003046FFF762FF2EE0082C03D13046FFF775
:103D000048FF28E0092C03D13046FFF72EFF22E0C0
:103D10000A2C03D13046FFF721FF1CE00B2C03D106
:103D20003046FFF714FF16E00C2C03D13046FFF7A6
:103D300007FF10E00D2C03D13046FFF7FAFE0AE032
:103D40000E2C03D13046FFF7E0FE04E00F2C02D129
:103D50003046FFF7C5FE3046FFF76CFE70BD70B50C
:103D600004460D4640F6FF7601231A4629462046B2
:103D7000FDF7FFFCA06840F08040A06004E0301E2A
:103D8000A6F1010600D170BD206800F002000028F5
:103D9000F5D0E06C80B2F6E71E48006840F4800081
:103DA0001449C1F8040370471A48006820F48000E1
:103DB0001049C1F80403704770B504460523012279
:103DC00012212046FDF7D5FCA06840F08040A0609D
:103DD00000BF206800F002000028FAD0E56C6800FF
:103DE00040F6E441484340F6FF71B0FBF1F5A8B25C
:103DF00070BD000000200140443802400021014015
:103E00000022014000080240001402400004024069
:103E100000000240042301400146FE4A914200D1C5
:103E20000020FD4A914200D10120FC4A914200D17C
:103E30000220FB4A914200D10420FA4A914200D16B
:103E40000520F94A914200D10620704770471CB501
:103E500004464CB90820032101230022CDE90010BB
:103E6000C021F248FFF7E8FC012C0AD10820032109
:103E700001230022CDE900104FF48441EC48FFF704
:103E8000DBFC032C03D10821E748FFF7DFFF1CBD53
:103E90001CB504469CB90820032101230022CDE96A
:103EA00000104102E148FFF7C7FC0820032101236D
:103EB0000022CDE900100421DE48FFF7BDFC032CF1
:103EC00003D10821D748FFF7C1FF1CBD1CB504462C
:103ED00044B90820032101230022CDE90010D6486F
:103EE000FFF7AAFC012C09D108200321012300229D
:103EF000CDE900108902CD48FFF79EFC032C03D1C9
:103F00000821C748FFF7A2FF1CBD1CB504464CB9E9
:103F10000720032101230022CDE900108902C748B0
:103F2000FFF78AFC012C09D107200321012300227D
:103F3000CDE900108902BD48FFF77EFC022C09D1B3
:103F40000720032101230022CDE900100902B9480E
:103F5000FFF772FC032C03D10721B048FFF776FF6F
:103F60001CBD1CB504464CB90720032101230022C7
:103F7000CDE900100C21B048FFF75EFC012C09D1FF
:103F80000720032101230022CDE900106021A94868
:103F9000FFF752FC032C03D107219F48FFF756FF80
:103FA0001CBD1CB504464CB9072003210123002287
:103FB000CDE900104902A048FFF73EFC012C09D1D1
:103FC0000720032101230022CDE90010C0219B48D6
:103FD000FFF732FC032C03D107218E48FFF736FF91
:103FE0001CBD01468B4A914200D195488A4A9142B4
:103FF00000D19448894A914200D19348884A91421D
:1040000000D19248874A914200D19148864A914214
:1040100000D1904870472DE9F04F87B004460D4617
:1040200016461F46DDE911ABDDF840902046FFF74C
:10403000D8FF80460396774884420BD186480068B3
:1040400040F01000844908602846FFF7AAFF2520A9
:104050008DF80800704884420DD17F48001F006829
:1040600040F400307C49091F08602846FFF779FFBB
:1040700026208DF80800694884420DD17648001F3B
:10408000006840F480207449091F08602846FFF743
:104090003CFF27208DF80800614884420DD16E480E
:1040A000001F006840F400206B49091F0860284683
:1040B000FFF70CFF34208DF808005A4884420DD1D8
:1040C0006548001F006840F480106349091F0860BC
:1040D0002846FFF7DDFE35208DF80800524884425F
:1040E0000BD15D48006840F020005B49086028461D
:1040F000FFF7ADFE47208DF808002046FDF7AEFE25
:1041000001208DF80B0006208DF809002046FFF7EE
:1041100083FE8DF80A0002A8FCF7AFF8ADF818701E
:104120001FFA89F0ADF816001FFA8AF0ADF81400F6
:104130001FFA8BF0ADF81200139880B2ADF81000A2
:10414000002088F80C0000BF40F6FF70019000BF0F
:104150000198411E01910028FAD100BF03A9204611
:10416000FDF7E3FEA08940F02000A081012088F83F
:104170000C00A08940F40050A08107B0BDE8F08F8A
:104180007FB504460D461646224884420BD10020D6
:104190000C23CDE9003002900346324629460390B5
:1041A0002046FFF738FF1C4884420BD100200C2327
:1041B000CDE900300290034632462946039020465E
:1041C000FFF729FF154884420BD100200C23CDE9CD
:1041D0000030029003463246294603902046FFF7FE
:1041E0001AFF0F4884420BD100200C23CDE9003088
:1041F000029003463246294603902046FFF70BFF04
:104200000848844230D100200C23CDE900300290D0
:10421000034623E0001001400044004000480040F5
:10422000004C0040005000400014014000080240D3
:1042300000180240000C024000000240000402404E
:1042400024000020340000204400002054000020FE
:1042500064000020740000204438024032462946A1
:1042600003902046FFF7D7FEDF4884420BD10020A1
:104270000C23CDE9003002900346324629460390D4
:104280002046FFF7C8FE7FBD2DE9FF4104460D46DD
:1042900016461F46D54884420BD100200C23CDE999
:1042A000003002903B463246294603902046FFF7F5
:1042B000B2FECF4884420BD100200C23CDE9003060
:1042C00002903B463246294603902046FFF7A3FE64
:1042D000C84884420BD100200C23CDE90030029065
:1042E0003B463246294603902046FFF794FEC248DB
:1042F00084420BD100200C23CDE9003002903B46D4
:104300003246294603902046FFF785FEBB4884428B
:104310000BD100200C23CDE9003002903B46324601
:10432000294603902046FFF776FEAF4884420BD122
:1043300000200C23CDE9003002903B46324629464E
:1043400003902046FFF767FEBDE8FF8130B50446C5
:1043500000252046FFF745FE0346D888002803DCE9
:1043600018895989884211D058899988884201D181
:104370000020588159891868405C45B25889401C12
:104380005881D88810B1D888401ED880E8B230BD96
:10439000F0B507460D463846FFF723FE0346DE8894
:1043A0005C890DE09888A04200D100241868005D67
:1043B000A84201D10120F0BD601C84B2701E86B2FB
:1043C000002EEFDC0020F6E72DE9F04180460E4696
:1043D000174600244046FFF704FE0546E88840B132
:1043E000697B4046FFF7D4FF30B9E888A988884246
:1043F00002D00020BDE8F0810AE04046FFF7A6FFAA
:104400003055305D697B884200D104E0601C84B285
:10441000781EA042F1DC00BF0021601C80B204467F
:1044200031542046E6E710B504462046FFF7D9FD93
:104430000346D88828B918895989884201D10120B2
:1044400010BD0020FCE710B504462046FFF7C9FD6B
:104450000346D8889988884201D1012010BD0020E8
:10446000FCE710B504462046FFF7BBFD03460020DD
:10447000D8801881588110BD30B504460B462046BF
:10448000FFF7AFFD05466B7330BD30B503460C46F4
:104490001846FFF7A6FD0546287B00B930BD12E09F
:1044A00000BF00BF188800F080000028FAD000BFCD
:1044B00014F8010B988000BF00BF188800F080003E
:1044C0000028FAD000BF20780028E9D100BFE5E736
:1044D000F0B503460D4616461846FFF782FD07461F
:1044E000387B00B9F0BD002413E000BF00BF18887E
:1044F00000F080000028FAD000BF285D988000BF3F
:1045000000BF188800F080000028FAD000BF601CAF
:1045100084B2B442E9DB00BFE4E7C28883889A42F0
:104520000EDA028983889A4201D10022028103892E
:104530000268D1540289521C0281C288521CC28076
:10454000704700B52948008800F0200028B12748AE
:104550008088C1B22A48FFF7E0FF00BD00B52448BB
:10456000008800F0200030B12148001D0088C1B251
:104570002448FFF7D2FF00BD00B51E48008800F0B8
:10458000200030B11B48001D0088C1B21E48FFF753
:10459000C4FF00BD00B51848008800F0200030B10D
:1045A0001548001D0088C1B21848FFF7B6FF00BDCE
:1045B00000B51248008800F0200028B10F4880881C
:1045C000C1B21348FFF7A9FF00BD00B50648008837
:1045D00000F0200030B10448001D0088C1B20D4831
:1045E000FFF79BFF00BD00000014014000100140D8
:1045F0000044004000480040004C00400050004093
:10460000240000203400002044000020540000203A
:1046100064000020740000200146624A914200D1EB
:104620006148624A914200D16148624A914200D198
:104630006148624A914200D16148624A914200D188
:104640006148624A914200D16148704770B50546A1
:104650002846FFF7E1FF04465E496068884206D3BA
:104660005D48006840F480005B49086005E05A48F6
:10467000006840F4001058490860606800F0D0F805
:1046800040205649C860002048614FF4806088612E
:104690000020C861086248628862C862032008631B
:1046A00000204863886370BD2DE9F04107460C4641
:1046B00015463846FFF7B0FF064674603560384649
:1046C000FFF7C4FFBDE8F08110B504462046FFF7B0
:1046D000A3FF406810BD70B504462046FFF79CFF5D
:1046E00005466868FDF7E6F970BD2DE9F04105461D
:1046F0000E4617462846FFF78FFF0446606840685D
:1047000010B10020BDE8F0813449206808600846F7
:104710000761281D486008468660606800F080F8E0
:104720002E496068FDF768FA6068006840F0010093
:1047300061680860A88A40F08000A8820120E1E753
:1047400070B505460C46204600F030FD86B2324674
:1047500021462846FFF7C9FF70BD70B504462046C4
:10476000FFF75AFF05466868406808B1012070BD30
:104770002088012121EAD010F9E770B504462046CF
:10478000FFF74AFF0546686800F075F870BD70B520
:1047900004462046FFF740FF0546686800F0A1F890
:1047A00070BD000000100140840000200044004063
:1047B0008C0000200048004094000020004C004085
:1047C0009C00002000500040A40000200014014084
:1047D000AC0000201064024030380240E4010020A8
:1047E00030B502460B46A64CA24207D2A549A54CBD
:1047F0000834141B1825B4FBF5F006E0A04908396D
:104800009F4C141B1825B4FBF5F0042801D3091D97
:10481000001F03F03D049C4D2D5CAC400C6030BD8E
:1048200010B504463D212046FFF7DAFF10BD70B5F4
:1048300002460C46002100230020914DAA4208D2D6
:10484000904B083B8F4D0835551B1826B5FBF6F1EC
:1048500006E08B4B103B8A4D551B1826B5FBF6F135
:10486000042901D31B1D091F1868874D6D5CE840A2
:1048700000F03D0070BD38B504463D212046FFF7ED
:10488000AFFF7F4884420DD27E480830201A18219D
:10489000B0FBF1F501208DF801007C48405D8DF8FA
:1048A00000000CE07648201A1821B0FBF1F5012039
:1048B0008DF8010075480830405D8DF8000001203A
:1048C0008DF80300E8B28DF802006846FBF7D5FCCE
:1048D000206840F01E002060606940F08000606148
:1048E00038BD30B504463D212046FFF779FF6448C6
:1048F000844208D263480830201A1821B0FBF1F036
:1049000062490D5606E05E48201A1821B0FBF1F00E
:104910005E490D5600BF05F01F01012088405C492B
:104920006A0941F8220000BF206820F01E002060C4
:10493000606900F08000606130BD7047704770476B
:104940007047704770B504463D212046FFF76FFF62
:1049500085B23D212046FFF743FF05F0200030B12E
:10496000206800F0100010B12046FFF7E6FF05F0C8
:10497000100030B1206800F0080010B12046FFF7A9
:10498000DDFF05F0080030B1206800F0040010B130
:104990002046FFF7D4FF05F0040030B1206800F096
:1049A000020010B12046FFF7CBFF05F0010030B147
:1049B000606900F0800010B12046FFF7C2FF70BDB3
:1049C00010B530480830FFF7BDFF10BD10B52D48B9
:1049D0002030FFF7B7FF10BD10B52A483830FFF779
:1049E000B1FF10BD10B527485030FFF7ABFF10BD29
:1049F00010B524486830FFF7A5FF10BD10B5214859
:104A00008030FFF79FFF10BD10B51E489830FFF7AC
:104A100099FF10BD10B51B48B030FFF793FF10BDD4
:104A200010B51748FFF78EFF10BD10B514481830A9
:104A3000FFF788FF10BD10B511483030FFF782FF37
:104A400010BD10B50E484830FFF77CFF10BD10B503
:104A50000B486030FFF776FF10BD10B5084878307E
:104A6000FFF770FF10BD10B505489030FFF76AFFE3
:104A700010BD10B50248A830FFF764FF10BD00005C
:104A80001064024008600240CE580008D258000866
:104A900080E100E008B51F490968009100BFEFF30D
:104AA000058139B900BF1B490968009A891A8142FA
:104AB000F9D309E006E04FF0E021096901F4803103
:104AC00001B1401E0028F6D108BD00F0A7F8FDF79F
:104AD00040FC00F049FA00F02BFA4FF4004000F0DF
:104AE0004DFA322000F04FF900F0F1FA40F2574051
:104AF000FFF7D0FF0CE00A21074800F0DAFA18B1FE
:104B00000A21054800F0C6FA4FF4FA70FFF7C2FF19
:104B1000F1E700001400002020020020704700BFD1
:104B2000FEE700BFFEE700BFFEE700BFFEE77047FD
:104B300070477047704710B5FDF7BAFB10BD000015
:104B40000CB50020019000907648006840F4803059
:104B50007449086000BF7348006800F4003000909A
:104B60000198401C0190009818B90198B0F5A04F29
:104B7000F1D16C48006800F4003010B101200090C1
:104B800001E0002000900098012846D1654840309F
:104B9000006840F080506349403108606248006816
:104BA00040F44040604908605E48083000685D4954
:104BB000083108600846006840F400400860084674
:104BC000006840F4A05008605848091F0860081F9A
:104BD000006840F08070091F086000BF51480068FD
:104BE00000F000700028F9D040F2057050490860CC
:104BF0004C480830006820F003004A49083108603A
:104C00000846006840F00200086000BF45480830D0
:104C1000006800F00C000828F8D10CBD10B545481C
:104C2000006840F47000434908603E48006840F066
:104C300001003C49086000203A49083108603948C1
:104C400000683D490840374908603C48091D086034
:104C5000081F006820F48020091F086000203149E7
:104C60000C310860FFF76CFF4FF00060314980396C
:104C7000086010BD70B5002000220223002402212C
:104C8000284D08352D6805F00C0020B1042806D009
:104C9000082834D107E02A4D2A4E356033E02A4DEA
:104CA000284E35602FE01F4D2D1D2D68C5F3805413
:104CB0001C4D2D1D2D6805F03F0154B1224DB5FB53
:104CC000F1F5184E361D3668C6F3881605FB06F258
:104CD00009E01B4DB5FBF1F5124E361D3668C6F3E3
:104CE000881605FB06F20F4D2D1D2D68C5F30145F5
:104CF0006D1C6B00B2FBF3F5124E356003E0104DF6
:104D0000104E356000BF00BF064D08352D68C5F355
:104D100003150E4E705D0B4D2D68C540094E356074
:104D200070BD000000380240007000400854400789
:104D3000003C024088ED00E0FFFFF6FE103000244A
:104D40000024F400B400002040787D01B800002069
:104D500008B570490968009100BFEFF3058139B9C2
:104D600000BF6C490968009A891A8142F9D309E0A9
:104D700006E04FF0E021096901F4803101B1401EE5
:104D80000028F6D108BD10B52DED028B82B0044687
:104D9000204600F0F4FC41EC180BB0EE480AF0EEAF
:104DA000680A5D494FF08040FDF7EEFD204600F0B7
:104DB000E6FC41EC180BB0EE480AF0EE680A5749E1
:104DC0005748FDF7E1FD012200215348FEF759FB4A
:104DD000002211465148FEF754FB032000210B46E8
:104DE0000122CDE900104FF4F0514E48FEF70CFDC2
:104DF0004FF400704B491A31088040000880400091
:104E000008804000088002B0BDEC028B10BD70B578
:104E100004460E461546012C26D14348007818BB9F
:104E2000012D0BD190023F491A3108800A20FFF76B
:104E30008FFF60023B49183108800CE04FF400708E
:104E400038491A3108800A20FFF782FF4FF480604A
:104E5000344918310880324600212F48FEF750FCB3
:104E600001203149087027E0022C25D12F48007815
:104E700010BB012D0BD1E0022A491A3108800A200B
:104E8000FFF766FFA0022749183108800CE04FF4B5
:104E9000006024491A3108800A20FFF759FF4FF4B7
:104EA0008050204918310880324600211B48FEF707
:104EB00027FC01201D49087070BD10B50446012C67
:104EC00011D11948007870B1002211461248FEF73E
:104ED00017FC600213491A31088040000880002046
:104EE0001149087012E0022C10D11048007868B106
:104EF000002211460948FEF703FCA00209491A31B5
:104F00000880400008800020084908700A20FFF748
:104F10001FFF10BD140000202C02002054020020AE
:104F200000040040000C0240C8000020C90000201E
:104F300010B500210B48FEF7ACFE01210948FEF731
:104F4000A8FE02210748FEF7A4FE03210548FEF74C
:104F5000A0FE10BD10B5044621460248FEF7FFFE34
:104F600010BD00000022014010B54548007820B96E
:104F7000FDF7C8FA01204249087010BD4049097880
:104F800001B3B0F5804F07D13E49097821B93E49B8
:104F9000088001213B4A1170B0F5805F07D13B4981
:104FA000097821B9384908800121384A1170B0F5D3
:104FB000004F07D13649097821B9334908800121CA
:104FC000334A117070472E49097819B3B0F5804FF4
:104FD00008D12C49097829B12B49891C0880002166
:104FE000284A1170B0F5805F08D12849097829B1A5
:104FF0002549891C08800021244A1170B0F5004F12
:1050000008D12349097829B11F49891C088000214A
:105010001F4A117070471A49097879B3B0F5804F6B
:105020000CD11949091F09684140174A121F116024
:105030001449097881F00101124A1170B0F5805FBE
:105040000CD11149091F096841400F4A121F116014
:105050000E49097881F001010C4A1170B0F5004F3A
:105060000CD10949091F09684140074A121F116004
:105070000749097881F00101054A11707047000065
:10508000CD000020CA000020180C0240CB000020F8
:10509000CC00002070B504460D462A46214615482E
:1050A000FFF723FB00BF1348FFF757FB0028FAD197
:1050B00070BD70B504460D462A4621460D48FFF7DF
:1050C00083F906460B48FFF7AEF9304670BD10B5C0
:1050D0004FF4165201210748FFF752F80548FFF731
:1050E000B5FA0A210448FFF7D5FF002003490860FC
:1050F00010BD704700100140CE00002014000020B9
:1051000070B5064600F074F8056806F10B0020F053
:105110000704B4429CBF002070BD2B466A68BAB138
:105120001068A04210D304F1080188423CBF5068C7
:10513000586007D35168101941601168091B01605C
:1051400058601460101D70BD13465268002AE7D1E4
:105150002146284600F054F80028DED170BD70B515
:105160000446051F00F044F80068002C14BF446892
:1051700070BD002C18BFAC423CBF20466468F8D319
:1051800001680A18AA4218BF456003D12A6805467B
:105190001144016028684119A1421CBF6C6070BDB8
:1051A0006168696021680844286070BD10B5431CBF
:1051B00002E010F8011B71B18107FAD14FF0013202
:1051C00002C88C1A8C4314EAC211F9D0C01A0A061C
:1051D00003D0C01E10BDC01A10BD0A0401D0801E2D
:1051E00010BD0902FCD0401E10BD704770477047CB
:1051F000004870478402002070477047704770472E
:1052000038B504460A4600206946AFF300800028FE
:1052100008BF38BD02460099204600F03FF8012043
:1052200038BD012000F054B8F8B5AFF30080054652
:1052300000200C46102000BF0646A819A0420DD938
:10524000324669460020AFF30080070008BF00F037
:105250003FF80098A04218BF0546C419FFF7C8FFE1
:1052600005600746F01D20F007004619284600F0AB
:105270000AF8B44208BFF8BDA21B31463868BDE841
:10528000F84000F00BB800210160C0E90110704740
:1052900010207047004870477C0200200346406899
:1052A0008C46002818BF88423CBF03464068F8D3AC
:1052B00018681844884207D00CF1030020F007005A
:1052C000001D411A521A0146081D0A60FFF747BF28
:1052D00010B500F039F8BDE8104000F02FB8704765
:1052E0007546FFF7D7FFAE4605006946534620F0E6
:1052F0000700854618B020B5FAF7A8FFBDE82040A2
:105300004FF000064FF000074FF000084FF0000B81
:1053100021F00701AC46ACE8C009ACE8C009ACE834
:10532000C009ACE8C0098D46704710B50446AFF31C
:1053300000802046BDE81040FAF773BF002801D076
:1053400000F02AB87047000010B5012805D00021F0
:1053500003A000F027F8012010BD09A1F8E7000024
:1053600053494752544D454D3A204F7574206F664E
:105370002068656170206D656D6F727900000000B6
:105380003A2048656170206D656D6F727920636F9A
:10539000727275707465640001491820ABBEFEE737
:1053A0002600020070B505460C460A2000E06D1C80
:1053B00000F011F835B128780028F8D102E0641C1B
:1053C00000F009F814B120780028F8D1BDE8704049
:1053D0000A20AFF3008008B569468DF8000003206D
:1053E000ABBE08BD491058BFC1F140415B1058BF6A
:1053F000C3F140438B42EFF3008070472DE9C04179
:1054000030B4DFF8A0C23CEA111418BF3CEA131410
:1054100000F0EC8081EA03051CEA111444EAD5741B
:1054200018BF1CEA131500F0C780A4EB05044FF069
:10543000004545EAC12145EAC32341EA505143EA08
:10544000525304F17F74994204F500344FEAC020AE
:105450004FEAC22208BF904200F09C804FEA1365D9
:105460000FF24016765D4FEA134506FB05F7C7F1CC
:10547000807706FB07F74FEAD737A7FB036876422A
:10548000C8F58038A7FB06CE38BFA8F1010807FB96
:1054900008E64FF0000EA6FB028CE6FB03CEDCF123
:1054A000000CCEF1004E38BFAEF1010EA6FB0C5839
:1054B0004FF000074FF00005E6FB0E87A1FB08C682
:1054C000A0FB07CE16EB0E0645F10005E1FB0765D4
:1054D00015F1E04E7EBFA4F580345FEA46066D41CB
:1054E00016F1800745F100054FEA17274FEA0666D7
:1054F00047EA0567A6F1DE46B6F1805F4FEA15255B
:105500001FD9384624F0010C05EBC471BCF1FE6FC5
:1055100001EB0C1102D8F0BCBDE8008124425CBF55
:1055200001F5801E9EEAC47F02D4F0BCBDE8008174
:10553000244238D4F0BCA1F1C041BDE8004100F0E4
:10554000BBB94FEAD22242EA43524FEAD323A7FB28
:1055500002864FEAD02040EA415007FB03661EEA6C
:105560000E0F4FEAD12105FB026658BFA6EB00568D
:10557000B6EB00564FEA520E4EEAC37E18EB0E0E03
:1055800056EB530EBDD518EB02085E417F1C55F15A
:105590000005B6E74FF480154FF000074FF0000606
:1055A0004FF00008ADE7F0BC4FF0000001F1C04142
:1055B00001F00041BDE8008111EA0C1F0CEA13154F
:1055C00000D00CE013EA0C1F00F025804FF0000023
:1055D000F0BC81EA030101F00041BDE80081F0BCAC
:1055E000BDE8004181EA030100F066B9F0BCBDE806
:1055F000004170B500F012F9097EFC3E00F007B8DA
:1056000081EA03014FF0000001F00041704781EA98
:10561000030100F051B9F0BCBDE800414FF00000BB
:1056200021497047FFFDFBF9F7F5F4F2F0EEEDEBE1
:10563000E9E8E6E4E3E1E0DEDDDBDAD8D7D5D4D390
:10564000D1D0CFCDCCCBCAC8C7C6C5C4C2C1C0BFDC
:10565000BEBDBCBBBAB9B8B7B6B5B4B3B2B1B0AFE2
:10566000AEADACABAAA9A8A8A7A6A5A4A3A3A2A1C6
:10567000A09F9F9E9D9C9C9B9A9999989797969581
:1056800095949393929191908F8F8E8E8D8C8C8B1D
:105690008B8A8989888887878685858484838382A5
:1056A000828181800000FF070000F87F51EA030C2F
:1056B00017D41CF5801F58BFBCF5801F00F1068071
:1056C000994218BF704708BF9042704707D711F53D
:1056D000801F58BF13F5801F19D499427047894223
:1056E00070471CF5801F08D5BCF5801FF7D58B428D
:1056F00018BF704708BF824270474FF4001C1CEB74
:10570000410F38BF1CEB430F01D28B42704770B57D
:1057100000F084F8922449004FF000514FF080537C
:10572000FFF760BE4FEA1153A3F58063D3F11E0368
:10573000A8BFD3F1200C08DB4FF0004242EAC1229F
:1057400052EA505232FA03F0704709420BD4102B40
:10575000C4BF0020704703F5787CBCF1FF3F05D043
:105760004FF0FF3070474FF00000704770B500F009
:1057700055F800BF4992248000207047F0E7B0FA46
:1057800080F310FA03F10AD0C3F11D0303F580631F
:105790004FEA41504FEA035202EBD12170474FF0DC
:1057A0000000704751EA030C17D41CF5801F58BF46
:1057B000BCF5801F00F10680994218BF704708BFF2
:1057C0009042704707D711F5801F58BF13F5801F0F
:1057D00019D499427047894270471CF5801F08D53B
:1057E000BCF5801FF7D58B4218BF704708BF8242B7
:1057F00070474FF4001C1CEB410F38BF1CEB430FEC
:1058000001D28B42704770B500F008F8922449002D
:105810004FF000514FF08053FFF7E4BD0EF1020E40
:105820002EF0030E5EF8046B364205D4012A43EBDA
:10583000030515F5001F12D8012841EB010C1CF5DA
:10584000001F0CD80ED14FEAD17C15F5001F0CEBD0
:105850004C0C0CF1020C08BF4CEBD37C04E04FF075
:10586000080C01E04FEAD37C0CEB4C0526FA05F658
:1058700006F00706B6F1040C06D20EEB860CBDE866
:1058800070404CF0010C6047DFE80CF0090B02029D
:105890004FF000414FF00000A1F5002170BD194606
:1058A0001046012851EB010418BFD4F5001484BF41
:1058B000002001F0004170BD0808A0F500114FEA7A
:1058C000310170474FF04070E1EE100A704700065A
:1058D00010160B0C0D0E0F10112F38393A3B3C44AB
:1058E000454600000459000800000020F4000000B4
:1058F000C4010008F8590008F4000020EC0700007B
:10590000E00100080000000001020304010203049A
:105910000607080900000000000000000000000069
:105920000000000000000000220100202000000014
:1059300000000000000A00004201002020000000DA
:1059400000000000000A00006201002020000000AA
:1059500000000000000A000082010020200000007A
:1059600000000000000A0000A2010020200000004A
:1059700000000000000A0000C2010020200000001A
:1059800000000000000A000000000008B8640240A7
:1059900000000008A06002400000000858600240BB
:1059A000000000087060024000000008B86002407B
:1059B0000000000AA0640240007A030A0000000010
:1059C00000000000010203040607080900000000AF
:1059D000000041542B4750533D310D0A41542B4791
:1059E00050533D3041542B414750533D3141542B8E
:0859F000414750533D30000017
:040000050800018965
:00000001FF
